
free_dv411.elf:     file format elf32-littlearm

Sections:
Idx Name          Size      VMA       LMA       File off  Algn
  0 .isr_vector   00000198  0800c000  0800c000  0000c000  2**0
                  CONTENTS, ALLOC, LOAD, READONLY, DATA
  1 .text         00020e28  0800c1a0  0800c1a0  0000c1a0  2**4
                  CONTENTS, ALLOC, LOAD, READONLY, CODE
  2 .rodata       000243b0  0802cfc8  0802cfc8  0002cfc8  2**3
                  CONTENTS, ALLOC, LOAD, READONLY, DATA
  3 .ARM.extab    00000000  08051378  08051378  00061980  2**0
                  CONTENTS
  4 .ARM          00000008  08051378  08051378  00051378  2**2
                  CONTENTS, ALLOC, LOAD, READONLY, DATA
  5 .preinit_array 00000000  08051380  08051380  00061980  2**0
                  CONTENTS, ALLOC, LOAD, DATA
  6 .init_array   00000008  08051380  08051380  00051380  2**2
                  CONTENTS, ALLOC, LOAD, DATA
  7 .fini_array   00000004  08051388  08051388  00051388  2**2
                  CONTENTS, ALLOC, LOAD, DATA
  8 .data         00001980  20000000  0805138c  00060000  2**3
                  CONTENTS, ALLOC, LOAD, READONLY, CODE
  9 .bss          0000e39c  20001980  08052d0c  00061980  2**3
                  ALLOC
 10 ._user_heap_stack 00000604  2000fd1c  08052d0c  0006fd1c  2**0
                  ALLOC
 11 .ARM.attributes 00000030  00000000  00000000  00061980  2**0
                  CONTENTS, READONLY
 12 .debug_info   000671e4  00000000  00000000  000619b0  2**0
                  CONTENTS, READONLY, DEBUGGING, OCTETS
 13 .debug_abbrev 0000fb81  00000000  00000000  000c8b94  2**0
                  CONTENTS, READONLY, DEBUGGING, OCTETS
 14 .debug_aranges 000028b8  00000000  00000000  000d8718  2**3
                  CONTENTS, READONLY, DEBUGGING, OCTETS
 15 .debug_macro  0001cef9  00000000  00000000  000dafd0  2**0
                  CONTENTS, READONLY, DEBUGGING, OCTETS
 16 .debug_line   00059d07  00000000  00000000  000f7ec9  2**0
                  CONTENTS, READONLY, DEBUGGING, OCTETS
 17 .debug_str    0006435d  00000000  00000000  00151bd0  2**0
                  CONTENTS, READONLY, DEBUGGING, OCTETS
 18 .comment      00000050  00000000  00000000  001b5f2d  2**0
                  CONTENTS, READONLY
 19 .debug_loc    00065063  00000000  00000000  001b5f7d  2**0
                  CONTENTS, READONLY, DEBUGGING, OCTETS
 20 .debug_ranges 00007080  00000000  00000000  0021afe0  2**3
                  CONTENTS, READONLY, DEBUGGING, OCTETS
 21 .debug_frame  0000ad9c  00000000  00000000  00222060  2**2
                  CONTENTS, READONLY, DEBUGGING, OCTETS

Disassembly of section .text:

0800c1a0 <__do_global_dtors_aux>:
 800c1a0:	b510      	push	{r4, lr}
 800c1a2:	4c05      	ldr	r4, [pc, #20]	; (800c1b8 <__do_global_dtors_aux+0x18>)
 800c1a4:	7823      	ldrb	r3, [r4, #0]
 800c1a6:	b933      	cbnz	r3, 800c1b6 <__do_global_dtors_aux+0x16>
 800c1a8:	4b04      	ldr	r3, [pc, #16]	; (800c1bc <__do_global_dtors_aux+0x1c>)
 800c1aa:	b113      	cbz	r3, 800c1b2 <__do_global_dtors_aux+0x12>
 800c1ac:	4804      	ldr	r0, [pc, #16]	; (800c1c0 <__do_global_dtors_aux+0x20>)
 800c1ae:	f3af 8000 	nop.w
 800c1b2:	2301      	movs	r3, #1
 800c1b4:	7023      	strb	r3, [r4, #0]
 800c1b6:	bd10      	pop	{r4, pc}
 800c1b8:	20001980 	.word	0x20001980
 800c1bc:	00000000 	.word	0x00000000
 800c1c0:	0802cfa4 	.word	0x0802cfa4

0800c1c4 <frame_dummy>:
 800c1c4:	b508      	push	{r3, lr}
 800c1c6:	4b03      	ldr	r3, [pc, #12]	; (800c1d4 <frame_dummy+0x10>)
 800c1c8:	b11b      	cbz	r3, 800c1d2 <frame_dummy+0xe>
 800c1ca:	4903      	ldr	r1, [pc, #12]	; (800c1d8 <frame_dummy+0x14>)
 800c1cc:	4803      	ldr	r0, [pc, #12]	; (800c1dc <frame_dummy+0x18>)
 800c1ce:	f3af 8000 	nop.w
 800c1d2:	bd08      	pop	{r3, pc}
 800c1d4:	00000000 	.word	0x00000000
 800c1d8:	20001984 	.word	0x20001984
 800c1dc:	0802cfa4 	.word	0x0802cfa4

0800c1e0 <strcmp>:
 800c1e0:	f810 2b01 	ldrb.w	r2, [r0], #1
 800c1e4:	f811 3b01 	ldrb.w	r3, [r1], #1
 800c1e8:	2a01      	cmp	r2, #1
 800c1ea:	bf28      	it	cs
 800c1ec:	429a      	cmpcs	r2, r3
 800c1ee:	d0f7      	beq.n	800c1e0 <strcmp>
 800c1f0:	1ad0      	subs	r0, r2, r3
 800c1f2:	4770      	bx	lr

0800c1f4 <strlen>:
 800c1f4:	4603      	mov	r3, r0
 800c1f6:	f813 2b01 	ldrb.w	r2, [r3], #1
 800c1fa:	2a00      	cmp	r2, #0
 800c1fc:	d1fb      	bne.n	800c1f6 <strlen+0x2>
 800c1fe:	1a18      	subs	r0, r3, r0
 800c200:	3801      	subs	r0, #1
 800c202:	4770      	bx	lr
	...

0800c210 <memchr>:
 800c210:	f001 01ff 	and.w	r1, r1, #255	; 0xff
 800c214:	2a10      	cmp	r2, #16
 800c216:	db2b      	blt.n	800c270 <memchr+0x60>
 800c218:	f010 0f07 	tst.w	r0, #7
 800c21c:	d008      	beq.n	800c230 <memchr+0x20>
 800c21e:	f810 3b01 	ldrb.w	r3, [r0], #1
 800c222:	3a01      	subs	r2, #1
 800c224:	428b      	cmp	r3, r1
 800c226:	d02d      	beq.n	800c284 <memchr+0x74>
 800c228:	f010 0f07 	tst.w	r0, #7
 800c22c:	b342      	cbz	r2, 800c280 <memchr+0x70>
 800c22e:	d1f6      	bne.n	800c21e <memchr+0xe>
 800c230:	b4f0      	push	{r4, r5, r6, r7}
 800c232:	ea41 2101 	orr.w	r1, r1, r1, lsl #8
 800c236:	ea41 4101 	orr.w	r1, r1, r1, lsl #16
 800c23a:	f022 0407 	bic.w	r4, r2, #7
 800c23e:	f07f 0700 	mvns.w	r7, #0
 800c242:	2300      	movs	r3, #0
 800c244:	e8f0 5602 	ldrd	r5, r6, [r0], #8
 800c248:	3c08      	subs	r4, #8
 800c24a:	ea85 0501 	eor.w	r5, r5, r1
 800c24e:	ea86 0601 	eor.w	r6, r6, r1
 800c252:	fa85 f547 	uadd8	r5, r5, r7
 800c256:	faa3 f587 	sel	r5, r3, r7
 800c25a:	fa86 f647 	uadd8	r6, r6, r7
 800c25e:	faa5 f687 	sel	r6, r5, r7
 800c262:	b98e      	cbnz	r6, 800c288 <memchr+0x78>
 800c264:	d1ee      	bne.n	800c244 <memchr+0x34>
 800c266:	bcf0      	pop	{r4, r5, r6, r7}
 800c268:	f001 01ff 	and.w	r1, r1, #255	; 0xff
 800c26c:	f002 0207 	and.w	r2, r2, #7
 800c270:	b132      	cbz	r2, 800c280 <memchr+0x70>
 800c272:	f810 3b01 	ldrb.w	r3, [r0], #1
 800c276:	3a01      	subs	r2, #1
 800c278:	ea83 0301 	eor.w	r3, r3, r1
 800c27c:	b113      	cbz	r3, 800c284 <memchr+0x74>
 800c27e:	d1f8      	bne.n	800c272 <memchr+0x62>
 800c280:	2000      	movs	r0, #0
 800c282:	4770      	bx	lr
 800c284:	3801      	subs	r0, #1
 800c286:	4770      	bx	lr
 800c288:	2d00      	cmp	r5, #0
 800c28a:	bf06      	itte	eq
 800c28c:	4635      	moveq	r5, r6
 800c28e:	3803      	subeq	r0, #3
 800c290:	3807      	subne	r0, #7
 800c292:	f015 0f01 	tst.w	r5, #1
 800c296:	d107      	bne.n	800c2a8 <memchr+0x98>
 800c298:	3001      	adds	r0, #1
 800c29a:	f415 7f80 	tst.w	r5, #256	; 0x100
 800c29e:	bf02      	ittt	eq
 800c2a0:	3001      	addeq	r0, #1
 800c2a2:	f415 3fc0 	tsteq.w	r5, #98304	; 0x18000
 800c2a6:	3001      	addeq	r0, #1
 800c2a8:	bcf0      	pop	{r4, r5, r6, r7}
 800c2aa:	3801      	subs	r0, #1
 800c2ac:	4770      	bx	lr
 800c2ae:	bf00      	nop

0800c2b0 <__aeabi_drsub>:
 800c2b0:	f081 4100 	eor.w	r1, r1, #2147483648	; 0x80000000
 800c2b4:	e002      	b.n	800c2bc <__adddf3>
 800c2b6:	bf00      	nop

0800c2b8 <__aeabi_dsub>:
 800c2b8:	f083 4300 	eor.w	r3, r3, #2147483648	; 0x80000000

0800c2bc <__adddf3>:
 800c2bc:	b530      	push	{r4, r5, lr}
 800c2be:	ea4f 0441 	mov.w	r4, r1, lsl #1
 800c2c2:	ea4f 0543 	mov.w	r5, r3, lsl #1
 800c2c6:	ea94 0f05 	teq	r4, r5
 800c2ca:	bf08      	it	eq
 800c2cc:	ea90 0f02 	teqeq	r0, r2
 800c2d0:	bf1f      	itttt	ne
 800c2d2:	ea54 0c00 	orrsne.w	ip, r4, r0
 800c2d6:	ea55 0c02 	orrsne.w	ip, r5, r2
 800c2da:	ea7f 5c64 	mvnsne.w	ip, r4, asr #21
 800c2de:	ea7f 5c65 	mvnsne.w	ip, r5, asr #21
 800c2e2:	f000 80e2 	beq.w	800c4aa <__adddf3+0x1ee>
 800c2e6:	ea4f 5454 	mov.w	r4, r4, lsr #21
 800c2ea:	ebd4 5555 	rsbs	r5, r4, r5, lsr #21
 800c2ee:	bfb8      	it	lt
 800c2f0:	426d      	neglt	r5, r5
 800c2f2:	dd0c      	ble.n	800c30e <__adddf3+0x52>
 800c2f4:	442c      	add	r4, r5
 800c2f6:	ea80 0202 	eor.w	r2, r0, r2
 800c2fa:	ea81 0303 	eor.w	r3, r1, r3
 800c2fe:	ea82 0000 	eor.w	r0, r2, r0
 800c302:	ea83 0101 	eor.w	r1, r3, r1
 800c306:	ea80 0202 	eor.w	r2, r0, r2
 800c30a:	ea81 0303 	eor.w	r3, r1, r3
 800c30e:	2d36      	cmp	r5, #54	; 0x36
 800c310:	bf88      	it	hi
 800c312:	bd30      	pophi	{r4, r5, pc}
 800c314:	f011 4f00 	tst.w	r1, #2147483648	; 0x80000000
 800c318:	ea4f 3101 	mov.w	r1, r1, lsl #12
 800c31c:	f44f 1c80 	mov.w	ip, #1048576	; 0x100000
 800c320:	ea4c 3111 	orr.w	r1, ip, r1, lsr #12
 800c324:	d002      	beq.n	800c32c <__adddf3+0x70>
 800c326:	4240      	negs	r0, r0
 800c328:	eb61 0141 	sbc.w	r1, r1, r1, lsl #1
 800c32c:	f013 4f00 	tst.w	r3, #2147483648	; 0x80000000
 800c330:	ea4f 3303 	mov.w	r3, r3, lsl #12
 800c334:	ea4c 3313 	orr.w	r3, ip, r3, lsr #12
 800c338:	d002      	beq.n	800c340 <__adddf3+0x84>
 800c33a:	4252      	negs	r2, r2
 800c33c:	eb63 0343 	sbc.w	r3, r3, r3, lsl #1
 800c340:	ea94 0f05 	teq	r4, r5
 800c344:	f000 80a7 	beq.w	800c496 <__adddf3+0x1da>
 800c348:	f1a4 0401 	sub.w	r4, r4, #1
 800c34c:	f1d5 0e20 	rsbs	lr, r5, #32
 800c350:	db0d      	blt.n	800c36e <__adddf3+0xb2>
 800c352:	fa02 fc0e 	lsl.w	ip, r2, lr
 800c356:	fa22 f205 	lsr.w	r2, r2, r5
 800c35a:	1880      	adds	r0, r0, r2
 800c35c:	f141 0100 	adc.w	r1, r1, #0
 800c360:	fa03 f20e 	lsl.w	r2, r3, lr
 800c364:	1880      	adds	r0, r0, r2
 800c366:	fa43 f305 	asr.w	r3, r3, r5
 800c36a:	4159      	adcs	r1, r3
 800c36c:	e00e      	b.n	800c38c <__adddf3+0xd0>
 800c36e:	f1a5 0520 	sub.w	r5, r5, #32
 800c372:	f10e 0e20 	add.w	lr, lr, #32
 800c376:	2a01      	cmp	r2, #1
 800c378:	fa03 fc0e 	lsl.w	ip, r3, lr
 800c37c:	bf28      	it	cs
 800c37e:	f04c 0c02 	orrcs.w	ip, ip, #2
 800c382:	fa43 f305 	asr.w	r3, r3, r5
 800c386:	18c0      	adds	r0, r0, r3
 800c388:	eb51 71e3 	adcs.w	r1, r1, r3, asr #31
 800c38c:	f001 4500 	and.w	r5, r1, #2147483648	; 0x80000000
 800c390:	d507      	bpl.n	800c3a2 <__adddf3+0xe6>
 800c392:	f04f 0e00 	mov.w	lr, #0
 800c396:	f1dc 0c00 	rsbs	ip, ip, #0
 800c39a:	eb7e 0000 	sbcs.w	r0, lr, r0
 800c39e:	eb6e 0101 	sbc.w	r1, lr, r1
 800c3a2:	f5b1 1f80 	cmp.w	r1, #1048576	; 0x100000
 800c3a6:	d31b      	bcc.n	800c3e0 <__adddf3+0x124>
 800c3a8:	f5b1 1f00 	cmp.w	r1, #2097152	; 0x200000
 800c3ac:	d30c      	bcc.n	800c3c8 <__adddf3+0x10c>
 800c3ae:	0849      	lsrs	r1, r1, #1
 800c3b0:	ea5f 0030 	movs.w	r0, r0, rrx
 800c3b4:	ea4f 0c3c 	mov.w	ip, ip, rrx
 800c3b8:	f104 0401 	add.w	r4, r4, #1
 800c3bc:	ea4f 5244 	mov.w	r2, r4, lsl #21
 800c3c0:	f512 0f80 	cmn.w	r2, #4194304	; 0x400000
 800c3c4:	f080 809a 	bcs.w	800c4fc <__adddf3+0x240>
 800c3c8:	f1bc 4f00 	cmp.w	ip, #2147483648	; 0x80000000
 800c3cc:	bf08      	it	eq
 800c3ce:	ea5f 0c50 	movseq.w	ip, r0, lsr #1
 800c3d2:	f150 0000 	adcs.w	r0, r0, #0
 800c3d6:	eb41 5104 	adc.w	r1, r1, r4, lsl #20
 800c3da:	ea41 0105 	orr.w	r1, r1, r5
 800c3de:	bd30      	pop	{r4, r5, pc}
 800c3e0:	ea5f 0c4c 	movs.w	ip, ip, lsl #1
 800c3e4:	4140      	adcs	r0, r0
 800c3e6:	eb41 0101 	adc.w	r1, r1, r1
 800c3ea:	3c01      	subs	r4, #1
 800c3ec:	bf28      	it	cs
 800c3ee:	f5b1 1f80 	cmpcs.w	r1, #1048576	; 0x100000
 800c3f2:	d2e9      	bcs.n	800c3c8 <__adddf3+0x10c>
 800c3f4:	f091 0f00 	teq	r1, #0
 800c3f8:	bf04      	itt	eq
 800c3fa:	4601      	moveq	r1, r0
 800c3fc:	2000      	moveq	r0, #0
 800c3fe:	fab1 f381 	clz	r3, r1
 800c402:	bf08      	it	eq
 800c404:	3320      	addeq	r3, #32
 800c406:	f1a3 030b 	sub.w	r3, r3, #11
 800c40a:	f1b3 0220 	subs.w	r2, r3, #32
 800c40e:	da0c      	bge.n	800c42a <__adddf3+0x16e>
 800c410:	320c      	adds	r2, #12
 800c412:	dd08      	ble.n	800c426 <__adddf3+0x16a>
 800c414:	f102 0c14 	add.w	ip, r2, #20
 800c418:	f1c2 020c 	rsb	r2, r2, #12
 800c41c:	fa01 f00c 	lsl.w	r0, r1, ip
 800c420:	fa21 f102 	lsr.w	r1, r1, r2
 800c424:	e00c      	b.n	800c440 <__adddf3+0x184>
 800c426:	f102 0214 	add.w	r2, r2, #20
 800c42a:	bfd8      	it	le
 800c42c:	f1c2 0c20 	rsble	ip, r2, #32
 800c430:	fa01 f102 	lsl.w	r1, r1, r2
 800c434:	fa20 fc0c 	lsr.w	ip, r0, ip
 800c438:	bfdc      	itt	le
 800c43a:	ea41 010c 	orrle.w	r1, r1, ip
 800c43e:	4090      	lslle	r0, r2
 800c440:	1ae4      	subs	r4, r4, r3
 800c442:	bfa2      	ittt	ge
 800c444:	eb01 5104 	addge.w	r1, r1, r4, lsl #20
 800c448:	4329      	orrge	r1, r5
 800c44a:	bd30      	popge	{r4, r5, pc}
 800c44c:	ea6f 0404 	mvn.w	r4, r4
 800c450:	3c1f      	subs	r4, #31
 800c452:	da1c      	bge.n	800c48e <__adddf3+0x1d2>
 800c454:	340c      	adds	r4, #12
 800c456:	dc0e      	bgt.n	800c476 <__adddf3+0x1ba>
 800c458:	f104 0414 	add.w	r4, r4, #20
 800c45c:	f1c4 0220 	rsb	r2, r4, #32
 800c460:	fa20 f004 	lsr.w	r0, r0, r4
 800c464:	fa01 f302 	lsl.w	r3, r1, r2
 800c468:	ea40 0003 	orr.w	r0, r0, r3
 800c46c:	fa21 f304 	lsr.w	r3, r1, r4
 800c470:	ea45 0103 	orr.w	r1, r5, r3
 800c474:	bd30      	pop	{r4, r5, pc}
 800c476:	f1c4 040c 	rsb	r4, r4, #12
 800c47a:	f1c4 0220 	rsb	r2, r4, #32
 800c47e:	fa20 f002 	lsr.w	r0, r0, r2
 800c482:	fa01 f304 	lsl.w	r3, r1, r4
 800c486:	ea40 0003 	orr.w	r0, r0, r3
 800c48a:	4629      	mov	r1, r5
 800c48c:	bd30      	pop	{r4, r5, pc}
 800c48e:	fa21 f004 	lsr.w	r0, r1, r4
 800c492:	4629      	mov	r1, r5
 800c494:	bd30      	pop	{r4, r5, pc}
 800c496:	f094 0f00 	teq	r4, #0
 800c49a:	f483 1380 	eor.w	r3, r3, #1048576	; 0x100000
 800c49e:	bf06      	itte	eq
 800c4a0:	f481 1180 	eoreq.w	r1, r1, #1048576	; 0x100000
 800c4a4:	3401      	addeq	r4, #1
 800c4a6:	3d01      	subne	r5, #1
 800c4a8:	e74e      	b.n	800c348 <__adddf3+0x8c>
 800c4aa:	ea7f 5c64 	mvns.w	ip, r4, asr #21
 800c4ae:	bf18      	it	ne
 800c4b0:	ea7f 5c65 	mvnsne.w	ip, r5, asr #21
 800c4b4:	d029      	beq.n	800c50a <__adddf3+0x24e>
 800c4b6:	ea94 0f05 	teq	r4, r5
 800c4ba:	bf08      	it	eq
 800c4bc:	ea90 0f02 	teqeq	r0, r2
 800c4c0:	d005      	beq.n	800c4ce <__adddf3+0x212>
 800c4c2:	ea54 0c00 	orrs.w	ip, r4, r0
 800c4c6:	bf04      	itt	eq
 800c4c8:	4619      	moveq	r1, r3
 800c4ca:	4610      	moveq	r0, r2
 800c4cc:	bd30      	pop	{r4, r5, pc}
 800c4ce:	ea91 0f03 	teq	r1, r3
 800c4d2:	bf1e      	ittt	ne
 800c4d4:	2100      	movne	r1, #0
 800c4d6:	2000      	movne	r0, #0
 800c4d8:	bd30      	popne	{r4, r5, pc}
 800c4da:	ea5f 5c54 	movs.w	ip, r4, lsr #21
 800c4de:	d105      	bne.n	800c4ec <__adddf3+0x230>
 800c4e0:	0040      	lsls	r0, r0, #1
 800c4e2:	4149      	adcs	r1, r1
 800c4e4:	bf28      	it	cs
 800c4e6:	f041 4100 	orrcs.w	r1, r1, #2147483648	; 0x80000000
 800c4ea:	bd30      	pop	{r4, r5, pc}
 800c4ec:	f514 0480 	adds.w	r4, r4, #4194304	; 0x400000
 800c4f0:	bf3c      	itt	cc
 800c4f2:	f501 1180 	addcc.w	r1, r1, #1048576	; 0x100000
 800c4f6:	bd30      	popcc	{r4, r5, pc}
 800c4f8:	f001 4500 	and.w	r5, r1, #2147483648	; 0x80000000
 800c4fc:	f045 41fe 	orr.w	r1, r5, #2130706432	; 0x7f000000
 800c500:	f441 0170 	orr.w	r1, r1, #15728640	; 0xf00000
 800c504:	f04f 0000 	mov.w	r0, #0
 800c508:	bd30      	pop	{r4, r5, pc}
 800c50a:	ea7f 5c64 	mvns.w	ip, r4, asr #21
 800c50e:	bf1a      	itte	ne
 800c510:	4619      	movne	r1, r3
 800c512:	4610      	movne	r0, r2
 800c514:	ea7f 5c65 	mvnseq.w	ip, r5, asr #21
 800c518:	bf1c      	itt	ne
 800c51a:	460b      	movne	r3, r1
 800c51c:	4602      	movne	r2, r0
 800c51e:	ea50 3401 	orrs.w	r4, r0, r1, lsl #12
 800c522:	bf06      	itte	eq
 800c524:	ea52 3503 	orrseq.w	r5, r2, r3, lsl #12
 800c528:	ea91 0f03 	teqeq	r1, r3
 800c52c:	f441 2100 	orrne.w	r1, r1, #524288	; 0x80000
 800c530:	bd30      	pop	{r4, r5, pc}
 800c532:	bf00      	nop

0800c534 <__aeabi_ui2d>:
 800c534:	f090 0f00 	teq	r0, #0
 800c538:	bf04      	itt	eq
 800c53a:	2100      	moveq	r1, #0
 800c53c:	4770      	bxeq	lr
 800c53e:	b530      	push	{r4, r5, lr}
 800c540:	f44f 6480 	mov.w	r4, #1024	; 0x400
 800c544:	f104 0432 	add.w	r4, r4, #50	; 0x32
 800c548:	f04f 0500 	mov.w	r5, #0
 800c54c:	f04f 0100 	mov.w	r1, #0
 800c550:	e750      	b.n	800c3f4 <__adddf3+0x138>
 800c552:	bf00      	nop

0800c554 <__aeabi_i2d>:
 800c554:	f090 0f00 	teq	r0, #0
 800c558:	bf04      	itt	eq
 800c55a:	2100      	moveq	r1, #0
 800c55c:	4770      	bxeq	lr
 800c55e:	b530      	push	{r4, r5, lr}
 800c560:	f44f 6480 	mov.w	r4, #1024	; 0x400
 800c564:	f104 0432 	add.w	r4, r4, #50	; 0x32
 800c568:	f010 4500 	ands.w	r5, r0, #2147483648	; 0x80000000
 800c56c:	bf48      	it	mi
 800c56e:	4240      	negmi	r0, r0
 800c570:	f04f 0100 	mov.w	r1, #0
 800c574:	e73e      	b.n	800c3f4 <__adddf3+0x138>
 800c576:	bf00      	nop

0800c578 <__aeabi_f2d>:
 800c578:	0042      	lsls	r2, r0, #1
 800c57a:	ea4f 01e2 	mov.w	r1, r2, asr #3
 800c57e:	ea4f 0131 	mov.w	r1, r1, rrx
 800c582:	ea4f 7002 	mov.w	r0, r2, lsl #28
 800c586:	bf1f      	itttt	ne
 800c588:	f012 437f 	andsne.w	r3, r2, #4278190080	; 0xff000000
 800c58c:	f093 4f7f 	teqne	r3, #4278190080	; 0xff000000
 800c590:	f081 5160 	eorne.w	r1, r1, #939524096	; 0x38000000
 800c594:	4770      	bxne	lr
 800c596:	f032 427f 	bics.w	r2, r2, #4278190080	; 0xff000000
 800c59a:	bf08      	it	eq
 800c59c:	4770      	bxeq	lr
 800c59e:	f093 4f7f 	teq	r3, #4278190080	; 0xff000000
 800c5a2:	bf04      	itt	eq
 800c5a4:	f441 2100 	orreq.w	r1, r1, #524288	; 0x80000
 800c5a8:	4770      	bxeq	lr
 800c5aa:	b530      	push	{r4, r5, lr}
 800c5ac:	f44f 7460 	mov.w	r4, #896	; 0x380
 800c5b0:	f001 4500 	and.w	r5, r1, #2147483648	; 0x80000000
 800c5b4:	f021 4100 	bic.w	r1, r1, #2147483648	; 0x80000000
 800c5b8:	e71c      	b.n	800c3f4 <__adddf3+0x138>
 800c5ba:	bf00      	nop

0800c5bc <__aeabi_ul2d>:
 800c5bc:	ea50 0201 	orrs.w	r2, r0, r1
 800c5c0:	bf08      	it	eq
 800c5c2:	4770      	bxeq	lr
 800c5c4:	b530      	push	{r4, r5, lr}
 800c5c6:	f04f 0500 	mov.w	r5, #0
 800c5ca:	e00a      	b.n	800c5e2 <__aeabi_l2d+0x16>

0800c5cc <__aeabi_l2d>:
 800c5cc:	ea50 0201 	orrs.w	r2, r0, r1
 800c5d0:	bf08      	it	eq
 800c5d2:	4770      	bxeq	lr
 800c5d4:	b530      	push	{r4, r5, lr}
 800c5d6:	f011 4500 	ands.w	r5, r1, #2147483648	; 0x80000000
 800c5da:	d502      	bpl.n	800c5e2 <__aeabi_l2d+0x16>
 800c5dc:	4240      	negs	r0, r0
 800c5de:	eb61 0141 	sbc.w	r1, r1, r1, lsl #1
 800c5e2:	f44f 6480 	mov.w	r4, #1024	; 0x400
 800c5e6:	f104 0432 	add.w	r4, r4, #50	; 0x32
 800c5ea:	ea5f 5c91 	movs.w	ip, r1, lsr #22
 800c5ee:	f43f aed8 	beq.w	800c3a2 <__adddf3+0xe6>
 800c5f2:	f04f 0203 	mov.w	r2, #3
 800c5f6:	ea5f 0cdc 	movs.w	ip, ip, lsr #3
 800c5fa:	bf18      	it	ne
 800c5fc:	3203      	addne	r2, #3
 800c5fe:	ea5f 0cdc 	movs.w	ip, ip, lsr #3
 800c602:	bf18      	it	ne
 800c604:	3203      	addne	r2, #3
 800c606:	eb02 02dc 	add.w	r2, r2, ip, lsr #3
 800c60a:	f1c2 0320 	rsb	r3, r2, #32
 800c60e:	fa00 fc03 	lsl.w	ip, r0, r3
 800c612:	fa20 f002 	lsr.w	r0, r0, r2
 800c616:	fa01 fe03 	lsl.w	lr, r1, r3
 800c61a:	ea40 000e 	orr.w	r0, r0, lr
 800c61e:	fa21 f102 	lsr.w	r1, r1, r2
 800c622:	4414      	add	r4, r2
 800c624:	e6bd      	b.n	800c3a2 <__adddf3+0xe6>
 800c626:	bf00      	nop

0800c628 <__aeabi_dmul>:
 800c628:	b570      	push	{r4, r5, r6, lr}
 800c62a:	f04f 0cff 	mov.w	ip, #255	; 0xff
 800c62e:	f44c 6ce0 	orr.w	ip, ip, #1792	; 0x700
 800c632:	ea1c 5411 	ands.w	r4, ip, r1, lsr #20
 800c636:	bf1d      	ittte	ne
 800c638:	ea1c 5513 	andsne.w	r5, ip, r3, lsr #20
 800c63c:	ea94 0f0c 	teqne	r4, ip
 800c640:	ea95 0f0c 	teqne	r5, ip
 800c644:	f000 f8de 	bleq	800c804 <__aeabi_dmul+0x1dc>
 800c648:	442c      	add	r4, r5
 800c64a:	ea81 0603 	eor.w	r6, r1, r3
 800c64e:	ea21 514c 	bic.w	r1, r1, ip, lsl #21
 800c652:	ea23 534c 	bic.w	r3, r3, ip, lsl #21
 800c656:	ea50 3501 	orrs.w	r5, r0, r1, lsl #12
 800c65a:	bf18      	it	ne
 800c65c:	ea52 3503 	orrsne.w	r5, r2, r3, lsl #12
 800c660:	f441 1180 	orr.w	r1, r1, #1048576	; 0x100000
 800c664:	f443 1380 	orr.w	r3, r3, #1048576	; 0x100000
 800c668:	d038      	beq.n	800c6dc <__aeabi_dmul+0xb4>
 800c66a:	fba0 ce02 	umull	ip, lr, r0, r2
 800c66e:	f04f 0500 	mov.w	r5, #0
 800c672:	fbe1 e502 	umlal	lr, r5, r1, r2
 800c676:	f006 4200 	and.w	r2, r6, #2147483648	; 0x80000000
 800c67a:	fbe0 e503 	umlal	lr, r5, r0, r3
 800c67e:	f04f 0600 	mov.w	r6, #0
 800c682:	fbe1 5603 	umlal	r5, r6, r1, r3
 800c686:	f09c 0f00 	teq	ip, #0
 800c68a:	bf18      	it	ne
 800c68c:	f04e 0e01 	orrne.w	lr, lr, #1
 800c690:	f1a4 04ff 	sub.w	r4, r4, #255	; 0xff
 800c694:	f5b6 7f00 	cmp.w	r6, #512	; 0x200
 800c698:	f564 7440 	sbc.w	r4, r4, #768	; 0x300
 800c69c:	d204      	bcs.n	800c6a8 <__aeabi_dmul+0x80>
 800c69e:	ea5f 0e4e 	movs.w	lr, lr, lsl #1
 800c6a2:	416d      	adcs	r5, r5
 800c6a4:	eb46 0606 	adc.w	r6, r6, r6
 800c6a8:	ea42 21c6 	orr.w	r1, r2, r6, lsl #11
 800c6ac:	ea41 5155 	orr.w	r1, r1, r5, lsr #21
 800c6b0:	ea4f 20c5 	mov.w	r0, r5, lsl #11
 800c6b4:	ea40 505e 	orr.w	r0, r0, lr, lsr #21
 800c6b8:	ea4f 2ece 	mov.w	lr, lr, lsl #11
 800c6bc:	f1b4 0cfd 	subs.w	ip, r4, #253	; 0xfd
 800c6c0:	bf88      	it	hi
 800c6c2:	f5bc 6fe0 	cmphi.w	ip, #1792	; 0x700
 800c6c6:	d81e      	bhi.n	800c706 <__aeabi_dmul+0xde>
 800c6c8:	f1be 4f00 	cmp.w	lr, #2147483648	; 0x80000000
 800c6cc:	bf08      	it	eq
 800c6ce:	ea5f 0e50 	movseq.w	lr, r0, lsr #1
 800c6d2:	f150 0000 	adcs.w	r0, r0, #0
 800c6d6:	eb41 5104 	adc.w	r1, r1, r4, lsl #20
 800c6da:	bd70      	pop	{r4, r5, r6, pc}
 800c6dc:	f006 4600 	and.w	r6, r6, #2147483648	; 0x80000000
 800c6e0:	ea46 0101 	orr.w	r1, r6, r1
 800c6e4:	ea40 0002 	orr.w	r0, r0, r2
 800c6e8:	ea81 0103 	eor.w	r1, r1, r3
 800c6ec:	ebb4 045c 	subs.w	r4, r4, ip, lsr #1
 800c6f0:	bfc2      	ittt	gt
 800c6f2:	ebd4 050c 	rsbsgt	r5, r4, ip
 800c6f6:	ea41 5104 	orrgt.w	r1, r1, r4, lsl #20
 800c6fa:	bd70      	popgt	{r4, r5, r6, pc}
 800c6fc:	f441 1180 	orr.w	r1, r1, #1048576	; 0x100000
 800c700:	f04f 0e00 	mov.w	lr, #0
 800c704:	3c01      	subs	r4, #1
 800c706:	f300 80ab 	bgt.w	800c860 <__aeabi_dmul+0x238>
 800c70a:	f114 0f36 	cmn.w	r4, #54	; 0x36
 800c70e:	bfde      	ittt	le
 800c710:	2000      	movle	r0, #0
 800c712:	f001 4100 	andle.w	r1, r1, #2147483648	; 0x80000000
 800c716:	bd70      	pople	{r4, r5, r6, pc}
 800c718:	f1c4 0400 	rsb	r4, r4, #0
 800c71c:	3c20      	subs	r4, #32
 800c71e:	da35      	bge.n	800c78c <__aeabi_dmul+0x164>
 800c720:	340c      	adds	r4, #12
 800c722:	dc1b      	bgt.n	800c75c <__aeabi_dmul+0x134>
 800c724:	f104 0414 	add.w	r4, r4, #20
 800c728:	f1c4 0520 	rsb	r5, r4, #32
 800c72c:	fa00 f305 	lsl.w	r3, r0, r5
 800c730:	fa20 f004 	lsr.w	r0, r0, r4
 800c734:	fa01 f205 	lsl.w	r2, r1, r5
 800c738:	ea40 0002 	orr.w	r0, r0, r2
 800c73c:	f001 4200 	and.w	r2, r1, #2147483648	; 0x80000000
 800c740:	f021 4100 	bic.w	r1, r1, #2147483648	; 0x80000000
 800c744:	eb10 70d3 	adds.w	r0, r0, r3, lsr #31
 800c748:	fa21 f604 	lsr.w	r6, r1, r4
 800c74c:	eb42 0106 	adc.w	r1, r2, r6
 800c750:	ea5e 0e43 	orrs.w	lr, lr, r3, lsl #1
 800c754:	bf08      	it	eq
 800c756:	ea20 70d3 	biceq.w	r0, r0, r3, lsr #31
 800c75a:	bd70      	pop	{r4, r5, r6, pc}
 800c75c:	f1c4 040c 	rsb	r4, r4, #12
 800c760:	f1c4 0520 	rsb	r5, r4, #32
 800c764:	fa00 f304 	lsl.w	r3, r0, r4
 800c768:	fa20 f005 	lsr.w	r0, r0, r5
 800c76c:	fa01 f204 	lsl.w	r2, r1, r4
 800c770:	ea40 0002 	orr.w	r0, r0, r2
 800c774:	f001 4100 	and.w	r1, r1, #2147483648	; 0x80000000
 800c778:	eb10 70d3 	adds.w	r0, r0, r3, lsr #31
 800c77c:	f141 0100 	adc.w	r1, r1, #0
 800c780:	ea5e 0e43 	orrs.w	lr, lr, r3, lsl #1
 800c784:	bf08      	it	eq
 800c786:	ea20 70d3 	biceq.w	r0, r0, r3, lsr #31
 800c78a:	bd70      	pop	{r4, r5, r6, pc}
 800c78c:	f1c4 0520 	rsb	r5, r4, #32
 800c790:	fa00 f205 	lsl.w	r2, r0, r5
 800c794:	ea4e 0e02 	orr.w	lr, lr, r2
 800c798:	fa20 f304 	lsr.w	r3, r0, r4
 800c79c:	fa01 f205 	lsl.w	r2, r1, r5
 800c7a0:	ea43 0302 	orr.w	r3, r3, r2
 800c7a4:	fa21 f004 	lsr.w	r0, r1, r4
 800c7a8:	f001 4100 	and.w	r1, r1, #2147483648	; 0x80000000
 800c7ac:	fa21 f204 	lsr.w	r2, r1, r4
 800c7b0:	ea20 0002 	bic.w	r0, r0, r2
 800c7b4:	eb00 70d3 	add.w	r0, r0, r3, lsr #31
 800c7b8:	ea5e 0e43 	orrs.w	lr, lr, r3, lsl #1
 800c7bc:	bf08      	it	eq
 800c7be:	ea20 70d3 	biceq.w	r0, r0, r3, lsr #31
 800c7c2:	bd70      	pop	{r4, r5, r6, pc}
 800c7c4:	f094 0f00 	teq	r4, #0
 800c7c8:	d10f      	bne.n	800c7ea <__aeabi_dmul+0x1c2>
 800c7ca:	f001 4600 	and.w	r6, r1, #2147483648	; 0x80000000
 800c7ce:	0040      	lsls	r0, r0, #1
 800c7d0:	eb41 0101 	adc.w	r1, r1, r1
 800c7d4:	f411 1f80 	tst.w	r1, #1048576	; 0x100000
 800c7d8:	bf08      	it	eq
 800c7da:	3c01      	subeq	r4, #1
 800c7dc:	d0f7      	beq.n	800c7ce <__aeabi_dmul+0x1a6>
 800c7de:	ea41 0106 	orr.w	r1, r1, r6
 800c7e2:	f095 0f00 	teq	r5, #0
 800c7e6:	bf18      	it	ne
 800c7e8:	4770      	bxne	lr
 800c7ea:	f003 4600 	and.w	r6, r3, #2147483648	; 0x80000000
 800c7ee:	0052      	lsls	r2, r2, #1
 800c7f0:	eb43 0303 	adc.w	r3, r3, r3
 800c7f4:	f413 1f80 	tst.w	r3, #1048576	; 0x100000
 800c7f8:	bf08      	it	eq
 800c7fa:	3d01      	subeq	r5, #1
 800c7fc:	d0f7      	beq.n	800c7ee <__aeabi_dmul+0x1c6>
 800c7fe:	ea43 0306 	orr.w	r3, r3, r6
 800c802:	4770      	bx	lr
 800c804:	ea94 0f0c 	teq	r4, ip
 800c808:	ea0c 5513 	and.w	r5, ip, r3, lsr #20
 800c80c:	bf18      	it	ne
 800c80e:	ea95 0f0c 	teqne	r5, ip
 800c812:	d00c      	beq.n	800c82e <__aeabi_dmul+0x206>
 800c814:	ea50 0641 	orrs.w	r6, r0, r1, lsl #1
 800c818:	bf18      	it	ne
 800c81a:	ea52 0643 	orrsne.w	r6, r2, r3, lsl #1
 800c81e:	d1d1      	bne.n	800c7c4 <__aeabi_dmul+0x19c>
 800c820:	ea81 0103 	eor.w	r1, r1, r3
 800c824:	f001 4100 	and.w	r1, r1, #2147483648	; 0x80000000
 800c828:	f04f 0000 	mov.w	r0, #0
 800c82c:	bd70      	pop	{r4, r5, r6, pc}
 800c82e:	ea50 0641 	orrs.w	r6, r0, r1, lsl #1
 800c832:	bf06      	itte	eq
 800c834:	4610      	moveq	r0, r2
 800c836:	4619      	moveq	r1, r3
 800c838:	ea52 0643 	orrsne.w	r6, r2, r3, lsl #1
 800c83c:	d019      	beq.n	800c872 <__aeabi_dmul+0x24a>
 800c83e:	ea94 0f0c 	teq	r4, ip
 800c842:	d102      	bne.n	800c84a <__aeabi_dmul+0x222>
 800c844:	ea50 3601 	orrs.w	r6, r0, r1, lsl #12
 800c848:	d113      	bne.n	800c872 <__aeabi_dmul+0x24a>
 800c84a:	ea95 0f0c 	teq	r5, ip
 800c84e:	d105      	bne.n	800c85c <__aeabi_dmul+0x234>
 800c850:	ea52 3603 	orrs.w	r6, r2, r3, lsl #12
 800c854:	bf1c      	itt	ne
 800c856:	4610      	movne	r0, r2
 800c858:	4619      	movne	r1, r3
 800c85a:	d10a      	bne.n	800c872 <__aeabi_dmul+0x24a>
 800c85c:	ea81 0103 	eor.w	r1, r1, r3
 800c860:	f001 4100 	and.w	r1, r1, #2147483648	; 0x80000000
 800c864:	f041 41fe 	orr.w	r1, r1, #2130706432	; 0x7f000000
 800c868:	f441 0170 	orr.w	r1, r1, #15728640	; 0xf00000
 800c86c:	f04f 0000 	mov.w	r0, #0
 800c870:	bd70      	pop	{r4, r5, r6, pc}
 800c872:	f041 41fe 	orr.w	r1, r1, #2130706432	; 0x7f000000
 800c876:	f441 0178 	orr.w	r1, r1, #16252928	; 0xf80000
 800c87a:	bd70      	pop	{r4, r5, r6, pc}

0800c87c <__aeabi_ddiv>:
 800c87c:	b570      	push	{r4, r5, r6, lr}
 800c87e:	f04f 0cff 	mov.w	ip, #255	; 0xff
 800c882:	f44c 6ce0 	orr.w	ip, ip, #1792	; 0x700
 800c886:	ea1c 5411 	ands.w	r4, ip, r1, lsr #20
 800c88a:	bf1d      	ittte	ne
 800c88c:	ea1c 5513 	andsne.w	r5, ip, r3, lsr #20
 800c890:	ea94 0f0c 	teqne	r4, ip
 800c894:	ea95 0f0c 	teqne	r5, ip
 800c898:	f000 f8a7 	bleq	800c9ea <__aeabi_ddiv+0x16e>
 800c89c:	eba4 0405 	sub.w	r4, r4, r5
 800c8a0:	ea81 0e03 	eor.w	lr, r1, r3
 800c8a4:	ea52 3503 	orrs.w	r5, r2, r3, lsl #12
 800c8a8:	ea4f 3101 	mov.w	r1, r1, lsl #12
 800c8ac:	f000 8088 	beq.w	800c9c0 <__aeabi_ddiv+0x144>
 800c8b0:	ea4f 3303 	mov.w	r3, r3, lsl #12
 800c8b4:	f04f 5580 	mov.w	r5, #268435456	; 0x10000000
 800c8b8:	ea45 1313 	orr.w	r3, r5, r3, lsr #4
 800c8bc:	ea43 6312 	orr.w	r3, r3, r2, lsr #24
 800c8c0:	ea4f 2202 	mov.w	r2, r2, lsl #8
 800c8c4:	ea45 1511 	orr.w	r5, r5, r1, lsr #4
 800c8c8:	ea45 6510 	orr.w	r5, r5, r0, lsr #24
 800c8cc:	ea4f 2600 	mov.w	r6, r0, lsl #8
 800c8d0:	f00e 4100 	and.w	r1, lr, #2147483648	; 0x80000000
 800c8d4:	429d      	cmp	r5, r3
 800c8d6:	bf08      	it	eq
 800c8d8:	4296      	cmpeq	r6, r2
 800c8da:	f144 04fd 	adc.w	r4, r4, #253	; 0xfd
 800c8de:	f504 7440 	add.w	r4, r4, #768	; 0x300
 800c8e2:	d202      	bcs.n	800c8ea <__aeabi_ddiv+0x6e>
 800c8e4:	085b      	lsrs	r3, r3, #1
 800c8e6:	ea4f 0232 	mov.w	r2, r2, rrx
 800c8ea:	1ab6      	subs	r6, r6, r2
 800c8ec:	eb65 0503 	sbc.w	r5, r5, r3
 800c8f0:	085b      	lsrs	r3, r3, #1
 800c8f2:	ea4f 0232 	mov.w	r2, r2, rrx
 800c8f6:	f44f 1080 	mov.w	r0, #1048576	; 0x100000
 800c8fa:	f44f 2c00 	mov.w	ip, #524288	; 0x80000
 800c8fe:	ebb6 0e02 	subs.w	lr, r6, r2
 800c902:	eb75 0e03 	sbcs.w	lr, r5, r3
 800c906:	bf22      	ittt	cs
 800c908:	1ab6      	subcs	r6, r6, r2
 800c90a:	4675      	movcs	r5, lr
 800c90c:	ea40 000c 	orrcs.w	r0, r0, ip
 800c910:	085b      	lsrs	r3, r3, #1
 800c912:	ea4f 0232 	mov.w	r2, r2, rrx
 800c916:	ebb6 0e02 	subs.w	lr, r6, r2
 800c91a:	eb75 0e03 	sbcs.w	lr, r5, r3
 800c91e:	bf22      	ittt	cs
 800c920:	1ab6      	subcs	r6, r6, r2
 800c922:	4675      	movcs	r5, lr
 800c924:	ea40 005c 	orrcs.w	r0, r0, ip, lsr #1
 800c928:	085b      	lsrs	r3, r3, #1
 800c92a:	ea4f 0232 	mov.w	r2, r2, rrx
 800c92e:	ebb6 0e02 	subs.w	lr, r6, r2
 800c932:	eb75 0e03 	sbcs.w	lr, r5, r3
 800c936:	bf22      	ittt	cs
 800c938:	1ab6      	subcs	r6, r6, r2
 800c93a:	4675      	movcs	r5, lr
 800c93c:	ea40 009c 	orrcs.w	r0, r0, ip, lsr #2
 800c940:	085b      	lsrs	r3, r3, #1
 800c942:	ea4f 0232 	mov.w	r2, r2, rrx
 800c946:	ebb6 0e02 	subs.w	lr, r6, r2
 800c94a:	eb75 0e03 	sbcs.w	lr, r5, r3
 800c94e:	bf22      	ittt	cs
 800c950:	1ab6      	subcs	r6, r6, r2
 800c952:	4675      	movcs	r5, lr
 800c954:	ea40 00dc 	orrcs.w	r0, r0, ip, lsr #3
 800c958:	ea55 0e06 	orrs.w	lr, r5, r6
 800c95c:	d018      	beq.n	800c990 <__aeabi_ddiv+0x114>
 800c95e:	ea4f 1505 	mov.w	r5, r5, lsl #4
 800c962:	ea45 7516 	orr.w	r5, r5, r6, lsr #28
 800c966:	ea4f 1606 	mov.w	r6, r6, lsl #4
 800c96a:	ea4f 03c3 	mov.w	r3, r3, lsl #3
 800c96e:	ea43 7352 	orr.w	r3, r3, r2, lsr #29
 800c972:	ea4f 02c2 	mov.w	r2, r2, lsl #3
 800c976:	ea5f 1c1c 	movs.w	ip, ip, lsr #4
 800c97a:	d1c0      	bne.n	800c8fe <__aeabi_ddiv+0x82>
 800c97c:	f411 1f80 	tst.w	r1, #1048576	; 0x100000
 800c980:	d10b      	bne.n	800c99a <__aeabi_ddiv+0x11e>
 800c982:	ea41 0100 	orr.w	r1, r1, r0
 800c986:	f04f 0000 	mov.w	r0, #0
 800c98a:	f04f 4c00 	mov.w	ip, #2147483648	; 0x80000000
 800c98e:	e7b6      	b.n	800c8fe <__aeabi_ddiv+0x82>
 800c990:	f411 1f80 	tst.w	r1, #1048576	; 0x100000
 800c994:	bf04      	itt	eq
 800c996:	4301      	orreq	r1, r0
 800c998:	2000      	moveq	r0, #0
 800c99a:	f1b4 0cfd 	subs.w	ip, r4, #253	; 0xfd
 800c99e:	bf88      	it	hi
 800c9a0:	f5bc 6fe0 	cmphi.w	ip, #1792	; 0x700
 800c9a4:	f63f aeaf 	bhi.w	800c706 <__aeabi_dmul+0xde>
 800c9a8:	ebb5 0c03 	subs.w	ip, r5, r3
 800c9ac:	bf04      	itt	eq
 800c9ae:	ebb6 0c02 	subseq.w	ip, r6, r2
 800c9b2:	ea5f 0c50 	movseq.w	ip, r0, lsr #1
 800c9b6:	f150 0000 	adcs.w	r0, r0, #0
 800c9ba:	eb41 5104 	adc.w	r1, r1, r4, lsl #20
 800c9be:	bd70      	pop	{r4, r5, r6, pc}
 800c9c0:	f00e 4e00 	and.w	lr, lr, #2147483648	; 0x80000000
 800c9c4:	ea4e 3111 	orr.w	r1, lr, r1, lsr #12
 800c9c8:	eb14 045c 	adds.w	r4, r4, ip, lsr #1
 800c9cc:	bfc2      	ittt	gt
 800c9ce:	ebd4 050c 	rsbsgt	r5, r4, ip
 800c9d2:	ea41 5104 	orrgt.w	r1, r1, r4, lsl #20
 800c9d6:	bd70      	popgt	{r4, r5, r6, pc}
 800c9d8:	f441 1180 	orr.w	r1, r1, #1048576	; 0x100000
 800c9dc:	f04f 0e00 	mov.w	lr, #0
 800c9e0:	3c01      	subs	r4, #1
 800c9e2:	e690      	b.n	800c706 <__aeabi_dmul+0xde>
 800c9e4:	ea45 0e06 	orr.w	lr, r5, r6
 800c9e8:	e68d      	b.n	800c706 <__aeabi_dmul+0xde>
 800c9ea:	ea0c 5513 	and.w	r5, ip, r3, lsr #20
 800c9ee:	ea94 0f0c 	teq	r4, ip
 800c9f2:	bf08      	it	eq
 800c9f4:	ea95 0f0c 	teqeq	r5, ip
 800c9f8:	f43f af3b 	beq.w	800c872 <__aeabi_dmul+0x24a>
 800c9fc:	ea94 0f0c 	teq	r4, ip
 800ca00:	d10a      	bne.n	800ca18 <__aeabi_ddiv+0x19c>
 800ca02:	ea50 3401 	orrs.w	r4, r0, r1, lsl #12
 800ca06:	f47f af34 	bne.w	800c872 <__aeabi_dmul+0x24a>
 800ca0a:	ea95 0f0c 	teq	r5, ip
 800ca0e:	f47f af25 	bne.w	800c85c <__aeabi_dmul+0x234>
 800ca12:	4610      	mov	r0, r2
 800ca14:	4619      	mov	r1, r3
 800ca16:	e72c      	b.n	800c872 <__aeabi_dmul+0x24a>
 800ca18:	ea95 0f0c 	teq	r5, ip
 800ca1c:	d106      	bne.n	800ca2c <__aeabi_ddiv+0x1b0>
 800ca1e:	ea52 3503 	orrs.w	r5, r2, r3, lsl #12
 800ca22:	f43f aefd 	beq.w	800c820 <__aeabi_dmul+0x1f8>
 800ca26:	4610      	mov	r0, r2
 800ca28:	4619      	mov	r1, r3
 800ca2a:	e722      	b.n	800c872 <__aeabi_dmul+0x24a>
 800ca2c:	ea50 0641 	orrs.w	r6, r0, r1, lsl #1
 800ca30:	bf18      	it	ne
 800ca32:	ea52 0643 	orrsne.w	r6, r2, r3, lsl #1
 800ca36:	f47f aec5 	bne.w	800c7c4 <__aeabi_dmul+0x19c>
 800ca3a:	ea50 0441 	orrs.w	r4, r0, r1, lsl #1
 800ca3e:	f47f af0d 	bne.w	800c85c <__aeabi_dmul+0x234>
 800ca42:	ea52 0543 	orrs.w	r5, r2, r3, lsl #1
 800ca46:	f47f aeeb 	bne.w	800c820 <__aeabi_dmul+0x1f8>
 800ca4a:	e712      	b.n	800c872 <__aeabi_dmul+0x24a>

0800ca4c <__gedf2>:
 800ca4c:	f04f 3cff 	mov.w	ip, #4294967295
 800ca50:	e006      	b.n	800ca60 <__cmpdf2+0x4>
 800ca52:	bf00      	nop

0800ca54 <__ledf2>:
 800ca54:	f04f 0c01 	mov.w	ip, #1
 800ca58:	e002      	b.n	800ca60 <__cmpdf2+0x4>
 800ca5a:	bf00      	nop

0800ca5c <__cmpdf2>:
 800ca5c:	f04f 0c01 	mov.w	ip, #1
 800ca60:	f84d cd04 	str.w	ip, [sp, #-4]!
 800ca64:	ea4f 0c41 	mov.w	ip, r1, lsl #1
 800ca68:	ea7f 5c6c 	mvns.w	ip, ip, asr #21
 800ca6c:	ea4f 0c43 	mov.w	ip, r3, lsl #1
 800ca70:	bf18      	it	ne
 800ca72:	ea7f 5c6c 	mvnsne.w	ip, ip, asr #21
 800ca76:	d01b      	beq.n	800cab0 <__cmpdf2+0x54>
 800ca78:	b001      	add	sp, #4
 800ca7a:	ea50 0c41 	orrs.w	ip, r0, r1, lsl #1
 800ca7e:	bf0c      	ite	eq
 800ca80:	ea52 0c43 	orrseq.w	ip, r2, r3, lsl #1
 800ca84:	ea91 0f03 	teqne	r1, r3
 800ca88:	bf02      	ittt	eq
 800ca8a:	ea90 0f02 	teqeq	r0, r2
 800ca8e:	2000      	moveq	r0, #0
 800ca90:	4770      	bxeq	lr
 800ca92:	f110 0f00 	cmn.w	r0, #0
 800ca96:	ea91 0f03 	teq	r1, r3
 800ca9a:	bf58      	it	pl
 800ca9c:	4299      	cmppl	r1, r3
 800ca9e:	bf08      	it	eq
 800caa0:	4290      	cmpeq	r0, r2
 800caa2:	bf2c      	ite	cs
 800caa4:	17d8      	asrcs	r0, r3, #31
 800caa6:	ea6f 70e3 	mvncc.w	r0, r3, asr #31
 800caaa:	f040 0001 	orr.w	r0, r0, #1
 800caae:	4770      	bx	lr
 800cab0:	ea4f 0c41 	mov.w	ip, r1, lsl #1
 800cab4:	ea7f 5c6c 	mvns.w	ip, ip, asr #21
 800cab8:	d102      	bne.n	800cac0 <__cmpdf2+0x64>
 800caba:	ea50 3c01 	orrs.w	ip, r0, r1, lsl #12
 800cabe:	d107      	bne.n	800cad0 <__cmpdf2+0x74>
 800cac0:	ea4f 0c43 	mov.w	ip, r3, lsl #1
 800cac4:	ea7f 5c6c 	mvns.w	ip, ip, asr #21
 800cac8:	d1d6      	bne.n	800ca78 <__cmpdf2+0x1c>
 800caca:	ea52 3c03 	orrs.w	ip, r2, r3, lsl #12
 800cace:	d0d3      	beq.n	800ca78 <__cmpdf2+0x1c>
 800cad0:	f85d 0b04 	ldr.w	r0, [sp], #4
 800cad4:	4770      	bx	lr
 800cad6:	bf00      	nop

0800cad8 <__aeabi_cdrcmple>:
 800cad8:	4684      	mov	ip, r0
 800cada:	4610      	mov	r0, r2
 800cadc:	4662      	mov	r2, ip
 800cade:	468c      	mov	ip, r1
 800cae0:	4619      	mov	r1, r3
 800cae2:	4663      	mov	r3, ip
 800cae4:	e000      	b.n	800cae8 <__aeabi_cdcmpeq>
 800cae6:	bf00      	nop

0800cae8 <__aeabi_cdcmpeq>:
 800cae8:	b501      	push	{r0, lr}
 800caea:	f7ff ffb7 	bl	800ca5c <__cmpdf2>
 800caee:	2800      	cmp	r0, #0
 800caf0:	bf48      	it	mi
 800caf2:	f110 0f00 	cmnmi.w	r0, #0
 800caf6:	bd01      	pop	{r0, pc}

0800caf8 <__aeabi_dcmpeq>:
 800caf8:	f84d ed08 	str.w	lr, [sp, #-8]!
 800cafc:	f7ff fff4 	bl	800cae8 <__aeabi_cdcmpeq>
 800cb00:	bf0c      	ite	eq
 800cb02:	2001      	moveq	r0, #1
 800cb04:	2000      	movne	r0, #0
 800cb06:	f85d fb08 	ldr.w	pc, [sp], #8
 800cb0a:	bf00      	nop

0800cb0c <__aeabi_dcmplt>:
 800cb0c:	f84d ed08 	str.w	lr, [sp, #-8]!
 800cb10:	f7ff ffea 	bl	800cae8 <__aeabi_cdcmpeq>
 800cb14:	bf34      	ite	cc
 800cb16:	2001      	movcc	r0, #1
 800cb18:	2000      	movcs	r0, #0
 800cb1a:	f85d fb08 	ldr.w	pc, [sp], #8
 800cb1e:	bf00      	nop

0800cb20 <__aeabi_dcmple>:
 800cb20:	f84d ed08 	str.w	lr, [sp, #-8]!
 800cb24:	f7ff ffe0 	bl	800cae8 <__aeabi_cdcmpeq>
 800cb28:	bf94      	ite	ls
 800cb2a:	2001      	movls	r0, #1
 800cb2c:	2000      	movhi	r0, #0
 800cb2e:	f85d fb08 	ldr.w	pc, [sp], #8
 800cb32:	bf00      	nop

0800cb34 <__aeabi_dcmpge>:
 800cb34:	f84d ed08 	str.w	lr, [sp, #-8]!
 800cb38:	f7ff ffce 	bl	800cad8 <__aeabi_cdrcmple>
 800cb3c:	bf94      	ite	ls
 800cb3e:	2001      	movls	r0, #1
 800cb40:	2000      	movhi	r0, #0
 800cb42:	f85d fb08 	ldr.w	pc, [sp], #8
 800cb46:	bf00      	nop

0800cb48 <__aeabi_dcmpgt>:
 800cb48:	f84d ed08 	str.w	lr, [sp, #-8]!
 800cb4c:	f7ff ffc4 	bl	800cad8 <__aeabi_cdrcmple>
 800cb50:	bf34      	ite	cc
 800cb52:	2001      	movcc	r0, #1
 800cb54:	2000      	movcs	r0, #0
 800cb56:	f85d fb08 	ldr.w	pc, [sp], #8
 800cb5a:	bf00      	nop

0800cb5c <__aeabi_dcmpun>:
 800cb5c:	ea4f 0c41 	mov.w	ip, r1, lsl #1
 800cb60:	ea7f 5c6c 	mvns.w	ip, ip, asr #21
 800cb64:	d102      	bne.n	800cb6c <__aeabi_dcmpun+0x10>
 800cb66:	ea50 3c01 	orrs.w	ip, r0, r1, lsl #12
 800cb6a:	d10a      	bne.n	800cb82 <__aeabi_dcmpun+0x26>
 800cb6c:	ea4f 0c43 	mov.w	ip, r3, lsl #1
 800cb70:	ea7f 5c6c 	mvns.w	ip, ip, asr #21
 800cb74:	d102      	bne.n	800cb7c <__aeabi_dcmpun+0x20>
 800cb76:	ea52 3c03 	orrs.w	ip, r2, r3, lsl #12
 800cb7a:	d102      	bne.n	800cb82 <__aeabi_dcmpun+0x26>
 800cb7c:	f04f 0000 	mov.w	r0, #0
 800cb80:	4770      	bx	lr
 800cb82:	f04f 0001 	mov.w	r0, #1
 800cb86:	4770      	bx	lr

0800cb88 <__aeabi_d2iz>:
 800cb88:	ea4f 0241 	mov.w	r2, r1, lsl #1
 800cb8c:	f512 1200 	adds.w	r2, r2, #2097152	; 0x200000
 800cb90:	d215      	bcs.n	800cbbe <__aeabi_d2iz+0x36>
 800cb92:	d511      	bpl.n	800cbb8 <__aeabi_d2iz+0x30>
 800cb94:	f46f 7378 	mvn.w	r3, #992	; 0x3e0
 800cb98:	ebb3 5262 	subs.w	r2, r3, r2, asr #21
 800cb9c:	d912      	bls.n	800cbc4 <__aeabi_d2iz+0x3c>
 800cb9e:	ea4f 23c1 	mov.w	r3, r1, lsl #11
 800cba2:	f043 4300 	orr.w	r3, r3, #2147483648	; 0x80000000
 800cba6:	ea43 5350 	orr.w	r3, r3, r0, lsr #21
 800cbaa:	f011 4f00 	tst.w	r1, #2147483648	; 0x80000000
 800cbae:	fa23 f002 	lsr.w	r0, r3, r2
 800cbb2:	bf18      	it	ne
 800cbb4:	4240      	negne	r0, r0
 800cbb6:	4770      	bx	lr
 800cbb8:	f04f 0000 	mov.w	r0, #0
 800cbbc:	4770      	bx	lr
 800cbbe:	ea50 3001 	orrs.w	r0, r0, r1, lsl #12
 800cbc2:	d105      	bne.n	800cbd0 <__aeabi_d2iz+0x48>
 800cbc4:	f011 4000 	ands.w	r0, r1, #2147483648	; 0x80000000
 800cbc8:	bf08      	it	eq
 800cbca:	f06f 4000 	mvneq.w	r0, #2147483648	; 0x80000000
 800cbce:	4770      	bx	lr
 800cbd0:	f04f 0000 	mov.w	r0, #0
 800cbd4:	4770      	bx	lr
 800cbd6:	bf00      	nop

0800cbd8 <__aeabi_d2f>:
 800cbd8:	ea4f 0241 	mov.w	r2, r1, lsl #1
 800cbdc:	f1b2 43e0 	subs.w	r3, r2, #1879048192	; 0x70000000
 800cbe0:	bf24      	itt	cs
 800cbe2:	f5b3 1c00 	subscs.w	ip, r3, #2097152	; 0x200000
 800cbe6:	f1dc 5cfe 	rsbscs	ip, ip, #532676608	; 0x1fc00000
 800cbea:	d90d      	bls.n	800cc08 <__aeabi_d2f+0x30>
 800cbec:	f001 4c00 	and.w	ip, r1, #2147483648	; 0x80000000
 800cbf0:	ea4f 02c0 	mov.w	r2, r0, lsl #3
 800cbf4:	ea4c 7050 	orr.w	r0, ip, r0, lsr #29
 800cbf8:	f1b2 4f00 	cmp.w	r2, #2147483648	; 0x80000000
 800cbfc:	eb40 0083 	adc.w	r0, r0, r3, lsl #2
 800cc00:	bf08      	it	eq
 800cc02:	f020 0001 	biceq.w	r0, r0, #1
 800cc06:	4770      	bx	lr
 800cc08:	f011 4f80 	tst.w	r1, #1073741824	; 0x40000000
 800cc0c:	d121      	bne.n	800cc52 <__aeabi_d2f+0x7a>
 800cc0e:	f113 7238 	adds.w	r2, r3, #48234496	; 0x2e00000
 800cc12:	bfbc      	itt	lt
 800cc14:	f001 4000 	andlt.w	r0, r1, #2147483648	; 0x80000000
 800cc18:	4770      	bxlt	lr
 800cc1a:	f441 1180 	orr.w	r1, r1, #1048576	; 0x100000
 800cc1e:	ea4f 5252 	mov.w	r2, r2, lsr #21
 800cc22:	f1c2 0218 	rsb	r2, r2, #24
 800cc26:	f1c2 0c20 	rsb	ip, r2, #32
 800cc2a:	fa10 f30c 	lsls.w	r3, r0, ip
 800cc2e:	fa20 f002 	lsr.w	r0, r0, r2
 800cc32:	bf18      	it	ne
 800cc34:	f040 0001 	orrne.w	r0, r0, #1
 800cc38:	ea4f 23c1 	mov.w	r3, r1, lsl #11
 800cc3c:	ea4f 23d3 	mov.w	r3, r3, lsr #11
 800cc40:	fa03 fc0c 	lsl.w	ip, r3, ip
 800cc44:	ea40 000c 	orr.w	r0, r0, ip
 800cc48:	fa23 f302 	lsr.w	r3, r3, r2
 800cc4c:	ea4f 0343 	mov.w	r3, r3, lsl #1
 800cc50:	e7cc      	b.n	800cbec <__aeabi_d2f+0x14>
 800cc52:	ea7f 5362 	mvns.w	r3, r2, asr #21
 800cc56:	d107      	bne.n	800cc68 <__aeabi_d2f+0x90>
 800cc58:	ea50 3301 	orrs.w	r3, r0, r1, lsl #12
 800cc5c:	bf1e      	ittt	ne
 800cc5e:	f04f 40fe 	movne.w	r0, #2130706432	; 0x7f000000
 800cc62:	f440 0040 	orrne.w	r0, r0, #12582912	; 0xc00000
 800cc66:	4770      	bxne	lr
 800cc68:	f001 4000 	and.w	r0, r1, #2147483648	; 0x80000000
 800cc6c:	f040 40fe 	orr.w	r0, r0, #2130706432	; 0x7f000000
 800cc70:	f440 0000 	orr.w	r0, r0, #8388608	; 0x800000
 800cc74:	4770      	bx	lr
 800cc76:	bf00      	nop

0800cc78 <__aeabi_uldivmod>:
 800cc78:	b953      	cbnz	r3, 800cc90 <__aeabi_uldivmod+0x18>
 800cc7a:	b94a      	cbnz	r2, 800cc90 <__aeabi_uldivmod+0x18>
 800cc7c:	2900      	cmp	r1, #0
 800cc7e:	bf08      	it	eq
 800cc80:	2800      	cmpeq	r0, #0
 800cc82:	bf1c      	itt	ne
 800cc84:	f04f 31ff 	movne.w	r1, #4294967295
 800cc88:	f04f 30ff 	movne.w	r0, #4294967295
 800cc8c:	f000 bad4 	b.w	800d238 <__aeabi_idiv0>
 800cc90:	f1ad 0c08 	sub.w	ip, sp, #8
 800cc94:	e96d ce04 	strd	ip, lr, [sp, #-16]!
 800cc98:	f000 f966 	bl	800cf68 <__udivmoddi4>
 800cc9c:	f8dd e004 	ldr.w	lr, [sp, #4]
 800cca0:	e9dd 2302 	ldrd	r2, r3, [sp, #8]
 800cca4:	b004      	add	sp, #16
 800cca6:	4770      	bx	lr

0800cca8 <__mulsc3>:
 800cca8:	ee60 6a01 	vmul.f32	s13, s0, s2
 800ccac:	ee20 6aa1 	vmul.f32	s12, s1, s3
 800ccb0:	ee20 5a21 	vmul.f32	s10, s0, s3
 800ccb4:	ee76 7ac6 	vsub.f32	s15, s13, s12
 800ccb8:	ee61 5a20 	vmul.f32	s11, s2, s1
 800ccbc:	eef4 7a67 	vcmp.f32	s15, s15
 800ccc0:	eef1 fa10 	vmrs	APSR_nzcv, fpscr
 800ccc4:	ee35 7a25 	vadd.f32	s14, s10, s11
 800ccc8:	d604      	bvs.n	800ccd4 <__mulsc3+0x2c>
 800ccca:	eeb0 0a67 	vmov.f32	s0, s15
 800ccce:	eef0 0a47 	vmov.f32	s1, s14
 800ccd2:	4770      	bx	lr
 800ccd4:	eeb4 7a47 	vcmp.f32	s14, s14
 800ccd8:	eef1 fa10 	vmrs	APSR_nzcv, fpscr
 800ccdc:	d7f5      	bvc.n	800ccca <__mulsc3+0x22>
 800ccde:	eddf 4a9e 	vldr	s9, [pc, #632]	; 800cf58 <__mulsc3+0x2b0>
 800cce2:	eeb0 4ac0 	vabs.f32	s8, s0
 800cce6:	eeb4 4a64 	vcmp.f32	s8, s9
 800ccea:	eef1 fa10 	vmrs	APSR_nzcv, fpscr
 800ccee:	bfcc      	ite	gt
 800ccf0:	2301      	movgt	r3, #1
 800ccf2:	2300      	movle	r3, #0
 800ccf4:	eeb0 4ae0 	vabs.f32	s8, s1
 800ccf8:	f300 80a0 	bgt.w	800ce3c <__mulsc3+0x194>
 800ccfc:	eeb4 4a64 	vcmp.f32	s8, s9
 800cd00:	eef1 fa10 	vmrs	APSR_nzcv, fpscr
 800cd04:	f300 809a 	bgt.w	800ce3c <__mulsc3+0x194>
 800cd08:	2300      	movs	r3, #0
 800cd0a:	eddf 4a93 	vldr	s9, [pc, #588]	; 800cf58 <__mulsc3+0x2b0>
 800cd0e:	eeb0 4ac1 	vabs.f32	s8, s2
 800cd12:	eeb4 4a64 	vcmp.f32	s8, s9
 800cd16:	eef1 fa10 	vmrs	APSR_nzcv, fpscr
 800cd1a:	eef0 3ae1 	vabs.f32	s7, s3
 800cd1e:	dc48      	bgt.n	800cdb2 <__mulsc3+0x10a>
 800cd20:	eef4 3a64 	vcmp.f32	s7, s9
 800cd24:	eef1 fa10 	vmrs	APSR_nzcv, fpscr
 800cd28:	dc43      	bgt.n	800cdb2 <__mulsc3+0x10a>
 800cd2a:	bb9b      	cbnz	r3, 800cd94 <__mulsc3+0xec>
 800cd2c:	eef0 6ae6 	vabs.f32	s13, s13
 800cd30:	eef4 6a64 	vcmp.f32	s13, s9
 800cd34:	eef1 fa10 	vmrs	APSR_nzcv, fpscr
 800cd38:	dc14      	bgt.n	800cd64 <__mulsc3+0xbc>
 800cd3a:	eeb0 6ac6 	vabs.f32	s12, s12
 800cd3e:	eeb4 6a64 	vcmp.f32	s12, s9
 800cd42:	eef1 fa10 	vmrs	APSR_nzcv, fpscr
 800cd46:	dc0d      	bgt.n	800cd64 <__mulsc3+0xbc>
 800cd48:	eeb0 5ac5 	vabs.f32	s10, s10
 800cd4c:	eeb4 5a64 	vcmp.f32	s10, s9
 800cd50:	eef1 fa10 	vmrs	APSR_nzcv, fpscr
 800cd54:	dc06      	bgt.n	800cd64 <__mulsc3+0xbc>
 800cd56:	eef0 5ae5 	vabs.f32	s11, s11
 800cd5a:	eef4 5a64 	vcmp.f32	s11, s9
 800cd5e:	eef1 fa10 	vmrs	APSR_nzcv, fpscr
 800cd62:	ddb2      	ble.n	800ccca <__mulsc3+0x22>
 800cd64:	eeb4 0a40 	vcmp.f32	s0, s0
 800cd68:	eef1 fa10 	vmrs	APSR_nzcv, fpscr
 800cd6c:	f180 80e7 	bvs.w	800cf3e <__mulsc3+0x296>
 800cd70:	eef4 0a60 	vcmp.f32	s1, s1
 800cd74:	eef1 fa10 	vmrs	APSR_nzcv, fpscr
 800cd78:	f180 80d4 	bvs.w	800cf24 <__mulsc3+0x27c>
 800cd7c:	eeb4 1a41 	vcmp.f32	s2, s2
 800cd80:	eef1 fa10 	vmrs	APSR_nzcv, fpscr
 800cd84:	f180 80c1 	bvs.w	800cf0a <__mulsc3+0x262>
 800cd88:	eef4 1a61 	vcmp.f32	s3, s3
 800cd8c:	eef1 fa10 	vmrs	APSR_nzcv, fpscr
 800cd90:	f180 80ae 	bvs.w	800cef0 <__mulsc3+0x248>
 800cd94:	ee61 7ae0 	vnmul.f32	s15, s3, s1
 800cd98:	ee60 0a81 	vmul.f32	s1, s1, s2
 800cd9c:	eee0 7a01 	vfma.f32	s15, s0, s2
 800cda0:	eee0 0a21 	vfma.f32	s1, s0, s3
 800cda4:	ed9f 7a6d 	vldr	s14, [pc, #436]	; 800cf5c <__mulsc3+0x2b4>
 800cda8:	ee67 7a87 	vmul.f32	s15, s15, s14
 800cdac:	ee20 7a87 	vmul.f32	s14, s1, s14
 800cdb0:	e78b      	b.n	800ccca <__mulsc3+0x22>
 800cdb2:	eddf 7a69 	vldr	s15, [pc, #420]	; 800cf58 <__mulsc3+0x2b0>
 800cdb6:	ed9f 7a68 	vldr	s14, [pc, #416]	; 800cf58 <__mulsc3+0x2b0>
 800cdba:	eeb4 4a67 	vcmp.f32	s8, s15
 800cdbe:	eef1 fa10 	vmrs	APSR_nzcv, fpscr
 800cdc2:	bfcc      	ite	gt
 800cdc4:	2301      	movgt	r3, #1
 800cdc6:	2300      	movle	r3, #0
 800cdc8:	ee07 3a90 	vmov	s15, r3
 800cdcc:	ee11 3a10 	vmov	r3, s2
 800cdd0:	eef8 7ae7 	vcvt.f32.s32	s15, s15
 800cdd4:	2b00      	cmp	r3, #0
 800cdd6:	eef0 7ae7 	vabs.f32	s15, s15
 800cdda:	eef4 3a47 	vcmp.f32	s7, s14
 800cdde:	bfb8      	it	lt
 800cde0:	eef1 7a67 	vneglt.f32	s15, s15
 800cde4:	eef1 fa10 	vmrs	APSR_nzcv, fpscr
 800cde8:	bfcc      	ite	gt
 800cdea:	2301      	movgt	r3, #1
 800cdec:	2300      	movle	r3, #0
 800cdee:	eeb0 1a67 	vmov.f32	s2, s15
 800cdf2:	ee07 3a90 	vmov	s15, r3
 800cdf6:	ee11 3a90 	vmov	r3, s3
 800cdfa:	eef8 7ae7 	vcvt.f32.s32	s15, s15
 800cdfe:	2b00      	cmp	r3, #0
 800ce00:	eef0 7ae7 	vabs.f32	s15, s15
 800ce04:	eeb4 0a40 	vcmp.f32	s0, s0
 800ce08:	bfb8      	it	lt
 800ce0a:	eef1 7a67 	vneglt.f32	s15, s15
 800ce0e:	eef1 fa10 	vmrs	APSR_nzcv, fpscr
 800ce12:	eef0 1a67 	vmov.f32	s3, s15
 800ce16:	d651      	bvs.n	800cebc <__mulsc3+0x214>
 800ce18:	eef4 0a60 	vcmp.f32	s1, s1
 800ce1c:	eef1 fa10 	vmrs	APSR_nzcv, fpscr
 800ce20:	d7b8      	bvc.n	800cd94 <__mulsc3+0xec>
 800ce22:	ee10 3a90 	vmov	r3, s1
 800ce26:	ed9f 7a4e 	vldr	s14, [pc, #312]	; 800cf60 <__mulsc3+0x2b8>
 800ce2a:	eddf 7a4e 	vldr	s15, [pc, #312]	; 800cf64 <__mulsc3+0x2bc>
 800ce2e:	2b00      	cmp	r3, #0
 800ce30:	bfb4      	ite	lt
 800ce32:	eef0 0a67 	vmovlt.f32	s1, s15
 800ce36:	eef0 0a47 	vmovge.f32	s1, s14
 800ce3a:	e7ab      	b.n	800cd94 <__mulsc3+0xec>
 800ce3c:	ee04 3a90 	vmov	s9, r3
 800ce40:	eddf 3a45 	vldr	s7, [pc, #276]	; 800cf58 <__mulsc3+0x2b0>
 800ce44:	ee10 3a10 	vmov	r3, s0
 800ce48:	eef8 4ae4 	vcvt.f32.s32	s9, s9
 800ce4c:	2b00      	cmp	r3, #0
 800ce4e:	eef0 4ae4 	vabs.f32	s9, s9
 800ce52:	eeb4 4a63 	vcmp.f32	s8, s7
 800ce56:	bfb8      	it	lt
 800ce58:	eef1 4a64 	vneglt.f32	s9, s9
 800ce5c:	eef1 fa10 	vmrs	APSR_nzcv, fpscr
 800ce60:	bfcc      	ite	gt
 800ce62:	2301      	movgt	r3, #1
 800ce64:	2300      	movle	r3, #0
 800ce66:	eeb0 0a64 	vmov.f32	s0, s9
 800ce6a:	ee04 3a90 	vmov	s9, r3
 800ce6e:	ee10 3a90 	vmov	r3, s1
 800ce72:	eef8 4ae4 	vcvt.f32.s32	s9, s9
 800ce76:	2b00      	cmp	r3, #0
 800ce78:	eef0 4ae4 	vabs.f32	s9, s9
 800ce7c:	eeb4 1a41 	vcmp.f32	s2, s2
 800ce80:	bfb8      	it	lt
 800ce82:	eef1 4a64 	vneglt.f32	s9, s9
 800ce86:	eef1 fa10 	vmrs	APSR_nzcv, fpscr
 800ce8a:	eef0 0a64 	vmov.f32	s1, s9
 800ce8e:	d622      	bvs.n	800ced6 <__mulsc3+0x22e>
 800ce90:	eef4 1a61 	vcmp.f32	s3, s3
 800ce94:	eef1 fa10 	vmrs	APSR_nzcv, fpscr
 800ce98:	bf78      	it	vc
 800ce9a:	2301      	movvc	r3, #1
 800ce9c:	f5ff af35 	bvc.w	800cd0a <__mulsc3+0x62>
 800cea0:	ee11 3a90 	vmov	r3, s3
 800cea4:	ed9f 4a2e 	vldr	s8, [pc, #184]	; 800cf60 <__mulsc3+0x2b8>
 800cea8:	eddf 4a2e 	vldr	s9, [pc, #184]	; 800cf64 <__mulsc3+0x2bc>
 800ceac:	2b00      	cmp	r3, #0
 800ceae:	bfb4      	ite	lt
 800ceb0:	eef0 1a64 	vmovlt.f32	s3, s9
 800ceb4:	eef0 1a44 	vmovge.f32	s3, s8
 800ceb8:	2301      	movs	r3, #1
 800ceba:	e726      	b.n	800cd0a <__mulsc3+0x62>
 800cebc:	ee10 3a10 	vmov	r3, s0
 800cec0:	ed9f 7a27 	vldr	s14, [pc, #156]	; 800cf60 <__mulsc3+0x2b8>
 800cec4:	eddf 7a27 	vldr	s15, [pc, #156]	; 800cf64 <__mulsc3+0x2bc>
 800cec8:	2b00      	cmp	r3, #0
 800ceca:	bfb4      	ite	lt
 800cecc:	eeb0 0a67 	vmovlt.f32	s0, s15
 800ced0:	eeb0 0a47 	vmovge.f32	s0, s14
 800ced4:	e7a0      	b.n	800ce18 <__mulsc3+0x170>
 800ced6:	ee11 3a10 	vmov	r3, s2
 800ceda:	ed9f 4a21 	vldr	s8, [pc, #132]	; 800cf60 <__mulsc3+0x2b8>
 800cede:	eddf 4a21 	vldr	s9, [pc, #132]	; 800cf64 <__mulsc3+0x2bc>
 800cee2:	2b00      	cmp	r3, #0
 800cee4:	bfb4      	ite	lt
 800cee6:	eeb0 1a64 	vmovlt.f32	s2, s9
 800ceea:	eeb0 1a44 	vmovge.f32	s2, s8
 800ceee:	e7cf      	b.n	800ce90 <__mulsc3+0x1e8>
 800cef0:	ee11 3a90 	vmov	r3, s3
 800cef4:	ed9f 7a1a 	vldr	s14, [pc, #104]	; 800cf60 <__mulsc3+0x2b8>
 800cef8:	eddf 7a1a 	vldr	s15, [pc, #104]	; 800cf64 <__mulsc3+0x2bc>
 800cefc:	2b00      	cmp	r3, #0
 800cefe:	bfb4      	ite	lt
 800cf00:	eef0 1a67 	vmovlt.f32	s3, s15
 800cf04:	eef0 1a47 	vmovge.f32	s3, s14
 800cf08:	e744      	b.n	800cd94 <__mulsc3+0xec>
 800cf0a:	ee11 3a10 	vmov	r3, s2
 800cf0e:	ed9f 7a14 	vldr	s14, [pc, #80]	; 800cf60 <__mulsc3+0x2b8>
 800cf12:	eddf 7a14 	vldr	s15, [pc, #80]	; 800cf64 <__mulsc3+0x2bc>
 800cf16:	2b00      	cmp	r3, #0
 800cf18:	bfb4      	ite	lt
 800cf1a:	eeb0 1a67 	vmovlt.f32	s2, s15
 800cf1e:	eeb0 1a47 	vmovge.f32	s2, s14
 800cf22:	e731      	b.n	800cd88 <__mulsc3+0xe0>
 800cf24:	ee10 3a90 	vmov	r3, s1
 800cf28:	ed9f 7a0d 	vldr	s14, [pc, #52]	; 800cf60 <__mulsc3+0x2b8>
 800cf2c:	eddf 7a0d 	vldr	s15, [pc, #52]	; 800cf64 <__mulsc3+0x2bc>
 800cf30:	2b00      	cmp	r3, #0
 800cf32:	bfb4      	ite	lt
 800cf34:	eef0 0a67 	vmovlt.f32	s1, s15
 800cf38:	eef0 0a47 	vmovge.f32	s1, s14
 800cf3c:	e71e      	b.n	800cd7c <__mulsc3+0xd4>
 800cf3e:	ee10 3a10 	vmov	r3, s0
 800cf42:	ed9f 7a07 	vldr	s14, [pc, #28]	; 800cf60 <__mulsc3+0x2b8>
 800cf46:	eddf 7a07 	vldr	s15, [pc, #28]	; 800cf64 <__mulsc3+0x2bc>
 800cf4a:	2b00      	cmp	r3, #0
 800cf4c:	bfb4      	ite	lt
 800cf4e:	eeb0 0a67 	vmovlt.f32	s0, s15
 800cf52:	eeb0 0a47 	vmovge.f32	s0, s14
 800cf56:	e70b      	b.n	800cd70 <__mulsc3+0xc8>
 800cf58:	7f7fffff 	.word	0x7f7fffff
 800cf5c:	7f800000 	.word	0x7f800000
 800cf60:	00000000 	.word	0x00000000
 800cf64:	80000000 	.word	0x80000000

0800cf68 <__udivmoddi4>:
 800cf68:	e92d 47f0 	stmdb	sp!, {r4, r5, r6, r7, r8, r9, sl, lr}
 800cf6c:	9d08      	ldr	r5, [sp, #32]
 800cf6e:	4604      	mov	r4, r0
 800cf70:	468e      	mov	lr, r1
 800cf72:	2b00      	cmp	r3, #0
 800cf74:	d14d      	bne.n	800d012 <__udivmoddi4+0xaa>
 800cf76:	428a      	cmp	r2, r1
 800cf78:	4694      	mov	ip, r2
 800cf7a:	d969      	bls.n	800d050 <__udivmoddi4+0xe8>
 800cf7c:	fab2 f282 	clz	r2, r2
 800cf80:	b152      	cbz	r2, 800cf98 <__udivmoddi4+0x30>
 800cf82:	fa01 f302 	lsl.w	r3, r1, r2
 800cf86:	f1c2 0120 	rsb	r1, r2, #32
 800cf8a:	fa20 f101 	lsr.w	r1, r0, r1
 800cf8e:	fa0c fc02 	lsl.w	ip, ip, r2
 800cf92:	ea41 0e03 	orr.w	lr, r1, r3
 800cf96:	4094      	lsls	r4, r2
 800cf98:	ea4f 481c 	mov.w	r8, ip, lsr #16
 800cf9c:	0c21      	lsrs	r1, r4, #16
 800cf9e:	fbbe f6f8 	udiv	r6, lr, r8
 800cfa2:	fa1f f78c 	uxth.w	r7, ip
 800cfa6:	fb08 e316 	mls	r3, r8, r6, lr
 800cfaa:	ea41 4303 	orr.w	r3, r1, r3, lsl #16
 800cfae:	fb06 f107 	mul.w	r1, r6, r7
 800cfb2:	4299      	cmp	r1, r3
 800cfb4:	d90a      	bls.n	800cfcc <__udivmoddi4+0x64>
 800cfb6:	eb1c 0303 	adds.w	r3, ip, r3
 800cfba:	f106 30ff 	add.w	r0, r6, #4294967295
 800cfbe:	f080 811f 	bcs.w	800d200 <__udivmoddi4+0x298>
 800cfc2:	4299      	cmp	r1, r3
 800cfc4:	f240 811c 	bls.w	800d200 <__udivmoddi4+0x298>
 800cfc8:	3e02      	subs	r6, #2
 800cfca:	4463      	add	r3, ip
 800cfcc:	1a5b      	subs	r3, r3, r1
 800cfce:	b2a4      	uxth	r4, r4
 800cfd0:	fbb3 f0f8 	udiv	r0, r3, r8
 800cfd4:	fb08 3310 	mls	r3, r8, r0, r3
 800cfd8:	ea44 4403 	orr.w	r4, r4, r3, lsl #16
 800cfdc:	fb00 f707 	mul.w	r7, r0, r7
 800cfe0:	42a7      	cmp	r7, r4
 800cfe2:	d90a      	bls.n	800cffa <__udivmoddi4+0x92>
 800cfe4:	eb1c 0404 	adds.w	r4, ip, r4
 800cfe8:	f100 33ff 	add.w	r3, r0, #4294967295
 800cfec:	f080 810a 	bcs.w	800d204 <__udivmoddi4+0x29c>
 800cff0:	42a7      	cmp	r7, r4
 800cff2:	f240 8107 	bls.w	800d204 <__udivmoddi4+0x29c>
 800cff6:	4464      	add	r4, ip
 800cff8:	3802      	subs	r0, #2
 800cffa:	ea40 4006 	orr.w	r0, r0, r6, lsl #16
 800cffe:	1be4      	subs	r4, r4, r7
 800d000:	2600      	movs	r6, #0
 800d002:	b11d      	cbz	r5, 800d00c <__udivmoddi4+0xa4>
 800d004:	40d4      	lsrs	r4, r2
 800d006:	2300      	movs	r3, #0
 800d008:	e9c5 4300 	strd	r4, r3, [r5]
 800d00c:	4631      	mov	r1, r6
 800d00e:	e8bd 87f0 	ldmia.w	sp!, {r4, r5, r6, r7, r8, r9, sl, pc}
 800d012:	428b      	cmp	r3, r1
 800d014:	d909      	bls.n	800d02a <__udivmoddi4+0xc2>
 800d016:	2d00      	cmp	r5, #0
 800d018:	f000 80ef 	beq.w	800d1fa <__udivmoddi4+0x292>
 800d01c:	2600      	movs	r6, #0
 800d01e:	e9c5 0100 	strd	r0, r1, [r5]
 800d022:	4630      	mov	r0, r6
 800d024:	4631      	mov	r1, r6
 800d026:	e8bd 87f0 	ldmia.w	sp!, {r4, r5, r6, r7, r8, r9, sl, pc}
 800d02a:	fab3 f683 	clz	r6, r3
 800d02e:	2e00      	cmp	r6, #0
 800d030:	d14a      	bne.n	800d0c8 <__udivmoddi4+0x160>
 800d032:	428b      	cmp	r3, r1
 800d034:	d302      	bcc.n	800d03c <__udivmoddi4+0xd4>
 800d036:	4282      	cmp	r2, r0
 800d038:	f200 80f9 	bhi.w	800d22e <__udivmoddi4+0x2c6>
 800d03c:	1a84      	subs	r4, r0, r2
 800d03e:	eb61 0303 	sbc.w	r3, r1, r3
 800d042:	2001      	movs	r0, #1
 800d044:	469e      	mov	lr, r3
 800d046:	2d00      	cmp	r5, #0
 800d048:	d0e0      	beq.n	800d00c <__udivmoddi4+0xa4>
 800d04a:	e9c5 4e00 	strd	r4, lr, [r5]
 800d04e:	e7dd      	b.n	800d00c <__udivmoddi4+0xa4>
 800d050:	b902      	cbnz	r2, 800d054 <__udivmoddi4+0xec>
 800d052:	deff      	udf	#255	; 0xff
 800d054:	fab2 f282 	clz	r2, r2
 800d058:	2a00      	cmp	r2, #0
 800d05a:	f040 8092 	bne.w	800d182 <__udivmoddi4+0x21a>
 800d05e:	eba1 010c 	sub.w	r1, r1, ip
 800d062:	ea4f 471c 	mov.w	r7, ip, lsr #16
 800d066:	fa1f fe8c 	uxth.w	lr, ip
 800d06a:	2601      	movs	r6, #1
 800d06c:	0c20      	lsrs	r0, r4, #16
 800d06e:	fbb1 f3f7 	udiv	r3, r1, r7
 800d072:	fb07 1113 	mls	r1, r7, r3, r1
 800d076:	ea40 4101 	orr.w	r1, r0, r1, lsl #16
 800d07a:	fb0e f003 	mul.w	r0, lr, r3
 800d07e:	4288      	cmp	r0, r1
 800d080:	d908      	bls.n	800d094 <__udivmoddi4+0x12c>
 800d082:	eb1c 0101 	adds.w	r1, ip, r1
 800d086:	f103 38ff 	add.w	r8, r3, #4294967295
 800d08a:	d202      	bcs.n	800d092 <__udivmoddi4+0x12a>
 800d08c:	4288      	cmp	r0, r1
 800d08e:	f200 80cb 	bhi.w	800d228 <__udivmoddi4+0x2c0>
 800d092:	4643      	mov	r3, r8
 800d094:	1a09      	subs	r1, r1, r0
 800d096:	b2a4      	uxth	r4, r4
 800d098:	fbb1 f0f7 	udiv	r0, r1, r7
 800d09c:	fb07 1110 	mls	r1, r7, r0, r1
 800d0a0:	ea44 4401 	orr.w	r4, r4, r1, lsl #16
 800d0a4:	fb0e fe00 	mul.w	lr, lr, r0
 800d0a8:	45a6      	cmp	lr, r4
 800d0aa:	d908      	bls.n	800d0be <__udivmoddi4+0x156>
 800d0ac:	eb1c 0404 	adds.w	r4, ip, r4
 800d0b0:	f100 31ff 	add.w	r1, r0, #4294967295
 800d0b4:	d202      	bcs.n	800d0bc <__udivmoddi4+0x154>
 800d0b6:	45a6      	cmp	lr, r4
 800d0b8:	f200 80bb 	bhi.w	800d232 <__udivmoddi4+0x2ca>
 800d0bc:	4608      	mov	r0, r1
 800d0be:	eba4 040e 	sub.w	r4, r4, lr
 800d0c2:	ea40 4003 	orr.w	r0, r0, r3, lsl #16
 800d0c6:	e79c      	b.n	800d002 <__udivmoddi4+0x9a>
 800d0c8:	f1c6 0720 	rsb	r7, r6, #32
 800d0cc:	40b3      	lsls	r3, r6
 800d0ce:	fa22 fc07 	lsr.w	ip, r2, r7
 800d0d2:	ea4c 0c03 	orr.w	ip, ip, r3
 800d0d6:	fa20 f407 	lsr.w	r4, r0, r7
 800d0da:	fa01 f306 	lsl.w	r3, r1, r6
 800d0de:	431c      	orrs	r4, r3
 800d0e0:	40f9      	lsrs	r1, r7
 800d0e2:	ea4f 491c 	mov.w	r9, ip, lsr #16
 800d0e6:	fa00 f306 	lsl.w	r3, r0, r6
 800d0ea:	fbb1 f8f9 	udiv	r8, r1, r9
 800d0ee:	0c20      	lsrs	r0, r4, #16
 800d0f0:	fa1f fe8c 	uxth.w	lr, ip
 800d0f4:	fb09 1118 	mls	r1, r9, r8, r1
 800d0f8:	ea40 4101 	orr.w	r1, r0, r1, lsl #16
 800d0fc:	fb08 f00e 	mul.w	r0, r8, lr
 800d100:	4288      	cmp	r0, r1
 800d102:	fa02 f206 	lsl.w	r2, r2, r6
 800d106:	d90b      	bls.n	800d120 <__udivmoddi4+0x1b8>
 800d108:	eb1c 0101 	adds.w	r1, ip, r1
 800d10c:	f108 3aff 	add.w	sl, r8, #4294967295
 800d110:	f080 8088 	bcs.w	800d224 <__udivmoddi4+0x2bc>
 800d114:	4288      	cmp	r0, r1
 800d116:	f240 8085 	bls.w	800d224 <__udivmoddi4+0x2bc>
 800d11a:	f1a8 0802 	sub.w	r8, r8, #2
 800d11e:	4461      	add	r1, ip
 800d120:	1a09      	subs	r1, r1, r0
 800d122:	b2a4      	uxth	r4, r4
 800d124:	fbb1 f0f9 	udiv	r0, r1, r9
 800d128:	fb09 1110 	mls	r1, r9, r0, r1
 800d12c:	ea44 4101 	orr.w	r1, r4, r1, lsl #16
 800d130:	fb00 fe0e 	mul.w	lr, r0, lr
 800d134:	458e      	cmp	lr, r1
 800d136:	d908      	bls.n	800d14a <__udivmoddi4+0x1e2>
 800d138:	eb1c 0101 	adds.w	r1, ip, r1
 800d13c:	f100 34ff 	add.w	r4, r0, #4294967295
 800d140:	d26c      	bcs.n	800d21c <__udivmoddi4+0x2b4>
 800d142:	458e      	cmp	lr, r1
 800d144:	d96a      	bls.n	800d21c <__udivmoddi4+0x2b4>
 800d146:	3802      	subs	r0, #2
 800d148:	4461      	add	r1, ip
 800d14a:	ea40 4008 	orr.w	r0, r0, r8, lsl #16
 800d14e:	fba0 9402 	umull	r9, r4, r0, r2
 800d152:	eba1 010e 	sub.w	r1, r1, lr
 800d156:	42a1      	cmp	r1, r4
 800d158:	46c8      	mov	r8, r9
 800d15a:	46a6      	mov	lr, r4
 800d15c:	d356      	bcc.n	800d20c <__udivmoddi4+0x2a4>
 800d15e:	d053      	beq.n	800d208 <__udivmoddi4+0x2a0>
 800d160:	b15d      	cbz	r5, 800d17a <__udivmoddi4+0x212>
 800d162:	ebb3 0208 	subs.w	r2, r3, r8
 800d166:	eb61 010e 	sbc.w	r1, r1, lr
 800d16a:	fa01 f707 	lsl.w	r7, r1, r7
 800d16e:	fa22 f306 	lsr.w	r3, r2, r6
 800d172:	40f1      	lsrs	r1, r6
 800d174:	431f      	orrs	r7, r3
 800d176:	e9c5 7100 	strd	r7, r1, [r5]
 800d17a:	2600      	movs	r6, #0
 800d17c:	4631      	mov	r1, r6
 800d17e:	e8bd 87f0 	ldmia.w	sp!, {r4, r5, r6, r7, r8, r9, sl, pc}
 800d182:	f1c2 0320 	rsb	r3, r2, #32
 800d186:	40d8      	lsrs	r0, r3
 800d188:	fa0c fc02 	lsl.w	ip, ip, r2
 800d18c:	fa21 f303 	lsr.w	r3, r1, r3
 800d190:	4091      	lsls	r1, r2
 800d192:	4301      	orrs	r1, r0
 800d194:	ea4f 471c 	mov.w	r7, ip, lsr #16
 800d198:	fa1f fe8c 	uxth.w	lr, ip
 800d19c:	fbb3 f0f7 	udiv	r0, r3, r7
 800d1a0:	fb07 3610 	mls	r6, r7, r0, r3
 800d1a4:	0c0b      	lsrs	r3, r1, #16
 800d1a6:	ea43 4306 	orr.w	r3, r3, r6, lsl #16
 800d1aa:	fb00 f60e 	mul.w	r6, r0, lr
 800d1ae:	429e      	cmp	r6, r3
 800d1b0:	fa04 f402 	lsl.w	r4, r4, r2
 800d1b4:	d908      	bls.n	800d1c8 <__udivmoddi4+0x260>
 800d1b6:	eb1c 0303 	adds.w	r3, ip, r3
 800d1ba:	f100 38ff 	add.w	r8, r0, #4294967295
 800d1be:	d22f      	bcs.n	800d220 <__udivmoddi4+0x2b8>
 800d1c0:	429e      	cmp	r6, r3
 800d1c2:	d92d      	bls.n	800d220 <__udivmoddi4+0x2b8>
 800d1c4:	3802      	subs	r0, #2
 800d1c6:	4463      	add	r3, ip
 800d1c8:	1b9b      	subs	r3, r3, r6
 800d1ca:	b289      	uxth	r1, r1
 800d1cc:	fbb3 f6f7 	udiv	r6, r3, r7
 800d1d0:	fb07 3316 	mls	r3, r7, r6, r3
 800d1d4:	ea41 4103 	orr.w	r1, r1, r3, lsl #16
 800d1d8:	fb06 f30e 	mul.w	r3, r6, lr
 800d1dc:	428b      	cmp	r3, r1
 800d1de:	d908      	bls.n	800d1f2 <__udivmoddi4+0x28a>
 800d1e0:	eb1c 0101 	adds.w	r1, ip, r1
 800d1e4:	f106 38ff 	add.w	r8, r6, #4294967295
 800d1e8:	d216      	bcs.n	800d218 <__udivmoddi4+0x2b0>
 800d1ea:	428b      	cmp	r3, r1
 800d1ec:	d914      	bls.n	800d218 <__udivmoddi4+0x2b0>
 800d1ee:	3e02      	subs	r6, #2
 800d1f0:	4461      	add	r1, ip
 800d1f2:	1ac9      	subs	r1, r1, r3
 800d1f4:	ea46 4600 	orr.w	r6, r6, r0, lsl #16
 800d1f8:	e738      	b.n	800d06c <__udivmoddi4+0x104>
 800d1fa:	462e      	mov	r6, r5
 800d1fc:	4628      	mov	r0, r5
 800d1fe:	e705      	b.n	800d00c <__udivmoddi4+0xa4>
 800d200:	4606      	mov	r6, r0
 800d202:	e6e3      	b.n	800cfcc <__udivmoddi4+0x64>
 800d204:	4618      	mov	r0, r3
 800d206:	e6f8      	b.n	800cffa <__udivmoddi4+0x92>
 800d208:	454b      	cmp	r3, r9
 800d20a:	d2a9      	bcs.n	800d160 <__udivmoddi4+0x1f8>
 800d20c:	ebb9 0802 	subs.w	r8, r9, r2
 800d210:	eb64 0e0c 	sbc.w	lr, r4, ip
 800d214:	3801      	subs	r0, #1
 800d216:	e7a3      	b.n	800d160 <__udivmoddi4+0x1f8>
 800d218:	4646      	mov	r6, r8
 800d21a:	e7ea      	b.n	800d1f2 <__udivmoddi4+0x28a>
 800d21c:	4620      	mov	r0, r4
 800d21e:	e794      	b.n	800d14a <__udivmoddi4+0x1e2>
 800d220:	4640      	mov	r0, r8
 800d222:	e7d1      	b.n	800d1c8 <__udivmoddi4+0x260>
 800d224:	46d0      	mov	r8, sl
 800d226:	e77b      	b.n	800d120 <__udivmoddi4+0x1b8>
 800d228:	3b02      	subs	r3, #2
 800d22a:	4461      	add	r1, ip
 800d22c:	e732      	b.n	800d094 <__udivmoddi4+0x12c>
 800d22e:	4630      	mov	r0, r6
 800d230:	e709      	b.n	800d046 <__udivmoddi4+0xde>
 800d232:	4464      	add	r4, ip
 800d234:	3802      	subs	r0, #2
 800d236:	e742      	b.n	800d0be <__udivmoddi4+0x156>

0800d238 <__aeabi_idiv0>:
 800d238:	4770      	bx	lr
 800d23a:	bf00      	nop

0800d23c <codec2_decode_ber.part.0>:
void codec2_decode(struct CODEC2 *c2, short speech[], const unsigned char *bytes)
{
    codec2_decode_ber(c2, speech, bytes, 0.0);
}

void codec2_decode_ber(struct CODEC2 *c2, short speech[], const unsigned char *bits, float ber_est)
 800d23c:	b508      	push	{r3, lr}
{
    assert(c2 != NULL);
    assert(c2->decode != NULL || c2->decode_ber != NULL);
 800d23e:	4a03      	ldr	r2, [pc, #12]	; (800d24c <codec2_decode_ber.part.0+0x10>)
 800d240:	4b03      	ldr	r3, [pc, #12]	; (800d250 <codec2_decode_ber.part.0+0x14>)
 800d242:	4804      	ldr	r0, [pc, #16]	; (800d254 <codec2_decode_ber.part.0+0x18>)
 800d244:	f44f 71f5 	mov.w	r1, #490	; 0x1ea
 800d248:	f016 f9a0 	bl	802358c <__assert_func>
 800d24c:	0804cccc 	.word	0x0804cccc
 800d250:	0804cb10 	.word	0x0804cb10
 800d254:	0804cb40 	.word	0x0804cb40

0800d258 <codec2_create>:
{
 800d258:	e92d 47f0 	stmdb	sp!, {r4, r5, r6, r7, r8, r9, sl, lr}
 800d25c:	ed2d 8b02 	vpush	{d8}
		   || CODEC2_MODE_ACTIVE(CODEC2_MODE_450PWB, mode)
 800d260:	2805      	cmp	r0, #5
{
 800d262:	b08c      	sub	sp, #48	; 0x30
 800d264:	4605      	mov	r5, r0
		   || CODEC2_MODE_ACTIVE(CODEC2_MODE_450PWB, mode)
 800d266:	d923      	bls.n	800d2b0 <codec2_create+0x58>
		   || CODEC2_MODE_ACTIVE(CODEC2_MODE_700C, mode)
 800d268:	f020 0302 	bic.w	r3, r0, #2
 800d26c:	2b08      	cmp	r3, #8
 800d26e:	d01f      	beq.n	800d2b0 <codec2_create+0x58>
		   || CODEC2_MODE_ACTIVE(CODEC2_MODE_450PWB, mode)
 800d270:	280b      	cmp	r0, #11
 800d272:	f040 81e2 	bne.w	800d63a <codec2_create+0x3e2>
    c2 = (struct CODEC2*)MALLOC(sizeof(struct CODEC2));
 800d276:	f241 1030 	movw	r0, #4400	; 0x1130
 800d27a:	f016 fb0f 	bl	802389c <malloc>
    if (c2 == NULL)
 800d27e:	4604      	mov	r4, r0
 800d280:	2800      	cmp	r0, #0
 800d282:	f000 81da 	beq.w	800d63a <codec2_create+0x3e2>
    c2->mode = mode;
 800d286:	4626      	mov	r6, r4
        c2->c2const = c2const_create(16000, N_S);
 800d288:	f44f 517a 	mov.w	r1, #16000	; 0x3e80
    c2->mode = mode;
 800d28c:	f846 5b04 	str.w	r5, [r6], #4
        c2->c2const = c2const_create(16000, N_S);
 800d290:	a802      	add	r0, sp, #8
 800d292:	ed9f 0ac5 	vldr	s0, [pc, #788]	; 800d5a8 <codec2_create+0x350>
 800d296:	f00e ffcd 	bl	801c234 <c2const_create>
 800d29a:	ad02      	add	r5, sp, #8
 800d29c:	cd0f      	ldmia	r5!, {r0, r1, r2, r3}
 800d29e:	4637      	mov	r7, r6
 800d2a0:	c70f      	stmia	r7!, {r0, r1, r2, r3}
 800d2a2:	cd0f      	ldmia	r5!, {r0, r1, r2, r3}
 800d2a4:	c70f      	stmia	r7!, {r0, r1, r2, r3}
 800d2a6:	e895 0003 	ldmia.w	r5, {r0, r1}
 800d2aa:	e887 0003 	stmia.w	r7, {r0, r1}
 800d2ae:	e01c      	b.n	800d2ea <codec2_create+0x92>
    c2 = (struct CODEC2*)MALLOC(sizeof(struct CODEC2));
 800d2b0:	f241 1030 	movw	r0, #4400	; 0x1130
 800d2b4:	f016 faf2 	bl	802389c <malloc>
    if (c2 == NULL)
 800d2b8:	4604      	mov	r4, r0
 800d2ba:	2800      	cmp	r0, #0
 800d2bc:	f000 81bd 	beq.w	800d63a <codec2_create+0x3e2>
    c2->mode = mode;
 800d2c0:	6005      	str	r5, [r0, #0]
        c2->c2const = c2const_create(8000, N_S);
 800d2c2:	f44f 51fa 	mov.w	r1, #8000	; 0x1f40
 800d2c6:	a802      	add	r0, sp, #8
 800d2c8:	ed9f 0ab7 	vldr	s0, [pc, #732]	; 800d5a8 <codec2_create+0x350>
 800d2cc:	f00e ffb2 	bl	801c234 <c2const_create>
 800d2d0:	ad02      	add	r5, sp, #8
 800d2d2:	cd0f      	ldmia	r5!, {r0, r1, r2, r3}
 800d2d4:	1d26      	adds	r6, r4, #4
 800d2d6:	46b4      	mov	ip, r6
 800d2d8:	e8ac 000f 	stmia.w	ip!, {r0, r1, r2, r3}
 800d2dc:	cd0f      	ldmia	r5!, {r0, r1, r2, r3}
 800d2de:	e8ac 000f 	stmia.w	ip!, {r0, r1, r2, r3}
 800d2e2:	e895 0003 	ldmia.w	r5, {r0, r1}
 800d2e6:	e88c 0003 	stmia.w	ip, {r0, r1}
    c2->Fs = c2->c2const.Fs;
 800d2ea:	e9d4 3501 	ldrd	r3, r5, [r4, #4]
    int m_pitch = c2->m_pitch = c2->c2const.m_pitch;
 800d2ee:	6927      	ldr	r7, [r4, #16]
 800d2f0:	6367      	str	r7, [r4, #52]	; 0x34
    int n_samp = c2->n_samp = c2->c2const.n_samp;
 800d2f2:	e9c4 350b 	strd	r3, r5, [r4, #44]	; 0x2c
    c2->Pn = (float*)MALLOC(2*n_samp*sizeof(float));
 800d2f6:	00ed      	lsls	r5, r5, #3
 800d2f8:	4628      	mov	r0, r5
 800d2fa:	f016 facf 	bl	802389c <malloc>
 800d2fe:	4680      	mov	r8, r0
 800d300:	f8c4 0844 	str.w	r0, [r4, #2116]	; 0x844
    if (c2->Pn == NULL) {
 800d304:	2800      	cmp	r0, #0
 800d306:	f000 8198 	beq.w	800d63a <codec2_create+0x3e2>
    c2->Sn_ = (float*)MALLOC(2*n_samp*sizeof(float));
 800d30a:	4628      	mov	r0, r5
 800d30c:	2101      	movs	r1, #1
 800d30e:	f016 f95f 	bl	80235d0 <calloc>
 800d312:	4681      	mov	r9, r0
 800d314:	f8c4 0864 	str.w	r0, [r4, #2148]	; 0x864
    if (c2->Sn_ == NULL) {
 800d318:	2800      	cmp	r0, #0
 800d31a:	f000 821a 	beq.w	800d752 <codec2_create+0x4fa>
    c2->w = (float*)MALLOC(m_pitch*sizeof(float));
 800d31e:	00bd      	lsls	r5, r7, #2
 800d320:	4628      	mov	r0, r5
 800d322:	f016 fabb 	bl	802389c <malloc>
 800d326:	4682      	mov	sl, r0
 800d328:	6420      	str	r0, [r4, #64]	; 0x40
    if (c2->w == NULL) {
 800d32a:	2800      	cmp	r0, #0
 800d32c:	f000 8209 	beq.w	800d742 <codec2_create+0x4ea>
    c2->Sn = (float*)MALLOC(m_pitch*sizeof(float));
 800d330:	4628      	mov	r0, r5
 800d332:	f016 fab3 	bl	802389c <malloc>
 800d336:	4603      	mov	r3, r0
 800d338:	f8c4 084c 	str.w	r0, [r4, #2124]	; 0x84c
    if (c2->Sn == NULL) {
 800d33c:	2800      	cmp	r0, #0
 800d33e:	f000 8213 	beq.w	800d768 <codec2_create+0x510>
    for(i=0; i<m_pitch; i++)
 800d342:	2f00      	cmp	r7, #0
 800d344:	dd06      	ble.n	800d354 <codec2_create+0xfc>
 800d346:	4428      	add	r0, r5
	c2->Sn[i] = 1.0;
 800d348:	f04f 527e 	mov.w	r2, #1065353216	; 0x3f800000
 800d34c:	f843 2b04 	str.w	r2, [r3], #4
    for(i=0; i<m_pitch; i++)
 800d350:	4283      	cmp	r3, r0
 800d352:	d1fb      	bne.n	800d34c <codec2_create+0xf4>
    c2->hpf_states[0] = c2->hpf_states[1] = 0.0;
 800d354:	f604 0254 	addw	r2, r4, #2132	; 0x854
 800d358:	2500      	movs	r5, #0
 800d35a:	6015      	str	r5, [r2, #0]
 800d35c:	f504 6205 	add.w	r2, r4, #2128	; 0x850
    c2->fft_fwd_cfg = codec2_fft_alloc(FFT_ENC, 0, NULL, NULL);
 800d360:	2300      	movs	r3, #0
 800d362:	4619      	mov	r1, r3
    c2->hpf_states[0] = c2->hpf_states[1] = 0.0;
 800d364:	6015      	str	r5, [r2, #0]
    c2->fft_fwd_cfg = codec2_fft_alloc(FFT_ENC, 0, NULL, NULL);
 800d366:	f44f 7000 	mov.w	r0, #512	; 0x200
 800d36a:	461a      	mov	r2, r3
 800d36c:	f002 fda8 	bl	800fec0 <codec2_fft_alloc>
    c2->fftr_fwd_cfg = codec2_fftr_alloc(FFT_ENC, 0, NULL, NULL);
 800d370:	2300      	movs	r3, #0
 800d372:	461a      	mov	r2, r3
 800d374:	4619      	mov	r1, r3
    c2->fft_fwd_cfg = codec2_fft_alloc(FFT_ENC, 0, NULL, NULL);
 800d376:	63a0      	str	r0, [r4, #56]	; 0x38
    c2->fftr_fwd_cfg = codec2_fftr_alloc(FFT_ENC, 0, NULL, NULL);
 800d378:	f44f 7000 	mov.w	r0, #512	; 0x200
 800d37c:	f002 fda2 	bl	800fec4 <codec2_fftr_alloc>
    make_analysis_window(&c2->c2const, c2->fft_fwd_cfg, c2->w,c2->W);
 800d380:	6c22      	ldr	r2, [r4, #64]	; 0x40
 800d382:	6ba1      	ldr	r1, [r4, #56]	; 0x38
    c2->fftr_fwd_cfg = codec2_fftr_alloc(FFT_ENC, 0, NULL, NULL);
 800d384:	63e0      	str	r0, [r4, #60]	; 0x3c
    make_analysis_window(&c2->c2const, c2->fft_fwd_cfg, c2->w,c2->W);
 800d386:	f104 0344 	add.w	r3, r4, #68	; 0x44
 800d38a:	4630      	mov	r0, r6
 800d38c:	f00e ffb0 	bl	801c2f0 <make_analysis_window>
    make_synthesis_window(&c2->c2const, c2->Pn);
 800d390:	f8d4 1844 	ldr.w	r1, [r4, #2116]	; 0x844
 800d394:	4630      	mov	r0, r6
 800d396:	f00f fd1b 	bl	801cdd0 <make_synthesis_window>
    c2->fftr_inv_cfg = codec2_fftr_alloc(FFT_DEC, 1, NULL, NULL);
 800d39a:	2300      	movs	r3, #0
 800d39c:	461a      	mov	r2, r3
 800d39e:	2101      	movs	r1, #1
 800d3a0:	f44f 7000 	mov.w	r0, #512	; 0x200
 800d3a4:	f002 fd8e 	bl	800fec4 <codec2_fftr_alloc>
    c2->prev_f0_enc = 1/P_MAX_S;
 800d3a8:	f504 6307 	add.w	r3, r4, #2160	; 0x870
 800d3ac:	4a7f      	ldr	r2, [pc, #508]	; (800d5ac <codec2_create+0x354>)
    c2->fftr_inv_cfg = codec2_fftr_alloc(FFT_DEC, 1, NULL, NULL);
 800d3ae:	f8c4 0860 	str.w	r0, [r4, #2144]	; 0x860
    c2->prev_f0_enc = 1/P_MAX_S;
 800d3b2:	601a      	str	r2, [r3, #0]
    c2->ex_phase = 0.0;
 800d3b4:	f604 0368 	addw	r3, r4, #2152	; 0x868
    c2->bg_est = 0.0;
 800d3b8:	f604 026c 	addw	r2, r4, #2156	; 0x86c
	c2->prev_model_dec.A[l] = 0.0;
 800d3bc:	2100      	movs	r1, #0
    c2->bg_est = 0.0;
 800d3be:	6015      	str	r5, [r2, #0]
	c2->prev_model_dec.A[l] = 0.0;
 800d3c0:	f504 6008 	add.w	r0, r4, #2176	; 0x880
    c2->ex_phase = 0.0;
 800d3c4:	601d      	str	r5, [r3, #0]
	c2->prev_model_dec.A[l] = 0.0;
 800d3c6:	f44f 7220 	mov.w	r2, #640	; 0x280
 800d3ca:	f016 fcdb 	bl	8023d84 <memset>
    c2->prev_model_dec.Wo = TWO_PI/c2->c2const.p_max;
 800d3ce:	69a0      	ldr	r0, [r4, #24]
 800d3d0:	f7ff f8c0 	bl	800c554 <__aeabi_i2d>
 800d3d4:	4602      	mov	r2, r0
 800d3d6:	460b      	mov	r3, r1
 800d3d8:	a16f      	add	r1, pc, #444	; (adr r1, 800d598 <codec2_create+0x340>)
 800d3da:	e9d1 0100 	ldrd	r0, r1, [r1]
 800d3de:	f7ff fa4d 	bl	800c87c <__aeabi_ddiv>
 800d3e2:	f7ff fbf9 	bl	800cbd8 <__aeabi_d2f>
 800d3e6:	f604 0374 	addw	r3, r4, #2164	; 0x874
    c2->prev_model_dec.voiced = 0;
 800d3ea:	2700      	movs	r7, #0
    c2->prev_model_dec.Wo = TWO_PI/c2->c2const.p_max;
 800d3ec:	6018      	str	r0, [r3, #0]
    c2->prev_model_dec.L = PI/c2->prev_model_dec.Wo;
 800d3ee:	f7ff f8c3 	bl	800c578 <__aeabi_f2d>
 800d3f2:	4602      	mov	r2, r0
 800d3f4:	460b      	mov	r3, r1
 800d3f6:	a16a      	add	r1, pc, #424	; (adr r1, 800d5a0 <codec2_create+0x348>)
 800d3f8:	e9d1 0100 	ldrd	r0, r1, [r1]
 800d3fc:	f7ff fa3e 	bl	800c87c <__aeabi_ddiv>
 800d400:	f7ff fbc2 	bl	800cb88 <__aeabi_d2iz>
      c2->prev_lsps_dec[i] = i*PI/(LPC_ORD+1);
 800d404:	f604 5388 	addw	r3, r4, #3464	; 0xd88
    c2->prev_model_dec.L = PI/c2->prev_model_dec.Wo;
 800d408:	f8c4 0878 	str.w	r0, [r4, #2168]	; 0x878
    c2->prev_model_dec.voiced = 0;
 800d40c:	f8c4 7d84 	str.w	r7, [r4, #3460]	; 0xd84
      c2->prev_lsps_dec[i] = i*PI/(LPC_ORD+1);
 800d410:	601d      	str	r5, [r3, #0]
 800d412:	f604 538c 	addw	r3, r4, #3468	; 0xd8c
 800d416:	4a66      	ldr	r2, [pc, #408]	; (800d5b0 <codec2_create+0x358>)
 800d418:	601a      	str	r2, [r3, #0]
 800d41a:	f504 6359 	add.w	r3, r4, #3472	; 0xd90
 800d41e:	4a65      	ldr	r2, [pc, #404]	; (800d5b4 <codec2_create+0x35c>)
 800d420:	601a      	str	r2, [r3, #0]
 800d422:	f604 5394 	addw	r3, r4, #3476	; 0xd94
 800d426:	4a64      	ldr	r2, [pc, #400]	; (800d5b8 <codec2_create+0x360>)
 800d428:	601a      	str	r2, [r3, #0]
 800d42a:	f604 5398 	addw	r3, r4, #3480	; 0xd98
 800d42e:	4a63      	ldr	r2, [pc, #396]	; (800d5bc <codec2_create+0x364>)
 800d430:	601a      	str	r2, [r3, #0]
 800d432:	f604 539c 	addw	r3, r4, #3484	; 0xd9c
 800d436:	4a62      	ldr	r2, [pc, #392]	; (800d5c0 <codec2_create+0x368>)
 800d438:	601a      	str	r2, [r3, #0]
 800d43a:	f504 635a 	add.w	r3, r4, #3488	; 0xda0
 800d43e:	4a61      	ldr	r2, [pc, #388]	; (800d5c4 <codec2_create+0x36c>)
 800d440:	601a      	str	r2, [r3, #0]
 800d442:	f604 53a4 	addw	r3, r4, #3492	; 0xda4
 800d446:	4a60      	ldr	r2, [pc, #384]	; (800d5c8 <codec2_create+0x370>)
 800d448:	601a      	str	r2, [r3, #0]
 800d44a:	f604 53a8 	addw	r3, r4, #3496	; 0xda8
 800d44e:	4a5f      	ldr	r2, [pc, #380]	; (800d5cc <codec2_create+0x374>)
 800d450:	601a      	str	r2, [r3, #0]
 800d452:	f604 53ac 	addw	r3, r4, #3500	; 0xdac
 800d456:	4a5e      	ldr	r2, [pc, #376]	; (800d5d0 <codec2_create+0x378>)
 800d458:	601a      	str	r2, [r3, #0]
    c2->prev_e_dec = 1;
 800d45a:	f504 635b 	add.w	r3, r4, #3504	; 0xdb0
 800d45e:	f04f 527e 	mov.w	r2, #1065353216	; 0x3f800000
    c2->nlp = nlp_create(&c2->c2const);
 800d462:	4630      	mov	r0, r6
    c2->prev_e_dec = 1;
 800d464:	601a      	str	r2, [r3, #0]
    c2->nlp = nlp_create(&c2->c2const);
 800d466:	f00a ffbb 	bl	80183e0 <nlp_create>
 800d46a:	f8c4 0858 	str.w	r0, [r4, #2136]	; 0x858
    if (c2->nlp == NULL) {
 800d46e:	2800      	cmp	r0, #0
 800d470:	f000 80e3 	beq.w	800d63a <codec2_create+0x3e2>
    c2->lpc_pf = 1; c2->bass_boost = 1; c2->beta = LPCPF_BETA; c2->gamma = LPCPF_GAMMA;
 800d474:	f604 52bc 	addw	r2, r4, #3516	; 0xdbc
 800d478:	2301      	movs	r3, #1
 800d47a:	4956      	ldr	r1, [pc, #344]	; (800d5d4 <codec2_create+0x37c>)
    c2->bpf_buf = (float*)MALLOC(sizeof(float)*(BPF_N+4*c2->n_samp));
 800d47c:	6b26      	ldr	r6, [r4, #48]	; 0x30
    c2->lpc_pf = 1; c2->bass_boost = 1; c2->beta = LPCPF_BETA; c2->gamma = LPCPF_GAMMA;
 800d47e:	f8c4 3db4 	str.w	r3, [r4, #3508]	; 0xdb4
 800d482:	f8c4 3db8 	str.w	r3, [r4, #3512]	; 0xdb8
 800d486:	6011      	str	r1, [r2, #0]
 800d488:	f504 615c 	add.w	r1, r4, #3520	; 0xdc0
 800d48c:	f04f 507c 	mov.w	r0, #1056964608	; 0x3f000000
 800d490:	6008      	str	r0, [r1, #0]
    c2->xq_enc[0] = c2->xq_enc[1] = 0.0;
 800d492:	f604 51c8 	addw	r1, r4, #3528	; 0xdc8
    c2->bpf_buf = (float*)MALLOC(sizeof(float)*(BPF_N+4*c2->n_samp));
 800d496:	00b6      	lsls	r6, r6, #2
    c2->xq_enc[0] = c2->xq_enc[1] = 0.0;
 800d498:	600d      	str	r5, [r1, #0]
 800d49a:	f604 51c4 	addw	r1, r4, #3524	; 0xdc4
    c2->bpf_buf = (float*)MALLOC(sizeof(float)*(BPF_N+4*c2->n_samp));
 800d49e:	f106 0265 	add.w	r2, r6, #101	; 0x65
    c2->xq_enc[0] = c2->xq_enc[1] = 0.0;
 800d4a2:	600d      	str	r5, [r1, #0]
    c2->xq_dec[0] = c2->xq_dec[1] = 0.0;
 800d4a4:	f504 615d 	add.w	r1, r4, #3536	; 0xdd0
    c2->bpf_buf = (float*)MALLOC(sizeof(float)*(BPF_N+4*c2->n_samp));
 800d4a8:	0092      	lsls	r2, r2, #2
    c2->xq_dec[0] = c2->xq_dec[1] = 0.0;
 800d4aa:	600d      	str	r5, [r1, #0]
 800d4ac:	f604 51cc 	addw	r1, r4, #3532	; 0xdcc
    c2->bpf_buf = (float*)MALLOC(sizeof(float)*(BPF_N+4*c2->n_samp));
 800d4b0:	4610      	mov	r0, r2
    c2->xq_dec[0] = c2->xq_dec[1] = 0.0;
 800d4b2:	600d      	str	r5, [r1, #0]
    c2->se = 0.0; c2->nse = 0;
 800d4b4:	f604 618c 	addw	r1, r4, #3724	; 0xe8c
    c2->smoothing = 0;
 800d4b8:	f8c4 7dd4 	str.w	r7, [r4, #3540]	; 0xdd4
    c2->se = 0.0; c2->nse = 0;
 800d4bc:	600d      	str	r5, [r1, #0]
 800d4be:	f8c4 7e90 	str.w	r7, [r4, #3728]	; 0xe90
    c2->user_rate_K_vec_no_mean_ = NULL;
 800d4c2:	f8c4 7e94 	str.w	r7, [r4, #3732]	; 0xe94
    c2->post_filter_en = 1;
 800d4c6:	f8c4 3e98 	str.w	r3, [r4, #3736]	; 0xe98
    c2->bpf_buf = (float*)MALLOC(sizeof(float)*(BPF_N+4*c2->n_samp));
 800d4ca:	9201      	str	r2, [sp, #4]
 800d4cc:	f016 f9e6 	bl	802389c <malloc>
 800d4d0:	f8c4 0848 	str.w	r0, [r4, #2120]	; 0x848
    assert(c2->bpf_buf != NULL);
 800d4d4:	2800      	cmp	r0, #0
 800d4d6:	f000 8141 	beq.w	800d75c <codec2_create+0x504>
    for(i=0; i<BPF_N+4*c2->n_samp; i++)
 800d4da:	f116 0f64 	cmn.w	r6, #100	; 0x64
 800d4de:	9a01      	ldr	r2, [sp, #4]
 800d4e0:	d402      	bmi.n	800d4e8 <codec2_create+0x290>
        c2->bpf_buf[i] = 0.0;
 800d4e2:	4639      	mov	r1, r7
 800d4e4:	f016 fc4e 	bl	8023d84 <memset>
    if ( CODEC2_MODE_ACTIVE(CODEC2_MODE_700C, c2->mode)) {
 800d4e8:	6822      	ldr	r2, [r4, #0]
    c2->softdec = NULL;
 800d4ea:	2500      	movs	r5, #0
    c2->gray = 1;
 800d4ec:	2601      	movs	r6, #1
    if ( CODEC2_MODE_ACTIVE(CODEC2_MODE_700C, c2->mode)) {
 800d4ee:	2a08      	cmp	r2, #8
    c2->softdec = NULL;
 800d4f0:	f8c4 5dd8 	str.w	r5, [r4, #3544]	; 0xdd8
    c2->gray = 1;
 800d4f4:	f8c4 685c 	str.w	r6, [r4, #2140]	; 0x85c
    if ( CODEC2_MODE_ACTIVE(CODEC2_MODE_700C, c2->mode)) {
 800d4f8:	f000 80c5 	beq.w	800d686 <codec2_create+0x42e>
    if ( CODEC2_MODE_ACTIVE(CODEC2_MODE_450, c2->mode)) {
 800d4fc:	2a0a      	cmp	r2, #10
 800d4fe:	f000 80fd 	beq.w	800d6fc <codec2_create+0x4a4>
    if ( CODEC2_MODE_ACTIVE(CODEC2_MODE_450PWB, c2->mode)) {
 800d502:	2a0b      	cmp	r2, #11
 800d504:	f000 809b 	beq.w	800d63e <codec2_create+0x3e6>
    c2->fmlfeat = NULL; c2->fmlmodel = NULL;
 800d508:	f504 5380 	add.w	r3, r4, #4096	; 0x1000
    c2->decode = NULL;
 800d50c:	f504 5189 	add.w	r1, r4, #4384	; 0x1120
    c2->fmlfeat = NULL; c2->fmlmodel = NULL;
 800d510:	2000      	movs	r0, #0
    c2->decode = NULL;
 800d512:	2600      	movs	r6, #0
 800d514:	2700      	movs	r7, #0
    c2->fmlfeat = NULL; c2->fmlmodel = NULL;
 800d516:	e9c3 0047 	strd	r0, r0, [r3, #284]	; 0x11c
    c2->decode = NULL;
 800d51a:	e9c1 6702 	strd	r6, r7, [r1, #8]
    if ( CODEC2_MODE_ACTIVE(CODEC2_MODE_3200, c2->mode))
 800d51e:	b15a      	cbz	r2, 800d538 <codec2_create+0x2e0>
    if ( CODEC2_MODE_ACTIVE(CODEC2_MODE_2400, c2->mode))
 800d520:	2a01      	cmp	r2, #1
 800d522:	d113      	bne.n	800d54c <codec2_create+0x2f4>
	c2->encode = codec2_encode_2400;
 800d524:	492c      	ldr	r1, [pc, #176]	; (800d5d8 <codec2_create+0x380>)
	c2->decode = codec2_decode_2400;
 800d526:	4a2d      	ldr	r2, [pc, #180]	; (800d5dc <codec2_create+0x384>)
 800d528:	e9c3 1249 	strd	r1, r2, [r3, #292]	; 0x124
}
 800d52c:	4620      	mov	r0, r4
 800d52e:	b00c      	add	sp, #48	; 0x30
 800d530:	ecbd 8b02 	vpop	{d8}
 800d534:	e8bd 87f0 	ldmia.w	sp!, {r4, r5, r6, r7, r8, r9, sl, pc}
	c2->encode = codec2_encode_3200;
 800d538:	4929      	ldr	r1, [pc, #164]	; (800d5e0 <codec2_create+0x388>)
	c2->decode = codec2_decode_3200;
 800d53a:	4a2a      	ldr	r2, [pc, #168]	; (800d5e4 <codec2_create+0x38c>)
}
 800d53c:	4620      	mov	r0, r4
	c2->decode = codec2_decode_3200;
 800d53e:	e9c3 1249 	strd	r1, r2, [r3, #292]	; 0x124
}
 800d542:	b00c      	add	sp, #48	; 0x30
 800d544:	ecbd 8b02 	vpop	{d8}
 800d548:	e8bd 87f0 	ldmia.w	sp!, {r4, r5, r6, r7, r8, r9, sl, pc}
    if ( CODEC2_MODE_ACTIVE(CODEC2_MODE_1600, c2->mode))
 800d54c:	2a02      	cmp	r2, #2
 800d54e:	d109      	bne.n	800d564 <codec2_create+0x30c>
	c2->encode = codec2_encode_1600;
 800d550:	4925      	ldr	r1, [pc, #148]	; (800d5e8 <codec2_create+0x390>)
	c2->decode = codec2_decode_1600;
 800d552:	4a26      	ldr	r2, [pc, #152]	; (800d5ec <codec2_create+0x394>)
}
 800d554:	4620      	mov	r0, r4
	c2->decode = codec2_decode_1600;
 800d556:	e9c3 1249 	strd	r1, r2, [r3, #292]	; 0x124
}
 800d55a:	b00c      	add	sp, #48	; 0x30
 800d55c:	ecbd 8b02 	vpop	{d8}
 800d560:	e8bd 87f0 	ldmia.w	sp!, {r4, r5, r6, r7, r8, r9, sl, pc}
    if ( CODEC2_MODE_ACTIVE(CODEC2_MODE_1400, c2->mode))
 800d564:	2a03      	cmp	r2, #3
 800d566:	d109      	bne.n	800d57c <codec2_create+0x324>
	c2->encode = codec2_encode_1400;
 800d568:	4921      	ldr	r1, [pc, #132]	; (800d5f0 <codec2_create+0x398>)
	c2->decode = codec2_decode_1400;
 800d56a:	4a22      	ldr	r2, [pc, #136]	; (800d5f4 <codec2_create+0x39c>)
}
 800d56c:	4620      	mov	r0, r4
	c2->decode = codec2_decode_1400;
 800d56e:	e9c3 1249 	strd	r1, r2, [r3, #292]	; 0x124
}
 800d572:	b00c      	add	sp, #48	; 0x30
 800d574:	ecbd 8b02 	vpop	{d8}
 800d578:	e8bd 87f0 	ldmia.w	sp!, {r4, r5, r6, r7, r8, r9, sl, pc}
    if ( CODEC2_MODE_ACTIVE(CODEC2_MODE_1300, c2->mode))
 800d57c:	2a04      	cmp	r2, #4
 800d57e:	d13f      	bne.n	800d600 <codec2_create+0x3a8>
	c2->encode = codec2_encode_1300;
 800d580:	491d      	ldr	r1, [pc, #116]	; (800d5f8 <codec2_create+0x3a0>)
	c2->decode_ber = codec2_decode_1300;
 800d582:	4a1e      	ldr	r2, [pc, #120]	; (800d5fc <codec2_create+0x3a4>)
	c2->encode = codec2_encode_1300;
 800d584:	f8c3 1124 	str.w	r1, [r3, #292]	; 0x124
}
 800d588:	4620      	mov	r0, r4
	c2->decode_ber = codec2_decode_1300;
 800d58a:	f8c3 212c 	str.w	r2, [r3, #300]	; 0x12c
}
 800d58e:	b00c      	add	sp, #48	; 0x30
 800d590:	ecbd 8b02 	vpop	{d8}
 800d594:	e8bd 87f0 	ldmia.w	sp!, {r4, r5, r6, r7, r8, r9, sl, pc}
 800d598:	54411744 	.word	0x54411744
 800d59c:	401921fb 	.word	0x401921fb
 800d5a0:	54524550 	.word	0x54524550
 800d5a4:	400921fb 	.word	0x400921fb
 800d5a8:	3c23d70a 	.word	0x3c23d70a
 800d5ac:	42480000 	.word	0x42480000
 800d5b0:	3e923a13 	.word	0x3e923a13
 800d5b4:	3f123a13 	.word	0x3f123a13
 800d5b8:	3f5b571d 	.word	0x3f5b571d
 800d5bc:	3f923a13 	.word	0x3f923a13
 800d5c0:	3fb6c898 	.word	0x3fb6c898
 800d5c4:	3fdb571d 	.word	0x3fdb571d
 800d5c8:	3fffe5a2 	.word	0x3fffe5a2
 800d5cc:	40123a13 	.word	0x40123a13
 800d5d0:	40248156 	.word	0x40248156
 800d5d4:	3e4ccccd 	.word	0x3e4ccccd
 800d5d8:	0800f141 	.word	0x0800f141
 800d5dc:	0800dcbd 	.word	0x0800dcbd
 800d5e0:	0800efd9 	.word	0x0800efd9
 800d5e4:	0800daa1 	.word	0x0800daa1
 800d5e8:	0800f2a1 	.word	0x0800f2a1
 800d5ec:	0800df09 	.word	0x0800df09
 800d5f0:	0800f499 	.word	0x0800f499
 800d5f4:	0800e235 	.word	0x0800e235
 800d5f8:	0800f661 	.word	0x0800f661
 800d5fc:	0800e4e1 	.word	0x0800e4e1
    if ( CODEC2_MODE_ACTIVE(CODEC2_MODE_1200, c2->mode))
 800d600:	2a05      	cmp	r2, #5
 800d602:	d104      	bne.n	800d60e <codec2_create+0x3b6>
	c2->encode = codec2_encode_1200;
 800d604:	495f      	ldr	r1, [pc, #380]	; (800d784 <codec2_create+0x52c>)
	c2->decode = codec2_decode_1200;
 800d606:	4a60      	ldr	r2, [pc, #384]	; (800d788 <codec2_create+0x530>)
 800d608:	e9c3 1249 	strd	r1, r2, [r3, #292]	; 0x124
    if ( CODEC2_MODE_ACTIVE(CODEC2_MODE_450PWB, c2->mode))
 800d60c:	e78e      	b.n	800d52c <codec2_create+0x2d4>
    if ( CODEC2_MODE_ACTIVE(CODEC2_MODE_700C, c2->mode))
 800d60e:	2a08      	cmp	r2, #8
 800d610:	d104      	bne.n	800d61c <codec2_create+0x3c4>
	c2->encode = codec2_encode_700c;
 800d612:	495e      	ldr	r1, [pc, #376]	; (800d78c <codec2_create+0x534>)
	c2->decode = codec2_decode_700c;
 800d614:	4a5e      	ldr	r2, [pc, #376]	; (800d790 <codec2_create+0x538>)
 800d616:	e9c3 1249 	strd	r1, r2, [r3, #292]	; 0x124
    if ( CODEC2_MODE_ACTIVE(CODEC2_MODE_450PWB, c2->mode))
 800d61a:	e787      	b.n	800d52c <codec2_create+0x2d4>
    if ( CODEC2_MODE_ACTIVE(CODEC2_MODE_450, c2->mode))
 800d61c:	2a0a      	cmp	r2, #10
 800d61e:	d104      	bne.n	800d62a <codec2_create+0x3d2>
	c2->encode = codec2_encode_450;
 800d620:	495c      	ldr	r1, [pc, #368]	; (800d794 <codec2_create+0x53c>)
	c2->decode = codec2_decode_450;
 800d622:	4a5d      	ldr	r2, [pc, #372]	; (800d798 <codec2_create+0x540>)
 800d624:	e9c3 1249 	strd	r1, r2, [r3, #292]	; 0x124
    if ( CODEC2_MODE_ACTIVE(CODEC2_MODE_450PWB, c2->mode))
 800d628:	e780      	b.n	800d52c <codec2_create+0x2d4>
 800d62a:	2a0b      	cmp	r2, #11
 800d62c:	f47f af7e 	bne.w	800d52c <codec2_create+0x2d4>
	c2->encode = codec2_encode_450;
 800d630:	4958      	ldr	r1, [pc, #352]	; (800d794 <codec2_create+0x53c>)
	c2->decode = codec2_decode_450pwb;
 800d632:	4a5a      	ldr	r2, [pc, #360]	; (800d79c <codec2_create+0x544>)
 800d634:	e9c3 1249 	strd	r1, r2, [r3, #292]	; 0x124
 800d638:	e778      	b.n	800d52c <codec2_create+0x2d4>
        return NULL;
 800d63a:	2400      	movs	r4, #0
 800d63c:	e776      	b.n	800d52c <codec2_create+0x2d4>
        n2_mel_sample_freqs_kHz(c2->n2_pwb_rate_K_sample_freqs_kHz, NEWAMP2_16K_K);
 800d63e:	2128      	movs	r1, #40	; 0x28
 800d640:	f604 70dc 	addw	r0, r4, #4060	; 0xfdc
 800d644:	f00a faac 	bl	8017ba0 <n2_mel_sample_freqs_kHz>
            c2->n2_pwb_prev_rate_K_vec_[k] = 0.0;
 800d648:	f504 5083 	add.w	r0, r4, #4192	; 0x1060
 800d64c:	22a0      	movs	r2, #160	; 0xa0
 800d64e:	2100      	movs	r1, #0
 800d650:	301c      	adds	r0, #28
 800d652:	f016 fb97 	bl	8023d84 <memset>
        c2->Wo_left = 0.0;
 800d656:	f604 627c 	addw	r2, r4, #3708	; 0xe7c
        c2->voicing_left = 0;;
 800d65a:	2300      	movs	r3, #0
        c2->Wo_left = 0.0;
 800d65c:	2100      	movs	r1, #0
 800d65e:	6011      	str	r1, [r2, #0]
        c2->phase_fft_fwd_cfg = codec2_fft_alloc(NEWAMP2_PHASE_NFFT, 0, NULL, NULL);
 800d660:	2080      	movs	r0, #128	; 0x80
 800d662:	461a      	mov	r2, r3
 800d664:	4619      	mov	r1, r3
        c2->voicing_left = 0;;
 800d666:	f8c4 3e80 	str.w	r3, [r4, #3712]	; 0xe80
        c2->phase_fft_fwd_cfg = codec2_fft_alloc(NEWAMP2_PHASE_NFFT, 0, NULL, NULL);
 800d66a:	f002 fc29 	bl	800fec0 <codec2_fft_alloc>
        c2->phase_fft_inv_cfg = codec2_fft_alloc(NEWAMP2_PHASE_NFFT, 1, NULL, NULL);
 800d66e:	2300      	movs	r3, #0
        c2->phase_fft_fwd_cfg = codec2_fft_alloc(NEWAMP2_PHASE_NFFT, 0, NULL, NULL);
 800d670:	f8c4 0e84 	str.w	r0, [r4, #3716]	; 0xe84
        c2->phase_fft_inv_cfg = codec2_fft_alloc(NEWAMP2_PHASE_NFFT, 1, NULL, NULL);
 800d674:	461a      	mov	r2, r3
 800d676:	2101      	movs	r1, #1
 800d678:	2080      	movs	r0, #128	; 0x80
 800d67a:	f002 fc21 	bl	800fec0 <codec2_fft_alloc>
    if ( CODEC2_MODE_ACTIVE(CODEC2_MODE_3200, c2->mode))
 800d67e:	6822      	ldr	r2, [r4, #0]
        c2->phase_fft_inv_cfg = codec2_fft_alloc(NEWAMP2_PHASE_NFFT, 1, NULL, NULL);
 800d680:	f8c4 0e88 	str.w	r0, [r4, #3720]	; 0xe88
 800d684:	e740      	b.n	800d508 <codec2_create+0x2b0>
        mel_sample_freqs_kHz(c2->rate_K_sample_freqs_kHz, NEWAMP1_K, ftomel(200.0), ftomel(3700.0) );
 800d686:	ed9f 0a46 	vldr	s0, [pc, #280]	; 800d7a0 <codec2_create+0x548>
 800d68a:	f009 f9c1 	bl	8016a10 <ftomel>
 800d68e:	eeb0 8a40 	vmov.f32	s16, s0
 800d692:	ed9f 0a44 	vldr	s0, [pc, #272]	; 800d7a4 <codec2_create+0x54c>
 800d696:	f009 f9bb 	bl	8016a10 <ftomel>
 800d69a:	2114      	movs	r1, #20
 800d69c:	eef0 0a40 	vmov.f32	s1, s0
 800d6a0:	f604 50dc 	addw	r0, r4, #3548	; 0xddc
 800d6a4:	eeb0 0a48 	vmov.f32	s0, s16
 800d6a8:	f009 f9e6 	bl	8016a78 <mel_sample_freqs_kHz>
            c2->prev_rate_K_vec_[k] = 0.0;
 800d6ac:	2250      	movs	r2, #80	; 0x50
 800d6ae:	4629      	mov	r1, r5
 800d6b0:	f604 602c 	addw	r0, r4, #3628	; 0xe2c
 800d6b4:	f016 fb66 	bl	8023d84 <memset>
            c2->eq[k] = 0.0;
 800d6b8:	2250      	movs	r2, #80	; 0x50
 800d6ba:	4629      	mov	r1, r5
 800d6bc:	f604 609c 	addw	r0, r4, #3740	; 0xe9c
 800d6c0:	f016 fb60 	bl	8023d84 <memset>
        c2->Wo_left = 0.0;
 800d6c4:	f604 637c 	addw	r3, r4, #3708	; 0xe7c
 800d6c8:	2200      	movs	r2, #0
        c2->eq_en = 0;
 800d6ca:	f8c4 5eec 	str.w	r5, [r4, #3820]	; 0xeec
        c2->phase_fft_fwd_cfg = codec2_fft_alloc(NEWAMP1_PHASE_NFFT, 0, NULL, NULL);
 800d6ce:	4629      	mov	r1, r5
        c2->Wo_left = 0.0;
 800d6d0:	601a      	str	r2, [r3, #0]
        c2->phase_fft_fwd_cfg = codec2_fft_alloc(NEWAMP1_PHASE_NFFT, 0, NULL, NULL);
 800d6d2:	2080      	movs	r0, #128	; 0x80
 800d6d4:	462b      	mov	r3, r5
 800d6d6:	462a      	mov	r2, r5
        c2->voicing_left = 0;;
 800d6d8:	f8c4 5e80 	str.w	r5, [r4, #3712]	; 0xe80
        c2->phase_fft_fwd_cfg = codec2_fft_alloc(NEWAMP1_PHASE_NFFT, 0, NULL, NULL);
 800d6dc:	f002 fbf0 	bl	800fec0 <codec2_fft_alloc>
        c2->phase_fft_inv_cfg = codec2_fft_alloc(NEWAMP1_PHASE_NFFT, 1, NULL, NULL);
 800d6e0:	462a      	mov	r2, r5
        c2->phase_fft_fwd_cfg = codec2_fft_alloc(NEWAMP1_PHASE_NFFT, 0, NULL, NULL);
 800d6e2:	f8c4 0e84 	str.w	r0, [r4, #3716]	; 0xe84
        c2->phase_fft_inv_cfg = codec2_fft_alloc(NEWAMP1_PHASE_NFFT, 1, NULL, NULL);
 800d6e6:	462b      	mov	r3, r5
 800d6e8:	4631      	mov	r1, r6
 800d6ea:	2080      	movs	r0, #128	; 0x80
 800d6ec:	f002 fbe8 	bl	800fec0 <codec2_fft_alloc>
    if ( CODEC2_MODE_ACTIVE(CODEC2_MODE_450, c2->mode)) {
 800d6f0:	6822      	ldr	r2, [r4, #0]
        c2->phase_fft_inv_cfg = codec2_fft_alloc(NEWAMP1_PHASE_NFFT, 1, NULL, NULL);
 800d6f2:	f8c4 0e88 	str.w	r0, [r4, #3720]	; 0xe88
    if ( CODEC2_MODE_ACTIVE(CODEC2_MODE_450, c2->mode)) {
 800d6f6:	2a0a      	cmp	r2, #10
 800d6f8:	f47f af03 	bne.w	800d502 <codec2_create+0x2aa>
        n2_mel_sample_freqs_kHz(c2->n2_rate_K_sample_freqs_kHz, NEWAMP2_K);
 800d6fc:	211d      	movs	r1, #29
 800d6fe:	f604 60f4 	addw	r0, r4, #3828	; 0xef4
 800d702:	f00a fa4d 	bl	8017ba0 <n2_mel_sample_freqs_kHz>
            c2->n2_prev_rate_K_vec_[k] = 0.0;
 800d706:	2274      	movs	r2, #116	; 0x74
 800d708:	2100      	movs	r1, #0
 800d70a:	f604 7068 	addw	r0, r4, #3944	; 0xf68
 800d70e:	f016 fb39 	bl	8023d84 <memset>
        c2->Wo_left = 0.0;
 800d712:	f604 627c 	addw	r2, r4, #3708	; 0xe7c
        c2->voicing_left = 0;;
 800d716:	2300      	movs	r3, #0
        c2->Wo_left = 0.0;
 800d718:	2100      	movs	r1, #0
 800d71a:	6011      	str	r1, [r2, #0]
        c2->phase_fft_fwd_cfg = codec2_fft_alloc(NEWAMP2_PHASE_NFFT, 0, NULL, NULL);
 800d71c:	2080      	movs	r0, #128	; 0x80
 800d71e:	461a      	mov	r2, r3
 800d720:	4619      	mov	r1, r3
        c2->voicing_left = 0;;
 800d722:	f8c4 3e80 	str.w	r3, [r4, #3712]	; 0xe80
        c2->phase_fft_fwd_cfg = codec2_fft_alloc(NEWAMP2_PHASE_NFFT, 0, NULL, NULL);
 800d726:	f002 fbcb 	bl	800fec0 <codec2_fft_alloc>
        c2->phase_fft_inv_cfg = codec2_fft_alloc(NEWAMP2_PHASE_NFFT, 1, NULL, NULL);
 800d72a:	2300      	movs	r3, #0
        c2->phase_fft_fwd_cfg = codec2_fft_alloc(NEWAMP2_PHASE_NFFT, 0, NULL, NULL);
 800d72c:	f8c4 0e84 	str.w	r0, [r4, #3716]	; 0xe84
        c2->phase_fft_inv_cfg = codec2_fft_alloc(NEWAMP2_PHASE_NFFT, 1, NULL, NULL);
 800d730:	461a      	mov	r2, r3
 800d732:	2101      	movs	r1, #1
 800d734:	2080      	movs	r0, #128	; 0x80
 800d736:	f002 fbc3 	bl	800fec0 <codec2_fft_alloc>
    if ( CODEC2_MODE_ACTIVE(CODEC2_MODE_450PWB, c2->mode)) {
 800d73a:	6822      	ldr	r2, [r4, #0]
        c2->phase_fft_inv_cfg = codec2_fft_alloc(NEWAMP2_PHASE_NFFT, 1, NULL, NULL);
 800d73c:	f8c4 0e88 	str.w	r0, [r4, #3720]	; 0xe88
 800d740:	e6df      	b.n	800d502 <codec2_create+0x2aa>
        FREE(c2->Pn);
 800d742:	4640      	mov	r0, r8
 800d744:	f016 f8b2 	bl	80238ac <free>
        FREE(c2->Sn_);
 800d748:	4648      	mov	r0, r9
 800d74a:	f016 f8af 	bl	80238ac <free>
	return NULL;
 800d74e:	4654      	mov	r4, sl
 800d750:	e6ec      	b.n	800d52c <codec2_create+0x2d4>
        FREE(c2->Pn);
 800d752:	4640      	mov	r0, r8
 800d754:	f016 f8aa 	bl	80238ac <free>
	return NULL;
 800d758:	464c      	mov	r4, r9
 800d75a:	e6e7      	b.n	800d52c <codec2_create+0x2d4>
    assert(c2->bpf_buf != NULL);
 800d75c:	4b12      	ldr	r3, [pc, #72]	; (800d7a8 <codec2_create+0x550>)
 800d75e:	4a13      	ldr	r2, [pc, #76]	; (800d7ac <codec2_create+0x554>)
 800d760:	4813      	ldr	r0, [pc, #76]	; (800d7b0 <codec2_create+0x558>)
 800d762:	21d5      	movs	r1, #213	; 0xd5
 800d764:	f015 ff12 	bl	802358c <__assert_func>
 800d768:	9001      	str	r0, [sp, #4]
        FREE(c2->Pn);
 800d76a:	4640      	mov	r0, r8
 800d76c:	f016 f89e 	bl	80238ac <free>
        FREE(c2->Sn_);
 800d770:	4648      	mov	r0, r9
 800d772:	f016 f89b 	bl	80238ac <free>
        FREE(c2->w);
 800d776:	4650      	mov	r0, sl
 800d778:	f016 f898 	bl	80238ac <free>
	return NULL;
 800d77c:	9b01      	ldr	r3, [sp, #4]
 800d77e:	461c      	mov	r4, r3
 800d780:	e6d4      	b.n	800d52c <codec2_create+0x2d4>
 800d782:	bf00      	nop
 800d784:	0800f839 	.word	0x0800f839
 800d788:	0800e889 	.word	0x0800e889
 800d78c:	0800fa11 	.word	0x0800fa11
 800d790:	0800eb39 	.word	0x0800eb39
 800d794:	0800fb69 	.word	0x0800fb69
 800d798:	0800ecfd 	.word	0x0800ecfd
 800d79c:	0800eddd 	.word	0x0800eddd
 800d7a0:	43480000 	.word	0x43480000
 800d7a4:	45674000 	.word	0x45674000
 800d7a8:	0804cb54 	.word	0x0804cb54
 800d7ac:	0804cd00 	.word	0x0804cd00
 800d7b0:	0804cb40 	.word	0x0804cb40

0800d7b4 <codec2_destroy>:
{
 800d7b4:	b510      	push	{r4, lr}
    assert(c2 != NULL);
 800d7b6:	2800      	cmp	r0, #0
 800d7b8:	d04c      	beq.n	800d854 <codec2_destroy+0xa0>
    FREE(c2->bpf_buf);
 800d7ba:	4604      	mov	r4, r0
 800d7bc:	f8d0 0848 	ldr.w	r0, [r0, #2120]	; 0x848
 800d7c0:	f016 f874 	bl	80238ac <free>
    nlp_destroy(c2->nlp);
 800d7c4:	f8d4 0858 	ldr.w	r0, [r4, #2136]	; 0x858
 800d7c8:	f00a feb4 	bl	8018534 <nlp_destroy>
    codec2_fft_free(c2->fft_fwd_cfg);
 800d7cc:	6ba0      	ldr	r0, [r4, #56]	; 0x38
 800d7ce:	f002 fb75 	bl	800febc <codec2_fft_free>
    codec2_fftr_free(c2->fftr_fwd_cfg);
 800d7d2:	6be0      	ldr	r0, [r4, #60]	; 0x3c
 800d7d4:	f002 fb78 	bl	800fec8 <codec2_fftr_free>
    codec2_fftr_free(c2->fftr_inv_cfg);
 800d7d8:	f8d4 0860 	ldr.w	r0, [r4, #2144]	; 0x860
 800d7dc:	f002 fb74 	bl	800fec8 <codec2_fftr_free>
    if ( CODEC2_MODE_ACTIVE(CODEC2_MODE_700C, c2->mode)) {
 800d7e0:	6823      	ldr	r3, [r4, #0]
 800d7e2:	2b08      	cmp	r3, #8
 800d7e4:	d017      	beq.n	800d816 <codec2_destroy+0x62>
    if ( CODEC2_MODE_ACTIVE(CODEC2_MODE_450, c2->mode)) {
 800d7e6:	2b0a      	cmp	r3, #10
 800d7e8:	d020      	beq.n	800d82c <codec2_destroy+0x78>
    if ( CODEC2_MODE_ACTIVE(CODEC2_MODE_450PWB, c2->mode)) {
 800d7ea:	2b0b      	cmp	r3, #11
 800d7ec:	d029      	beq.n	800d842 <codec2_destroy+0x8e>
    FREE(c2->Pn);
 800d7ee:	f8d4 0844 	ldr.w	r0, [r4, #2116]	; 0x844
 800d7f2:	f016 f85b 	bl	80238ac <free>
    FREE(c2->Sn);
 800d7f6:	f8d4 084c 	ldr.w	r0, [r4, #2124]	; 0x84c
 800d7fa:	f016 f857 	bl	80238ac <free>
    FREE(c2->w);
 800d7fe:	6c20      	ldr	r0, [r4, #64]	; 0x40
 800d800:	f016 f854 	bl	80238ac <free>
    FREE(c2->Sn_);
 800d804:	f8d4 0864 	ldr.w	r0, [r4, #2148]	; 0x864
 800d808:	f016 f850 	bl	80238ac <free>
    FREE(c2);
 800d80c:	4620      	mov	r0, r4
}
 800d80e:	e8bd 4010 	ldmia.w	sp!, {r4, lr}
    FREE(c2);
 800d812:	f016 b84b 	b.w	80238ac <free>
        codec2_fft_free(c2->phase_fft_fwd_cfg);
 800d816:	f8d4 0e84 	ldr.w	r0, [r4, #3716]	; 0xe84
 800d81a:	f002 fb4f 	bl	800febc <codec2_fft_free>
        codec2_fft_free(c2->phase_fft_inv_cfg);
 800d81e:	f8d4 0e88 	ldr.w	r0, [r4, #3720]	; 0xe88
 800d822:	f002 fb4b 	bl	800febc <codec2_fft_free>
    if ( CODEC2_MODE_ACTIVE(CODEC2_MODE_450, c2->mode)) {
 800d826:	6823      	ldr	r3, [r4, #0]
 800d828:	2b0a      	cmp	r3, #10
 800d82a:	d1de      	bne.n	800d7ea <codec2_destroy+0x36>
        codec2_fft_free(c2->phase_fft_fwd_cfg);
 800d82c:	f8d4 0e84 	ldr.w	r0, [r4, #3716]	; 0xe84
 800d830:	f002 fb44 	bl	800febc <codec2_fft_free>
        codec2_fft_free(c2->phase_fft_inv_cfg);
 800d834:	f8d4 0e88 	ldr.w	r0, [r4, #3720]	; 0xe88
 800d838:	f002 fb40 	bl	800febc <codec2_fft_free>
    if ( CODEC2_MODE_ACTIVE(CODEC2_MODE_450PWB, c2->mode)) {
 800d83c:	6823      	ldr	r3, [r4, #0]
 800d83e:	2b0b      	cmp	r3, #11
 800d840:	d1d5      	bne.n	800d7ee <codec2_destroy+0x3a>
        codec2_fft_free(c2->phase_fft_fwd_cfg);
 800d842:	f8d4 0e84 	ldr.w	r0, [r4, #3716]	; 0xe84
 800d846:	f002 fb39 	bl	800febc <codec2_fft_free>
        codec2_fft_free(c2->phase_fft_inv_cfg);
 800d84a:	f8d4 0e88 	ldr.w	r0, [r4, #3720]	; 0xe88
 800d84e:	f002 fb35 	bl	800febc <codec2_fft_free>
 800d852:	e7cc      	b.n	800d7ee <codec2_destroy+0x3a>
    assert(c2 != NULL);
 800d854:	4b03      	ldr	r3, [pc, #12]	; (800d864 <codec2_destroy+0xb0>)
 800d856:	4a04      	ldr	r2, [pc, #16]	; (800d868 <codec2_destroy+0xb4>)
 800d858:	4804      	ldr	r0, [pc, #16]	; (800d86c <codec2_destroy+0xb8>)
 800d85a:	f240 1157 	movw	r1, #343	; 0x157
 800d85e:	f015 fe95 	bl	802358c <__assert_func>
 800d862:	bf00      	nop
 800d864:	0804cb68 	.word	0x0804cb68
 800d868:	0804ccf0 	.word	0x0804ccf0
 800d86c:	0804cb40 	.word	0x0804cb40

0800d870 <codec2_bits_per_frame>:
    if ( CODEC2_MODE_ACTIVE(CODEC2_MODE_3200, c2->mode))
 800d870:	6803      	ldr	r3, [r0, #0]
 800d872:	b193      	cbz	r3, 800d89a <codec2_bits_per_frame+0x2a>
    if ( CODEC2_MODE_ACTIVE(CODEC2_MODE_2400, c2->mode))
 800d874:	2b01      	cmp	r3, #1
 800d876:	d014      	beq.n	800d8a2 <codec2_bits_per_frame+0x32>
    if  ( CODEC2_MODE_ACTIVE(CODEC2_MODE_1600, c2->mode))
 800d878:	2b02      	cmp	r3, #2
 800d87a:	d00e      	beq.n	800d89a <codec2_bits_per_frame+0x2a>
    if  ( CODEC2_MODE_ACTIVE(CODEC2_MODE_1400, c2->mode))
 800d87c:	2b03      	cmp	r3, #3
 800d87e:	d012      	beq.n	800d8a6 <codec2_bits_per_frame+0x36>
    if  ( CODEC2_MODE_ACTIVE(CODEC2_MODE_1300, c2->mode))
 800d880:	2b04      	cmp	r3, #4
 800d882:	d00c      	beq.n	800d89e <codec2_bits_per_frame+0x2e>
    if  ( CODEC2_MODE_ACTIVE(CODEC2_MODE_1200, c2->mode))
 800d884:	2b05      	cmp	r3, #5
 800d886:	d00c      	beq.n	800d8a2 <codec2_bits_per_frame+0x32>
    if  ( CODEC2_MODE_ACTIVE(CODEC2_MODE_700C, c2->mode))
 800d888:	2b08      	cmp	r3, #8
 800d88a:	d00e      	beq.n	800d8aa <codec2_bits_per_frame+0x3a>
    if  ( CODEC2_MODE_ACTIVE(CODEC2_MODE_450, c2->mode))
 800d88c:	2b0a      	cmp	r3, #10
 800d88e:	d00e      	beq.n	800d8ae <codec2_bits_per_frame+0x3e>
    return 0; /* shouldn't get here */   
 800d890:	2b0b      	cmp	r3, #11
 800d892:	bf0c      	ite	eq
 800d894:	2012      	moveq	r0, #18
 800d896:	2000      	movne	r0, #0
 800d898:	4770      	bx	lr
	return 64;
 800d89a:	2040      	movs	r0, #64	; 0x40
 800d89c:	4770      	bx	lr
	return 52;
 800d89e:	2034      	movs	r0, #52	; 0x34
 800d8a0:	4770      	bx	lr
	return 48;
 800d8a2:	2030      	movs	r0, #48	; 0x30
 800d8a4:	4770      	bx	lr
	return 56;
 800d8a6:	2038      	movs	r0, #56	; 0x38
 800d8a8:	4770      	bx	lr
	return 28;
 800d8aa:	201c      	movs	r0, #28
 800d8ac:	4770      	bx	lr
	return 18;
 800d8ae:	2012      	movs	r0, #18
}
 800d8b0:	4770      	bx	lr
 800d8b2:	bf00      	nop

0800d8b4 <codec2_samples_per_frame>:
    if ( CODEC2_MODE_ACTIVE(CODEC2_MODE_3200, c2->mode))
 800d8b4:	6803      	ldr	r3, [r0, #0]
 800d8b6:	2b01      	cmp	r3, #1
 800d8b8:	d90c      	bls.n	800d8d4 <codec2_samples_per_frame+0x20>
    if  ( CODEC2_MODE_ACTIVE(CODEC2_MODE_1600, c2->mode))
 800d8ba:	1e9a      	subs	r2, r3, #2
 800d8bc:	2a03      	cmp	r2, #3
 800d8be:	d90b      	bls.n	800d8d8 <codec2_samples_per_frame+0x24>
    if  ( CODEC2_MODE_ACTIVE(CODEC2_MODE_700C, c2->mode))
 800d8c0:	f023 0202 	bic.w	r2, r3, #2
 800d8c4:	2a08      	cmp	r2, #8
 800d8c6:	d007      	beq.n	800d8d8 <codec2_samples_per_frame+0x24>
	return 640;
 800d8c8:	2b0b      	cmp	r3, #11
 800d8ca:	bf14      	ite	ne
 800d8cc:	2000      	movne	r0, #0
 800d8ce:	f44f 7020 	moveq.w	r0, #640	; 0x280
 800d8d2:	4770      	bx	lr
	return 160;
 800d8d4:	20a0      	movs	r0, #160	; 0xa0
 800d8d6:	4770      	bx	lr
	return 320;
 800d8d8:	f44f 70a0 	mov.w	r0, #320	; 0x140
}
 800d8dc:	4770      	bx	lr
 800d8de:	bf00      	nop

0800d8e0 <codec2_encode>:
{
 800d8e0:	b510      	push	{r4, lr}
    assert(c2 != NULL);
 800d8e2:	b138      	cbz	r0, 800d8f4 <codec2_encode+0x14>
    assert(c2->encode != NULL);
 800d8e4:	f500 5380 	add.w	r3, r0, #4096	; 0x1000
 800d8e8:	f8d3 3124 	ldr.w	r3, [r3, #292]	; 0x124
 800d8ec:	b14b      	cbz	r3, 800d902 <codec2_encode+0x22>
}
 800d8ee:	e8bd 4010 	ldmia.w	sp!, {r4, lr}
    c2->encode(c2, bytes, speech);
 800d8f2:	4718      	bx	r3
    assert(c2 != NULL);
 800d8f4:	4b06      	ldr	r3, [pc, #24]	; (800d910 <codec2_encode+0x30>)
 800d8f6:	4a07      	ldr	r2, [pc, #28]	; (800d914 <codec2_encode+0x34>)
 800d8f8:	4807      	ldr	r0, [pc, #28]	; (800d918 <codec2_encode+0x38>)
 800d8fa:	f44f 71e8 	mov.w	r1, #464	; 0x1d0
 800d8fe:	f015 fe45 	bl	802358c <__assert_func>
    assert(c2->encode != NULL);
 800d902:	4b06      	ldr	r3, [pc, #24]	; (800d91c <codec2_encode+0x3c>)
 800d904:	4a03      	ldr	r2, [pc, #12]	; (800d914 <codec2_encode+0x34>)
 800d906:	4804      	ldr	r0, [pc, #16]	; (800d918 <codec2_encode+0x38>)
 800d908:	f240 11d1 	movw	r1, #465	; 0x1d1
 800d90c:	f015 fe3e 	bl	802358c <__assert_func>
 800d910:	0804cb68 	.word	0x0804cb68
 800d914:	0804cce0 	.word	0x0804cce0
 800d918:	0804cb40 	.word	0x0804cb40
 800d91c:	0804cb74 	.word	0x0804cb74

0800d920 <codec2_decode>:
{
 800d920:	b510      	push	{r4, lr}
    assert(c2 != NULL);
 800d922:	b180      	cbz	r0, 800d946 <codec2_decode+0x26>
    assert(c2->decode != NULL || c2->decode_ber != NULL);
 800d924:	f500 5380 	add.w	r3, r0, #4096	; 0x1000
 800d928:	f8d3 4128 	ldr.w	r4, [r3, #296]	; 0x128
 800d92c:	b11c      	cbz	r4, 800d936 <codec2_decode+0x16>

    if (c2->decode != NULL)
    {
	c2->decode(c2, speech, bits);
 800d92e:	4623      	mov	r3, r4
}
 800d930:	e8bd 4010 	ldmia.w	sp!, {r4, lr}
	c2->decode(c2, speech, bits);
 800d934:	4718      	bx	r3
    assert(c2->decode != NULL || c2->decode_ber != NULL);
 800d936:	f8d3 312c 	ldr.w	r3, [r3, #300]	; 0x12c
 800d93a:	b15b      	cbz	r3, 800d954 <codec2_decode+0x34>
}
 800d93c:	e8bd 4010 	ldmia.w	sp!, {r4, lr}
    }
    else
    {
	c2->decode_ber(c2, speech, bits, ber_est);
 800d940:	ed9f 0a05 	vldr	s0, [pc, #20]	; 800d958 <codec2_decode+0x38>
 800d944:	4718      	bx	r3
    assert(c2 != NULL);
 800d946:	4b05      	ldr	r3, [pc, #20]	; (800d95c <codec2_decode+0x3c>)
 800d948:	4a05      	ldr	r2, [pc, #20]	; (800d960 <codec2_decode+0x40>)
 800d94a:	4806      	ldr	r0, [pc, #24]	; (800d964 <codec2_decode+0x44>)
 800d94c:	f240 11e9 	movw	r1, #489	; 0x1e9
 800d950:	f015 fe1c 	bl	802358c <__assert_func>
 800d954:	f7ff fc72 	bl	800d23c <codec2_decode_ber.part.0>
 800d958:	00000000 	.word	0x00000000
 800d95c:	0804cb68 	.word	0x0804cb68
 800d960:	0804cccc 	.word	0x0804cccc
 800d964:	0804cb40 	.word	0x0804cb40

0800d968 <synthesise_one_frame>:
  Synthesise 80 speech samples (10ms) from model parameters.

\*---------------------------------------------------------------------------*/

void synthesise_one_frame(struct CODEC2 *c2, short speech[], MODEL *model, COMP Aw[], float gain)
{
 800d968:	b570      	push	{r4, r5, r6, lr}
 800d96a:	4605      	mov	r5, r0
 800d96c:	ed2d 8b02 	vpush	{d8}
    int     i;

    if ( CODEC2_MODE_ACTIVE(CODEC2_MODE_700C, c2->mode) || CODEC2_MODE_ACTIVE(CODEC2_MODE_450, c2->mode) || CODEC2_MODE_ACTIVE(CODEC2_MODE_450PWB, c2->mode)  ) {
 800d970:	6800      	ldr	r0, [r0, #0]
 800d972:	2808      	cmp	r0, #8
{
 800d974:	f5ad 6da2 	sub.w	sp, sp, #1296	; 0x510
 800d978:	eeb0 8a40 	vmov.f32	s16, s0
 800d97c:	460c      	mov	r4, r1
 800d97e:	4616      	mov	r6, r2
    if ( CODEC2_MODE_ACTIVE(CODEC2_MODE_700C, c2->mode) || CODEC2_MODE_ACTIVE(CODEC2_MODE_450, c2->mode) || CODEC2_MODE_ACTIVE(CODEC2_MODE_450PWB, c2->mode)  ) {
 800d980:	d008      	beq.n	800d994 <synthesise_one_frame+0x2c>
 800d982:	380a      	subs	r0, #10
 800d984:	2801      	cmp	r0, #1
 800d986:	d905      	bls.n	800d994 <synthesise_one_frame+0x2c>
        COMP *H = Aw;
        phase_synth_zero_order(c2->n_samp, model, &c2->ex_phase, H);       
    } else {
        /* LPC based phase synthesis */
        COMP H[MAX_AMP+1];
        sample_phase(model, H, Aw);
 800d988:	461a      	mov	r2, r3
 800d98a:	a902      	add	r1, sp, #8
 800d98c:	4630      	mov	r0, r6
 800d98e:	f00c fd91 	bl	801a4b4 <sample_phase>
        phase_synth_zero_order(c2->n_samp, model, &c2->ex_phase, H);
 800d992:	ab02      	add	r3, sp, #8
 800d994:	f605 0268 	addw	r2, r5, #2152	; 0x868
 800d998:	4631      	mov	r1, r6
 800d99a:	6b28      	ldr	r0, [r5, #48]	; 0x30
 800d99c:	f00c fdc4 	bl	801a528 <phase_synth_zero_order>
    }

    postfilter(model, &c2->bg_est);
 800d9a0:	4630      	mov	r0, r6
 800d9a2:	f605 016c 	addw	r1, r5, #2156	; 0x86c
 800d9a6:	f00c ff43 	bl	801a830 <postfilter>
    synthesise(c2->n_samp, c2->fftr_inv_cfg, c2->Sn_, model, c2->Pn, 1);
 800d9aa:	2201      	movs	r2, #1
 800d9ac:	f8d5 3844 	ldr.w	r3, [r5, #2116]	; 0x844
 800d9b0:	9201      	str	r2, [sp, #4]
 800d9b2:	f8d5 2864 	ldr.w	r2, [r5, #2148]	; 0x864
 800d9b6:	9300      	str	r3, [sp, #0]
 800d9b8:	f8d5 1860 	ldr.w	r1, [r5, #2144]	; 0x860
 800d9bc:	6b28      	ldr	r0, [r5, #48]	; 0x30
 800d9be:	4633      	mov	r3, r6
 800d9c0:	f00f fa7e 	bl	801cec0 <synthesise>

    for(i=0; i<c2->n_samp; i++) {
 800d9c4:	6b2e      	ldr	r6, [r5, #48]	; 0x30
 800d9c6:	2e00      	cmp	r6, #0
 800d9c8:	dd5c      	ble.n	800da84 <synthesise_one_frame+0x11c>
        c2->Sn_[i] *= gain;
 800d9ca:	f8d5 2864 	ldr.w	r2, [r5, #2148]	; 0x864
 800d9ce:	4610      	mov	r0, r2
 800d9d0:	eb02 0186 	add.w	r1, r2, r6, lsl #2
 800d9d4:	4613      	mov	r3, r2
 800d9d6:	edd3 7a00 	vldr	s15, [r3]
 800d9da:	ee67 7a88 	vmul.f32	s15, s15, s16
 800d9de:	ece3 7a01 	vstmia	r3!, {s15}
    for(i=0; i<c2->n_samp; i++) {
 800d9e2:	428b      	cmp	r3, r1
 800d9e4:	d1f7      	bne.n	800d9d6 <synthesise_one_frame+0x6e>
 800d9e6:	eddf 7a2a 	vldr	s15, [pc, #168]	; 800da90 <synthesise_one_frame+0x128>
 800d9ea:	4613      	mov	r3, r2

    /* find maximum sample in frame */

    max_sample = 0.0;
    for(i=0; i<n; i++)
        if (in_out[i] > max_sample)
 800d9ec:	ecb3 7a01 	vldmia	r3!, {s14}
 800d9f0:	eeb4 7a67 	vcmp.f32	s14, s15
 800d9f4:	eef1 fa10 	vmrs	APSR_nzcv, fpscr
 800d9f8:	bfc8      	it	gt
 800d9fa:	eef0 7a47 	vmovgt.f32	s15, s14
    for(i=0; i<n; i++)
 800d9fe:	428b      	cmp	r3, r1
 800da00:	d1f4      	bne.n	800d9ec <synthesise_one_frame+0x84>
            max_sample = in_out[i];

    /* determine how far above set point */

    over = max_sample/30000.0;
 800da02:	ed9f 6a24 	vldr	s12, [pc, #144]	; 800da94 <synthesise_one_frame+0x12c>
 800da06:	ee87 7a86 	vdiv.f32	s14, s15, s12

    /* If we are x dB over set point we reduce level by 2x dB, this
       attenuates major excursions in amplitude (likely to be caused
       by bit errors) more than smaller ones */

    if (over > 1.0) {
 800da0a:	eef7 6a00 	vmov.f32	s13, #112	; 0x3f800000  1.0
 800da0e:	eeb4 7ae6 	vcmpe.f32	s14, s13
 800da12:	eef1 fa10 	vmrs	APSR_nzcv, fpscr
 800da16:	dd0b      	ble.n	800da30 <synthesise_one_frame+0xc8>
        gain = 1.0/(over*over);
 800da18:	ee67 7a07 	vmul.f32	s15, s14, s14
 800da1c:	ee86 7aa7 	vdiv.f32	s14, s13, s15
        for(i=0; i<n; i++)
            in_out[i] *= gain;
 800da20:	edd0 7a00 	vldr	s15, [r0]
 800da24:	ee67 7a27 	vmul.f32	s15, s14, s15
 800da28:	ece0 7a01 	vstmia	r0!, {s15}
        for(i=0; i<n; i++)
 800da2c:	4288      	cmp	r0, r1
 800da2e:	d1f7      	bne.n	800da20 <synthesise_one_frame+0xb8>
 800da30:	4621      	mov	r1, r4
	if (c2->Sn_[i] > 32767.0)
 800da32:	ed9f 7a19 	vldr	s14, [pc, #100]	; 800da98 <synthesise_one_frame+0x130>
	else if (c2->Sn_[i] < -32767.0)
 800da36:	eddf 6a19 	vldr	s13, [pc, #100]	; 800da9c <synthesise_one_frame+0x134>
        if (in_out[i] > max_sample)
 800da3a:	2300      	movs	r3, #0
	    speech[i] = -32767;
 800da3c:	f248 0401 	movw	r4, #32769	; 0x8001
	    speech[i] = 32767;
 800da40:	f647 70ff 	movw	r0, #32767	; 0x7fff
 800da44:	e005      	b.n	800da52 <synthesise_one_frame+0xea>
    for(i=0; i<c2->n_samp; i++) {
 800da46:	3301      	adds	r3, #1
 800da48:	42b3      	cmp	r3, r6
	    speech[i] = 32767;
 800da4a:	8008      	strh	r0, [r1, #0]
    for(i=0; i<c2->n_samp; i++) {
 800da4c:	f101 0102 	add.w	r1, r1, #2
 800da50:	da18      	bge.n	800da84 <synthesise_one_frame+0x11c>
	if (c2->Sn_[i] > 32767.0)
 800da52:	ecf2 7a01 	vldmia	r2!, {s15}
 800da56:	eef4 7ac7 	vcmpe.f32	s15, s14
 800da5a:	eef1 fa10 	vmrs	APSR_nzcv, fpscr
 800da5e:	dcf2      	bgt.n	800da46 <synthesise_one_frame+0xde>
	else if (c2->Sn_[i] < -32767.0)
 800da60:	eef4 7ae6 	vcmpe.f32	s15, s13
 800da64:	eef1 fa10 	vmrs	APSR_nzcv, fpscr
	    speech[i] = c2->Sn_[i];
 800da68:	bf58      	it	pl
 800da6a:	eefd 7ae7 	vcvtpl.s32.f32	s15, s15
    for(i=0; i<c2->n_samp; i++) {
 800da6e:	f103 0301 	add.w	r3, r3, #1
	    speech[i] = c2->Sn_[i];
 800da72:	bf56      	itet	pl
 800da74:	ee17 5a90 	vmovpl	r5, s15
	    speech[i] = -32767;
 800da78:	800c      	strhmi	r4, [r1, #0]
	    speech[i] = c2->Sn_[i];
 800da7a:	800d      	strhpl	r5, [r1, #0]
    for(i=0; i<c2->n_samp; i++) {
 800da7c:	42b3      	cmp	r3, r6
 800da7e:	f101 0102 	add.w	r1, r1, #2
 800da82:	dbe6      	blt.n	800da52 <synthesise_one_frame+0xea>
}
 800da84:	f50d 6da2 	add.w	sp, sp, #1296	; 0x510
 800da88:	ecbd 8b02 	vpop	{d8}
 800da8c:	bd70      	pop	{r4, r5, r6, pc}
 800da8e:	bf00      	nop
 800da90:	00000000 	.word	0x00000000
 800da94:	46ea6000 	.word	0x46ea6000
 800da98:	46fffe00 	.word	0x46fffe00
 800da9c:	c6fffe00 	.word	0xc6fffe00

0800daa0 <codec2_decode_3200>:
{
 800daa0:	e92d 4ff0 	stmdb	sp!, {r4, r5, r6, r7, r8, r9, sl, fp, lr}
 800daa4:	ed2d 8b02 	vpush	{d8}
 800daa8:	f5ad 5dd9 	sub.w	sp, sp, #6944	; 0x1b20
 800daac:	b087      	sub	sp, #28
    unsigned int nbit = 0;
 800daae:	ab0d      	add	r3, sp, #52	; 0x34
{
 800dab0:	9107      	str	r1, [sp, #28]
    unsigned int nbit = 0;
 800dab2:	2100      	movs	r1, #0
 800dab4:	6019      	str	r1, [r3, #0]
    assert(c2 != NULL);
 800dab6:	2800      	cmp	r0, #0
 800dab8:	f000 80ed 	beq.w	800dc96 <codec2_decode_3200+0x1f6>
 800dabc:	4617      	mov	r7, r2
 800dabe:	4604      	mov	r4, r0
	    model[i].A[j] = 0.0;
 800dac0:	f44f 7220 	mov.w	r2, #640	; 0x280
 800dac4:	a847      	add	r0, sp, #284	; 0x11c
 800dac6:	f016 f95d 	bl	8023d84 <memset>
 800daca:	2100      	movs	r1, #0
 800dacc:	f44f 7220 	mov.w	r2, #640	; 0x280
 800dad0:	f50d 60c6 	add.w	r0, sp, #1584	; 0x630
    for(i=0; i<LSPD_SCALAR_INDEXES; i++) {
 800dad4:	460e      	mov	r6, r1
	    model[i].A[j] = 0.0;
 800dad6:	f016 f955 	bl	8023d84 <memset>
    model[0].voiced = unpack(bits, &nbit, 1);
 800dada:	2201      	movs	r2, #1
 800dadc:	a90d      	add	r1, sp, #52	; 0x34
 800dade:	4638      	mov	r0, r7
 800dae0:	f50d 7888 	add.w	r8, sp, #272	; 0x110
 800dae4:	f00c fc8c 	bl	801a400 <unpack>
    model[1].voiced = unpack(bits, &nbit, 1);
 800dae8:	2201      	movs	r2, #1
    model[0].voiced = unpack(bits, &nbit, 1);
 800daea:	f8c8 0510 	str.w	r0, [r8, #1296]	; 0x510
    model[1].voiced = unpack(bits, &nbit, 1);
 800daee:	a90d      	add	r1, sp, #52	; 0x34
 800daf0:	4638      	mov	r0, r7
 800daf2:	f00c fc85 	bl	801a400 <unpack>
    Wo_index = unpack(bits, &nbit, WO_BITS);
 800daf6:	2207      	movs	r2, #7
    model[1].voiced = unpack(bits, &nbit, 1);
 800daf8:	f8c8 0a24 	str.w	r0, [r8, #2596]	; 0xa24
    Wo_index = unpack(bits, &nbit, WO_BITS);
 800dafc:	a90d      	add	r1, sp, #52	; 0x34
 800dafe:	4638      	mov	r0, r7
 800db00:	f00c fc7e 	bl	801a400 <unpack>
    model[1].Wo = decode_Wo(&c2->c2const, Wo_index, WO_BITS);
 800db04:	2207      	movs	r2, #7
    Wo_index = unpack(bits, &nbit, WO_BITS);
 800db06:	4601      	mov	r1, r0
    model[1].Wo = decode_Wo(&c2->c2const, Wo_index, WO_BITS);
 800db08:	1d20      	adds	r0, r4, #4
 800db0a:	f00d fc19 	bl	801b340 <decode_Wo>
 800db0e:	f20d 6324 	addw	r3, sp, #1572	; 0x624
 800db12:	ed83 0a00 	vstr	s0, [r3]
 800db16:	ee10 0a10 	vmov	r0, s0
    model[1].L  = PI/model[1].Wo;
 800db1a:	f7fe fd2d 	bl	800c578 <__aeabi_f2d>
 800db1e:	460b      	mov	r3, r1
 800db20:	4602      	mov	r2, r0
 800db22:	a164      	add	r1, pc, #400	; (adr r1, 800dcb4 <codec2_decode_3200+0x214>)
 800db24:	e9d1 0100 	ldrd	r0, r1, [r1]
 800db28:	ad10      	add	r5, sp, #64	; 0x40
 800db2a:	f7fe fea7 	bl	800c87c <__aeabi_ddiv>
 800db2e:	f7ff f82b 	bl	800cb88 <__aeabi_d2iz>
    e_index = unpack(bits, &nbit, E_BITS);
 800db32:	2205      	movs	r2, #5
    model[1].L  = PI/model[1].Wo;
 800db34:	f8c8 0518 	str.w	r0, [r8, #1304]	; 0x518
    e_index = unpack(bits, &nbit, E_BITS);
 800db38:	a90d      	add	r1, sp, #52	; 0x34
 800db3a:	4638      	mov	r0, r7
 800db3c:	f00c fc60 	bl	801a400 <unpack>
    e[1] = decode_energy(e_index, E_BITS);
 800db40:	2105      	movs	r1, #5
 800db42:	f00e f925 	bl	801bd90 <decode_energy>
 800db46:	eeb0 8a40 	vmov.f32	s16, s0
 800db4a:	ed8d 0a0f 	vstr	s0, [sp, #60]	; 0x3c
	lspd_indexes[i] = unpack(bits, &nbit, lspd_bits(i));
 800db4e:	4630      	mov	r0, r6
 800db50:	f00c ff3c 	bl	801a9cc <lspd_bits>
 800db54:	4602      	mov	r2, r0
 800db56:	a90d      	add	r1, sp, #52	; 0x34
 800db58:	4638      	mov	r0, r7
 800db5a:	f00c fc51 	bl	801a400 <unpack>
    for(i=0; i<LSPD_SCALAR_INDEXES; i++) {
 800db5e:	3601      	adds	r6, #1
 800db60:	2e0a      	cmp	r6, #10
	lspd_indexes[i] = unpack(bits, &nbit, lspd_bits(i));
 800db62:	f845 0b04 	str.w	r0, [r5], #4
    for(i=0; i<LSPD_SCALAR_INDEXES; i++) {
 800db66:	d1f2      	bne.n	800db4e <codec2_decode_3200+0xae>
    decode_lspds_scalar(&lsps[1][0], lspd_indexes, LPC_ORD);
 800db68:	af24      	add	r7, sp, #144	; 0x90
 800db6a:	4632      	mov	r2, r6
 800db6c:	4638      	mov	r0, r7
 800db6e:	a910      	add	r1, sp, #64	; 0x40
 800db70:	f00d f87a 	bl	801ac68 <decode_lspds_scalar>
    interp_Wo(&model[0], &c2->prev_model_dec, &model[1], c2->c2const.Wo_min);
 800db74:	f604 0b74 	addw	fp, r4, #2164	; 0x874
 800db78:	f20d 6224 	addw	r2, sp, #1572	; 0x624
 800db7c:	4659      	mov	r1, fp
 800db7e:	a844      	add	r0, sp, #272	; 0x110
 800db80:	ed94 0a07 	vldr	s0, [r4, #28]
 800db84:	f006 f858 	bl	8013c38 <interp_Wo>
    e[0] = interp_energy(c2->prev_e_dec, e[1]);
 800db88:	f504 635b 	add.w	r3, r4, #3504	; 0xdb0
 800db8c:	ed93 0a00 	vldr	s0, [r3]
 800db90:	930a      	str	r3, [sp, #40]	; 0x28
 800db92:	eef0 0a48 	vmov.f32	s1, s16
 800db96:	ad44      	add	r5, sp, #272	; 0x110
 800db98:	f006 f8f8 	bl	8013d8c <interp_energy>
    interpolate_lsp_ver2(&lsps[0][0], c2->prev_lsps_dec, &lsps[1][0], 0.5, LPC_ORD);
 800db9c:	4633      	mov	r3, r6
    e[0] = interp_energy(c2->prev_e_dec, e[1]);
 800db9e:	ed8d 0a0e 	vstr	s0, [sp, #56]	; 0x38
    interpolate_lsp_ver2(&lsps[0][0], c2->prev_lsps_dec, &lsps[1][0], 0.5, LPC_ORD);
 800dba2:	463a      	mov	r2, r7
 800dba4:	f604 5188 	addw	r1, r4, #3464	; 0xd88
 800dba8:	eeb6 0a00 	vmov.f32	s0, #96	; 0x3f000000  0.5
 800dbac:	a81a      	add	r0, sp, #104	; 0x68
 800dbae:	af0e      	add	r7, sp, #56	; 0x38
 800dbb0:	910b      	str	r1, [sp, #44]	; 0x2c
 800dbb2:	f006 f947 	bl	8013e44 <interpolate_lsp_ver2>
    for(i=0; i<2; i++) {
 800dbb6:	f504 635c 	add.w	r3, r4, #3520	; 0xdc0
 800dbba:	f04f 0900 	mov.w	r9, #0
 800dbbe:	9309      	str	r3, [sp, #36]	; 0x24
 800dbc0:	f604 53bc 	addw	r3, r4, #3516	; 0xdbc
 800dbc4:	ae1a      	add	r6, sp, #104	; 0x68
 800dbc6:	f10d 08b8 	add.w	r8, sp, #184	; 0xb8
 800dbca:	9308      	str	r3, [sp, #32]
	aks_to_M2(c2->fftr_fwd_cfg, &ak[i][0], LPC_ORD, &model[i], e[i], &snr, 0, 0,
 800dbcc:	46ca      	mov	sl, r9
	lsp_to_lpc(&lsps[i][0], &ak[i][0], LPC_ORD);
 800dbce:	4641      	mov	r1, r8
 800dbd0:	4630      	mov	r0, r6
 800dbd2:	220a      	movs	r2, #10
 800dbd4:	f008 fbac 	bl	8016330 <lsp_to_lpc>
	aks_to_M2(c2->fftr_fwd_cfg, &ak[i][0], LPC_ORD, &model[i], e[i], &snr, 0, 0,
 800dbd8:	9b09      	ldr	r3, [sp, #36]	; 0x24
 800dbda:	ecb7 0a01 	vldmia	r7!, {s0}
 800dbde:	ed93 1a00 	vldr	s2, [r3]
 800dbe2:	9b08      	ldr	r3, [sp, #32]
 800dbe4:	edd3 0a00 	vldr	s1, [r3]
 800dbe8:	e9cd aa01 	strd	sl, sl, [sp, #4]
 800dbec:	f60d 3338 	addw	r3, sp, #2872	; 0xb38
 800dbf0:	9305      	str	r3, [sp, #20]
 800dbf2:	ab0c      	add	r3, sp, #48	; 0x30
 800dbf4:	9300      	str	r3, [sp, #0]
 800dbf6:	f8d4 3db8 	ldr.w	r3, [r4, #3512]	; 0xdb8
 800dbfa:	9304      	str	r3, [sp, #16]
 800dbfc:	f8d4 3db4 	ldr.w	r3, [r4, #3508]	; 0xdb4
 800dc00:	9303      	str	r3, [sp, #12]
 800dc02:	4641      	mov	r1, r8
 800dc04:	462b      	mov	r3, r5
 800dc06:	220a      	movs	r2, #10
 800dc08:	6be0      	ldr	r0, [r4, #60]	; 0x3c
 800dc0a:	f00d fa29 	bl	801b060 <aks_to_M2>
	apply_lpc_correction(&model[i]);
 800dc0e:	4628      	mov	r0, r5
 800dc10:	f00e f876 	bl	801bd00 <apply_lpc_correction>
	synthesise_one_frame(c2, &speech[c2->n_samp*i], &model[i], Aw, 1.0);
 800dc14:	6b23      	ldr	r3, [r4, #48]	; 0x30
 800dc16:	9a07      	ldr	r2, [sp, #28]
 800dc18:	fb03 f309 	mul.w	r3, r3, r9
 800dc1c:	eb02 0143 	add.w	r1, r2, r3, lsl #1
 800dc20:	eeb7 0a00 	vmov.f32	s0, #112	; 0x3f800000  1.0
 800dc24:	462a      	mov	r2, r5
 800dc26:	f60d 3338 	addw	r3, sp, #2872	; 0xb38
 800dc2a:	4620      	mov	r0, r4
    for(i=0; i<2; i++) {
 800dc2c:	3628      	adds	r6, #40	; 0x28
 800dc2e:	f108 082c 	add.w	r8, r8, #44	; 0x2c
 800dc32:	f205 5514 	addw	r5, r5, #1300	; 0x514
	synthesise_one_frame(c2, &speech[c2->n_samp*i], &model[i], Aw, 1.0);
 800dc36:	f7ff fe97 	bl	800d968 <synthesise_one_frame>
    for(i=0; i<2; i++) {
 800dc3a:	f1b9 0f00 	cmp.w	r9, #0
 800dc3e:	d027      	beq.n	800dc90 <codec2_decode_3200+0x1f0>
    c2->prev_model_dec = model[1];
 800dc40:	f20d 6124 	addw	r1, sp, #1572	; 0x624
 800dc44:	4658      	mov	r0, fp
 800dc46:	f240 5214 	movw	r2, #1300	; 0x514
 800dc4a:	f016 f873 	bl	8023d34 <memcpy>
    c2->prev_e_dec = e[1];
 800dc4e:	9b0a      	ldr	r3, [sp, #40]	; 0x28
	c2->prev_lsps_dec[i] = lsps[1][i];
 800dc50:	9c0b      	ldr	r4, [sp, #44]	; 0x2c
    c2->prev_e_dec = e[1];
 800dc52:	ed83 8a00 	vstr	s16, [r3]
	c2->prev_lsps_dec[i] = lsps[1][i];
 800dc56:	ab1e      	add	r3, sp, #120	; 0x78
 800dc58:	ae24      	add	r6, sp, #144	; 0x90
 800dc5a:	f103 0738 	add.w	r7, r3, #56	; 0x38
 800dc5e:	4635      	mov	r5, r6
 800dc60:	cd0f      	ldmia	r5!, {r0, r1, r2, r3}
 800dc62:	42bd      	cmp	r5, r7
 800dc64:	f104 0410 	add.w	r4, r4, #16
 800dc68:	462e      	mov	r6, r5
 800dc6a:	f844 0c10 	str.w	r0, [r4, #-16]
 800dc6e:	f844 1c0c 	str.w	r1, [r4, #-12]
 800dc72:	f844 2c08 	str.w	r2, [r4, #-8]
 800dc76:	f844 3c04 	str.w	r3, [r4, #-4]
 800dc7a:	d1f0      	bne.n	800dc5e <codec2_decode_3200+0x1be>
 800dc7c:	ce03      	ldmia	r6!, {r0, r1}
 800dc7e:	6020      	str	r0, [r4, #0]
 800dc80:	6061      	str	r1, [r4, #4]
}
 800dc82:	f50d 5dd9 	add.w	sp, sp, #6944	; 0x1b20
 800dc86:	b007      	add	sp, #28
 800dc88:	ecbd 8b02 	vpop	{d8}
 800dc8c:	e8bd 8ff0 	ldmia.w	sp!, {r4, r5, r6, r7, r8, r9, sl, fp, pc}
 800dc90:	f04f 0901 	mov.w	r9, #1
 800dc94:	e79b      	b.n	800dbce <codec2_decode_3200+0x12e>
    assert(c2 != NULL);
 800dc96:	4b04      	ldr	r3, [pc, #16]	; (800dca8 <codec2_decode_3200+0x208>)
 800dc98:	4a04      	ldr	r2, [pc, #16]	; (800dcac <codec2_decode_3200+0x20c>)
 800dc9a:	4805      	ldr	r0, [pc, #20]	; (800dcb0 <codec2_decode_3200+0x210>)
 800dc9c:	f240 214f 	movw	r1, #591	; 0x24f
 800dca0:	f015 fc74 	bl	802358c <__assert_func>
 800dca4:	f3af 8000 	nop.w
 800dca8:	0804cb68 	.word	0x0804cb68
 800dcac:	0804cca4 	.word	0x0804cca4
 800dcb0:	0804cb40 	.word	0x0804cb40
 800dcb4:	54524550 	.word	0x54524550
 800dcb8:	400921fb 	.word	0x400921fb

0800dcbc <codec2_decode_2400>:
{
 800dcbc:	e92d 4ff0 	stmdb	sp!, {r4, r5, r6, r7, r8, r9, sl, fp, lr}
 800dcc0:	f5ad 5dda 	sub.w	sp, sp, #6976	; 0x1b40
 800dcc4:	b081      	sub	sp, #4
    unsigned int nbit = 0;
 800dcc6:	ab0e      	add	r3, sp, #56	; 0x38
{
 800dcc8:	9107      	str	r1, [sp, #28]
    unsigned int nbit = 0;
 800dcca:	2100      	movs	r1, #0
 800dccc:	6019      	str	r1, [r3, #0]
    assert(c2 != NULL);
 800dcce:	2800      	cmp	r0, #0
 800dcd0:	f000 8109 	beq.w	800dee6 <codec2_decode_2400+0x22a>
 800dcd4:	4617      	mov	r7, r2
 800dcd6:	4604      	mov	r4, r0
	    model[i].A[j] = 0.0;
 800dcd8:	f44f 7220 	mov.w	r2, #640	; 0x280
 800dcdc:	a849      	add	r0, sp, #292	; 0x124
 800dcde:	f016 f851 	bl	8023d84 <memset>
 800dce2:	2100      	movs	r1, #0
 800dce4:	f44f 7220 	mov.w	r2, #640	; 0x280
 800dce8:	f50d 60c7 	add.w	r0, sp, #1592	; 0x638
    for(i=0; i<LSP_SCALAR_INDEXES; i++) {
 800dcec:	460e      	mov	r6, r1
	    model[i].A[j] = 0.0;
 800dcee:	f016 f849 	bl	8023d84 <memset>
    model[0].voiced = unpack(bits, &nbit, 1);
 800dcf2:	2201      	movs	r2, #1
 800dcf4:	a90e      	add	r1, sp, #56	; 0x38
 800dcf6:	4638      	mov	r0, r7
 800dcf8:	ad46      	add	r5, sp, #280	; 0x118
 800dcfa:	f00c fb81 	bl	801a400 <unpack>
    model[1].voiced = unpack(bits, &nbit, 1);
 800dcfe:	2201      	movs	r2, #1
    model[0].voiced = unpack(bits, &nbit, 1);
 800dd00:	f8c5 0510 	str.w	r0, [r5, #1296]	; 0x510
    model[1].voiced = unpack(bits, &nbit, 1);
 800dd04:	a90e      	add	r1, sp, #56	; 0x38
 800dd06:	4638      	mov	r0, r7
 800dd08:	f00c fb7a 	bl	801a400 <unpack>
    WoE_index = unpack(bits, &nbit, WO_E_BITS);
 800dd0c:	2208      	movs	r2, #8
    model[1].voiced = unpack(bits, &nbit, 1);
 800dd0e:	f8c5 0a24 	str.w	r0, [r5, #2596]	; 0xa24
    WoE_index = unpack(bits, &nbit, WO_E_BITS);
 800dd12:	a90e      	add	r1, sp, #56	; 0x38
 800dd14:	4638      	mov	r0, r7
 800dd16:	f00c fb73 	bl	801a400 <unpack>
    decode_WoE(&c2->c2const, &model[1], &e[1], c2->xq_dec, WoE_index);
 800dd1a:	f604 53cc 	addw	r3, r4, #3532	; 0xdcc
 800dd1e:	9000      	str	r0, [sp, #0]
 800dd20:	aa11      	add	r2, sp, #68	; 0x44
 800dd22:	f20d 612c 	addw	r1, sp, #1580	; 0x62c
 800dd26:	1d20      	adds	r0, r4, #4
 800dd28:	f00e f9f2 	bl	801c110 <decode_WoE>
    for(i=0; i<LSP_SCALAR_INDEXES; i++) {
 800dd2c:	ad12      	add	r5, sp, #72	; 0x48
	lsp_indexes[i] = unpack(bits, &nbit, lsp_bits(i));
 800dd2e:	4630      	mov	r0, r6
 800dd30:	f00c fe44 	bl	801a9bc <lsp_bits>
 800dd34:	4602      	mov	r2, r0
 800dd36:	a90e      	add	r1, sp, #56	; 0x38
 800dd38:	4638      	mov	r0, r7
 800dd3a:	f00c fb61 	bl	801a400 <unpack>
    for(i=0; i<LSP_SCALAR_INDEXES; i++) {
 800dd3e:	3601      	adds	r6, #1
 800dd40:	2e0a      	cmp	r6, #10
	lsp_indexes[i] = unpack(bits, &nbit, lsp_bits(i));
 800dd42:	f845 0b04 	str.w	r0, [r5], #4
    for(i=0; i<LSP_SCALAR_INDEXES; i++) {
 800dd46:	d1f2      	bne.n	800dd2e <codec2_decode_2400+0x72>
    decode_lsps_scalar(&lsps[1][0], lsp_indexes, LPC_ORD);
 800dd48:	af26      	add	r7, sp, #152	; 0x98
 800dd4a:	4632      	mov	r2, r6
 800dd4c:	4638      	mov	r0, r7
 800dd4e:	a912      	add	r1, sp, #72	; 0x48
 800dd50:	f00d fcd6 	bl	801b700 <decode_lsps_scalar>
    check_lsp_order(&lsps[1][0], LPC_ORD);
 800dd54:	4631      	mov	r1, r6
 800dd56:	4638      	mov	r0, r7
 800dd58:	f00d f86e 	bl	801ae38 <check_lsp_order>
    bw_expand_lsps(&lsps[1][0], LPC_ORD, 50.0, 100.0);
 800dd5c:	eddf 0a65 	vldr	s1, [pc, #404]	; 800def4 <codec2_decode_2400+0x238>
 800dd60:	ed9f 0a65 	vldr	s0, [pc, #404]	; 800def8 <codec2_decode_2400+0x23c>
 800dd64:	4631      	mov	r1, r6
 800dd66:	4638      	mov	r0, r7
 800dd68:	f00d ff2e 	bl	801bbc8 <bw_expand_lsps>
    interp_Wo(&model[0], &c2->prev_model_dec, &model[1], c2->c2const.Wo_min);
 800dd6c:	f604 0b74 	addw	fp, r4, #2164	; 0x874
 800dd70:	f20d 622c 	addw	r2, sp, #1580	; 0x62c
 800dd74:	4659      	mov	r1, fp
 800dd76:	a846      	add	r0, sp, #280	; 0x118
 800dd78:	ed94 0a07 	vldr	s0, [r4, #28]
 800dd7c:	f005 ff5c 	bl	8013c38 <interp_Wo>
    e[0] = interp_energy(c2->prev_e_dec, e[1]);
 800dd80:	f504 635b 	add.w	r3, r4, #3504	; 0xdb0
 800dd84:	eddd 0a11 	vldr	s1, [sp, #68]	; 0x44
 800dd88:	ed93 0a00 	vldr	s0, [r3]
 800dd8c:	930b      	str	r3, [sp, #44]	; 0x2c
 800dd8e:	ad46      	add	r5, sp, #280	; 0x118
 800dd90:	f005 fffc 	bl	8013d8c <interp_energy>
    interpolate_lsp_ver2(&lsps[0][0], c2->prev_lsps_dec, &lsps[1][0], 0.5, LPC_ORD);
 800dd94:	4633      	mov	r3, r6
    e[0] = interp_energy(c2->prev_e_dec, e[1]);
 800dd96:	ed8d 0a10 	vstr	s0, [sp, #64]	; 0x40
    interpolate_lsp_ver2(&lsps[0][0], c2->prev_lsps_dec, &lsps[1][0], 0.5, LPC_ORD);
 800dd9a:	463a      	mov	r2, r7
 800dd9c:	f604 5188 	addw	r1, r4, #3464	; 0xd88
 800dda0:	eeb6 0a00 	vmov.f32	s0, #96	; 0x3f000000  0.5
 800dda4:	a81c      	add	r0, sp, #112	; 0x70
 800dda6:	910a      	str	r1, [sp, #40]	; 0x28
 800dda8:	f006 f84c 	bl	8013e44 <interpolate_lsp_ver2>
    for(i=0; i<2; i++) {
 800ddac:	f504 635c 	add.w	r3, r4, #3520	; 0xdc0
 800ddb0:	9309      	str	r3, [sp, #36]	; 0x24
 800ddb2:	f604 53bc 	addw	r3, r4, #3516	; 0xdbc
 800ddb6:	ae1c      	add	r6, sp, #112	; 0x70
 800ddb8:	f04f 0900 	mov.w	r9, #0
 800ddbc:	af30      	add	r7, sp, #192	; 0xc0
 800ddbe:	f10d 0840 	add.w	r8, sp, #64	; 0x40
 800ddc2:	9308      	str	r3, [sp, #32]
 800ddc4:	f504 5a80 	add.w	sl, r4, #4096	; 0x1000
	lsp_to_lpc(&lsps[i][0], &ak[i][0], LPC_ORD);
 800ddc8:	220a      	movs	r2, #10
 800ddca:	4639      	mov	r1, r7
 800ddcc:	4630      	mov	r0, r6
 800ddce:	f008 faaf 	bl	8016330 <lsp_to_lpc>
	aks_to_M2(c2->fftr_fwd_cfg, &ak[i][0], LPC_ORD, &model[i], e[i], &snr, 0, 0,
 800ddd2:	9b09      	ldr	r3, [sp, #36]	; 0x24
 800ddd4:	ed98 0a00 	vldr	s0, [r8]
 800ddd8:	ed93 1a00 	vldr	s2, [r3]
 800dddc:	9b08      	ldr	r3, [sp, #32]
 800ddde:	edd3 0a00 	vldr	s1, [r3]
 800dde2:	f50d 6334 	add.w	r3, sp, #2880	; 0xb40
 800dde6:	9305      	str	r3, [sp, #20]
 800dde8:	2300      	movs	r3, #0
 800ddea:	e9cd 3301 	strd	r3, r3, [sp, #4]
 800ddee:	ab0d      	add	r3, sp, #52	; 0x34
 800ddf0:	9300      	str	r3, [sp, #0]
 800ddf2:	f8d4 3db8 	ldr.w	r3, [r4, #3512]	; 0xdb8
 800ddf6:	9304      	str	r3, [sp, #16]
 800ddf8:	f8d4 3db4 	ldr.w	r3, [r4, #3508]	; 0xdb4
 800ddfc:	9303      	str	r3, [sp, #12]
 800ddfe:	220a      	movs	r2, #10
 800de00:	462b      	mov	r3, r5
 800de02:	4639      	mov	r1, r7
 800de04:	6be0      	ldr	r0, [r4, #60]	; 0x3c
 800de06:	f00d f92b 	bl	801b060 <aks_to_M2>
	apply_lpc_correction(&model[i]);
 800de0a:	4628      	mov	r0, r5
 800de0c:	f00d ff78 	bl	801bd00 <apply_lpc_correction>
	synthesise_one_frame(c2, &speech[c2->n_samp*i], &model[i], Aw, 1.0);
 800de10:	6b23      	ldr	r3, [r4, #48]	; 0x30
 800de12:	9a07      	ldr	r2, [sp, #28]
 800de14:	fb03 f309 	mul.w	r3, r3, r9
 800de18:	eb02 0143 	add.w	r1, r2, r3, lsl #1
 800de1c:	eeb7 0a00 	vmov.f32	s0, #112	; 0x3f800000  1.0
 800de20:	f50d 6334 	add.w	r3, sp, #2880	; 0xb40
 800de24:	462a      	mov	r2, r5
 800de26:	4620      	mov	r0, r4
 800de28:	f7ff fd9e 	bl	800d968 <synthesise_one_frame>
	if (c2->fmlfeat != NULL) {
 800de2c:	f8da 311c 	ldr.w	r3, [sl, #284]	; 0x11c
 800de30:	b34b      	cbz	r3, 800de86 <codec2_decode_2400+0x1ca>
	    fwrite(&lsps[i][0], LPC_ORD, sizeof(float), c2->fmlfeat);
 800de32:	2204      	movs	r2, #4
 800de34:	210a      	movs	r1, #10
 800de36:	4630      	mov	r0, r6
 800de38:	f015 fc8e 	bl	8023758 <fwrite>
	    fwrite(&e[i], 1, sizeof(float), c2->fmlfeat);
 800de3c:	f8da 311c 	ldr.w	r3, [sl, #284]	; 0x11c
 800de40:	2204      	movs	r2, #4
 800de42:	2101      	movs	r1, #1
 800de44:	4640      	mov	r0, r8
 800de46:	f015 fc87 	bl	8023758 <fwrite>
	    fwrite(&model[i].Wo, 1, sizeof(float), c2->fmlfeat); 
 800de4a:	f8da 311c 	ldr.w	r3, [sl, #284]	; 0x11c
 800de4e:	2204      	movs	r2, #4
 800de50:	2101      	movs	r1, #1
 800de52:	4628      	mov	r0, r5
 800de54:	f015 fc80 	bl	8023758 <fwrite>
	    float voiced_float = model[i].voiced;
 800de58:	f8d5 3510 	ldr.w	r3, [r5, #1296]	; 0x510
 800de5c:	ee07 3a90 	vmov	s15, r3
 800de60:	eef8 7ae7 	vcvt.f32.s32	s15, s15
 800de64:	a80f      	add	r0, sp, #60	; 0x3c
	    fwrite(&voiced_float, 1, sizeof(float), c2->fmlfeat);
 800de66:	f8da 311c 	ldr.w	r3, [sl, #284]	; 0x11c
	    float voiced_float = model[i].voiced;
 800de6a:	edc0 7a00 	vstr	s15, [r0]
	    fwrite(&voiced_float, 1, sizeof(float), c2->fmlfeat);
 800de6e:	2204      	movs	r2, #4
 800de70:	2101      	movs	r1, #1
 800de72:	a80f      	add	r0, sp, #60	; 0x3c
 800de74:	f015 fc70 	bl	8023758 <fwrite>
	    fwrite(&ak[i][1], LPC_ORD, sizeof(float), c2->fmlfeat);
 800de78:	2204      	movs	r2, #4
 800de7a:	f8da 311c 	ldr.w	r3, [sl, #284]	; 0x11c
 800de7e:	210a      	movs	r1, #10
 800de80:	18b8      	adds	r0, r7, r2
 800de82:	f015 fc69 	bl	8023758 <fwrite>
    for(i=0; i<2; i++) {
 800de86:	3628      	adds	r6, #40	; 0x28
 800de88:	372c      	adds	r7, #44	; 0x2c
 800de8a:	f108 0804 	add.w	r8, r8, #4
 800de8e:	f205 5514 	addw	r5, r5, #1300	; 0x514
 800de92:	f1b9 0f00 	cmp.w	r9, #0
 800de96:	d023      	beq.n	800dee0 <codec2_decode_2400+0x224>
    c2->prev_model_dec = model[1];
 800de98:	f240 5214 	movw	r2, #1300	; 0x514
 800de9c:	f20d 612c 	addw	r1, sp, #1580	; 0x62c
 800dea0:	4658      	mov	r0, fp
 800dea2:	f015 ff47 	bl	8023d34 <memcpy>
    c2->prev_e_dec = e[1];
 800dea6:	9a0b      	ldr	r2, [sp, #44]	; 0x2c
 800dea8:	9b11      	ldr	r3, [sp, #68]	; 0x44
	c2->prev_lsps_dec[i] = lsps[1][i];
 800deaa:	9c0a      	ldr	r4, [sp, #40]	; 0x28
    c2->prev_e_dec = e[1];
 800deac:	6013      	str	r3, [r2, #0]
	c2->prev_lsps_dec[i] = lsps[1][i];
 800deae:	ae26      	add	r6, sp, #152	; 0x98
 800deb0:	af2e      	add	r7, sp, #184	; 0xb8
 800deb2:	4635      	mov	r5, r6
 800deb4:	cd0f      	ldmia	r5!, {r0, r1, r2, r3}
 800deb6:	42bd      	cmp	r5, r7
 800deb8:	f104 0410 	add.w	r4, r4, #16
 800debc:	462e      	mov	r6, r5
 800debe:	f844 0c10 	str.w	r0, [r4, #-16]
 800dec2:	f844 1c0c 	str.w	r1, [r4, #-12]
 800dec6:	f844 2c08 	str.w	r2, [r4, #-8]
 800deca:	f844 3c04 	str.w	r3, [r4, #-4]
 800dece:	d1f0      	bne.n	800deb2 <codec2_decode_2400+0x1f6>
 800ded0:	ce03      	ldmia	r6!, {r0, r1}
 800ded2:	6020      	str	r0, [r4, #0]
 800ded4:	6061      	str	r1, [r4, #4]
}
 800ded6:	f50d 5dda 	add.w	sp, sp, #6976	; 0x1b40
 800deda:	b001      	add	sp, #4
 800dedc:	e8bd 8ff0 	ldmia.w	sp!, {r4, r5, r6, r7, r8, r9, sl, fp, pc}
 800dee0:	f04f 0901 	mov.w	r9, #1
 800dee4:	e770      	b.n	800ddc8 <codec2_decode_2400+0x10c>
    assert(c2 != NULL);
 800dee6:	4b05      	ldr	r3, [pc, #20]	; (800defc <codec2_decode_2400+0x240>)
 800dee8:	4a05      	ldr	r2, [pc, #20]	; (800df00 <codec2_decode_2400+0x244>)
 800deea:	4806      	ldr	r0, [pc, #24]	; (800df04 <codec2_decode_2400+0x248>)
 800deec:	f240 21e1 	movw	r1, #737	; 0x2e1
 800def0:	f015 fb4c 	bl	802358c <__assert_func>
 800def4:	42c80000 	.word	0x42c80000
 800def8:	42480000 	.word	0x42480000
 800defc:	0804cb68 	.word	0x0804cb68
 800df00:	0804cc7c 	.word	0x0804cc7c
 800df04:	0804cb40 	.word	0x0804cb40

0800df08 <codec2_decode_1600>:
{
 800df08:	e92d 4ff0 	stmdb	sp!, {r4, r5, r6, r7, r8, r9, sl, fp, lr}
 800df0c:	ed2d 8b06 	vpush	{d8-d10}
 800df10:	f5ad 5d18 	sub.w	sp, sp, #9728	; 0x2600
 800df14:	b083      	sub	sp, #12
    unsigned int nbit = 0;
 800df16:	ab0b      	add	r3, sp, #44	; 0x2c
{
 800df18:	4690      	mov	r8, r2
    unsigned int nbit = 0;
 800df1a:	2200      	movs	r2, #0
{
 800df1c:	9106      	str	r1, [sp, #24]
    unsigned int nbit = 0;
 800df1e:	601a      	str	r2, [r3, #0]
    assert(c2 != NULL);
 800df20:	2800      	cmp	r0, #0
 800df22:	f000 8170 	beq.w	800e206 <codec2_decode_1600+0x2fe>
 800df26:	f50d 538e 	add.w	r3, sp, #4544	; 0x11c0
 800df2a:	3308      	adds	r3, #8
 800df2c:	f50d 568d 	add.w	r6, sp, #4512	; 0x11a0
 800df30:	f50d 5518 	add.w	r5, sp, #9728	; 0x2600
 800df34:	4604      	mov	r4, r0
 800df36:	3b04      	subs	r3, #4
 800df38:	3618      	adds	r6, #24
 800df3a:	3514      	adds	r5, #20
	    model[i].A[j] = 0.0;
 800df3c:	4618      	mov	r0, r3
 800df3e:	f44f 7220 	mov.w	r2, #640	; 0x280
 800df42:	2100      	movs	r1, #0
 800df44:	f015 ff1e 	bl	8023d84 <memset>
    for(i=0; i<4; i++)
 800df48:	f200 5314 	addw	r3, r0, #1300	; 0x514
 800df4c:	42ab      	cmp	r3, r5
 800df4e:	d1f5      	bne.n	800df3c <codec2_decode_1600+0x34>
    model[0].voiced = unpack(bits, &nbit, 1);
 800df50:	f50d 53b0 	add.w	r3, sp, #5632	; 0x1600
 800df54:	3308      	adds	r3, #8
 800df56:	2201      	movs	r2, #1
 800df58:	a90b      	add	r1, sp, #44	; 0x2c
 800df5a:	4640      	mov	r0, r8
 800df5c:	f5a3 698a 	sub.w	r9, r3, #1104	; 0x450
 800df60:	f00c fa4e 	bl	801a400 <unpack>
    model[1].voiced = unpack(bits, &nbit, 1);
 800df64:	2201      	movs	r2, #1
    model[0].voiced = unpack(bits, &nbit, 1);
 800df66:	f8c9 0510 	str.w	r0, [r9, #1296]	; 0x510
    model[1].voiced = unpack(bits, &nbit, 1);
 800df6a:	a90b      	add	r1, sp, #44	; 0x2c
 800df6c:	4640      	mov	r0, r8
 800df6e:	f00c fa47 	bl	801a400 <unpack>
    Wo_index = unpack(bits, &nbit, WO_BITS);
 800df72:	2207      	movs	r2, #7
    model[1].voiced = unpack(bits, &nbit, 1);
 800df74:	f8c9 0a24 	str.w	r0, [r9, #2596]	; 0xa24
    Wo_index = unpack(bits, &nbit, WO_BITS);
 800df78:	a90b      	add	r1, sp, #44	; 0x2c
 800df7a:	4640      	mov	r0, r8
 800df7c:	f00c fa40 	bl	801a400 <unpack>
    model[1].Wo = decode_Wo(&c2->c2const, Wo_index, WO_BITS);
 800df80:	f104 0b04 	add.w	fp, r4, #4
    Wo_index = unpack(bits, &nbit, WO_BITS);
 800df84:	4601      	mov	r1, r0
    model[1].Wo = decode_Wo(&c2->c2const, Wo_index, WO_BITS);
 800df86:	2207      	movs	r2, #7
 800df88:	4658      	mov	r0, fp
 800df8a:	f00d f9d9 	bl	801b340 <decode_Wo>
 800df8e:	f50d 53b6 	add.w	r3, sp, #5824	; 0x16c0
 800df92:	ed83 0a03 	vstr	s0, [r3, #12]
 800df96:	ee10 0a10 	vmov	r0, s0
    e[1] = decode_energy(e_index, E_BITS);
 800df9a:	f10d 0a30 	add.w	sl, sp, #48	; 0x30
    model[1].Wo = decode_Wo(&c2->c2const, Wo_index, WO_BITS);
 800df9e:	330c      	adds	r3, #12
    model[1].L  = PI/model[1].Wo;
 800dfa0:	f7fe faea 	bl	800c578 <__aeabi_f2d>
 800dfa4:	460b      	mov	r3, r1
 800dfa6:	4602      	mov	r2, r0
 800dfa8:	a1a0      	add	r1, pc, #640	; (adr r1, 800e22c <codec2_decode_1600+0x324>)
 800dfaa:	e9d1 0100 	ldrd	r0, r1, [r1]
 800dfae:	af10      	add	r7, sp, #64	; 0x40
 800dfb0:	f7fe fc64 	bl	800c87c <__aeabi_ddiv>
 800dfb4:	f7fe fde8 	bl	800cb88 <__aeabi_d2iz>
    e_index = unpack(bits, &nbit, E_BITS);
 800dfb8:	2205      	movs	r2, #5
    model[1].L  = PI/model[1].Wo;
 800dfba:	f8c9 0518 	str.w	r0, [r9, #1304]	; 0x518
    e_index = unpack(bits, &nbit, E_BITS);
 800dfbe:	a90b      	add	r1, sp, #44	; 0x2c
 800dfc0:	4640      	mov	r0, r8
 800dfc2:	f00c fa1d 	bl	801a400 <unpack>
    e[1] = decode_energy(e_index, E_BITS);
 800dfc6:	2105      	movs	r1, #5
 800dfc8:	f00d fee2 	bl	801bd90 <decode_energy>
    model[2].voiced = unpack(bits, &nbit, 1);
 800dfcc:	2201      	movs	r2, #1
 800dfce:	a90b      	add	r1, sp, #44	; 0x2c
 800dfd0:	4640      	mov	r0, r8
    e[1] = decode_energy(e_index, E_BITS);
 800dfd2:	eeb0 9a40 	vmov.f32	s18, s0
 800dfd6:	ed8a 0a01 	vstr	s0, [sl, #4]
    model[2].voiced = unpack(bits, &nbit, 1);
 800dfda:	f00c fa11 	bl	801a400 <unpack>
    model[3].voiced = unpack(bits, &nbit, 1);
 800dfde:	2201      	movs	r2, #1
    model[2].voiced = unpack(bits, &nbit, 1);
 800dfe0:	f8c9 0f38 	str.w	r0, [r9, #3896]	; 0xf38
    model[3].voiced = unpack(bits, &nbit, 1);
 800dfe4:	a90b      	add	r1, sp, #44	; 0x2c
 800dfe6:	4640      	mov	r0, r8
 800dfe8:	f00c fa0a 	bl	801a400 <unpack>
 800dfec:	f50d 5318 	add.w	r3, sp, #9728	; 0x2600
    Wo_index = unpack(bits, &nbit, WO_BITS);
 800dff0:	2207      	movs	r2, #7
    model[3].voiced = unpack(bits, &nbit, 1);
 800dff2:	6058      	str	r0, [r3, #4]
    Wo_index = unpack(bits, &nbit, WO_BITS);
 800dff4:	a90b      	add	r1, sp, #44	; 0x2c
 800dff6:	4640      	mov	r0, r8
    model[3].voiced = unpack(bits, &nbit, 1);
 800dff8:	3304      	adds	r3, #4
    Wo_index = unpack(bits, &nbit, WO_BITS);
 800dffa:	f00c fa01 	bl	801a400 <unpack>
    model[3].Wo = decode_Wo(&c2->c2const, Wo_index, WO_BITS);
 800dffe:	2207      	movs	r2, #7
    Wo_index = unpack(bits, &nbit, WO_BITS);
 800e000:	4601      	mov	r1, r0
    model[3].Wo = decode_Wo(&c2->c2const, Wo_index, WO_BITS);
 800e002:	4658      	mov	r0, fp
 800e004:	f00d f99c 	bl	801b340 <decode_Wo>
 800e008:	f50d 5303 	add.w	r3, sp, #8384	; 0x20c0
 800e00c:	ed83 0a0d 	vstr	s0, [r3, #52]	; 0x34
 800e010:	ee10 0a10 	vmov	r0, s0
 800e014:	3334      	adds	r3, #52	; 0x34
    model[3].L  = PI/model[3].Wo;
 800e016:	f7fe faaf 	bl	800c578 <__aeabi_f2d>
 800e01a:	460b      	mov	r3, r1
 800e01c:	4602      	mov	r2, r0
 800e01e:	a183      	add	r1, pc, #524	; (adr r1, 800e22c <codec2_decode_1600+0x324>)
 800e020:	e9d1 0100 	ldrd	r0, r1, [r1]
 800e024:	f7fe fc2a 	bl	800c87c <__aeabi_ddiv>
 800e028:	f7fe fdae 	bl	800cb88 <__aeabi_d2iz>
    e_index = unpack(bits, &nbit, E_BITS);
 800e02c:	2205      	movs	r2, #5
    model[3].L  = PI/model[3].Wo;
 800e02e:	f8c9 0f40 	str.w	r0, [r9, #3904]	; 0xf40
    e_index = unpack(bits, &nbit, E_BITS);
 800e032:	a90b      	add	r1, sp, #44	; 0x2c
 800e034:	4640      	mov	r0, r8
 800e036:	f00c f9e3 	bl	801a400 <unpack>
    e[3] = decode_energy(e_index, E_BITS);
 800e03a:	2105      	movs	r1, #5
 800e03c:	f00d fea8 	bl	801bd90 <decode_energy>
    for(i=0; i<LSP_SCALAR_INDEXES; i++) {
 800e040:	2500      	movs	r5, #0
    e[3] = decode_energy(e_index, E_BITS);
 800e042:	eef0 8a40 	vmov.f32	s17, s0
 800e046:	ed8a 0a03 	vstr	s0, [sl, #12]
	lsp_indexes[i] = unpack(bits, &nbit, lsp_bits(i));
 800e04a:	4628      	mov	r0, r5
 800e04c:	f00c fcb6 	bl	801a9bc <lsp_bits>
 800e050:	4602      	mov	r2, r0
 800e052:	a90b      	add	r1, sp, #44	; 0x2c
 800e054:	4640      	mov	r0, r8
 800e056:	f00c f9d3 	bl	801a400 <unpack>
    for(i=0; i<LSP_SCALAR_INDEXES; i++) {
 800e05a:	3501      	adds	r5, #1
 800e05c:	2d0a      	cmp	r5, #10
	lsp_indexes[i] = unpack(bits, &nbit, lsp_bits(i));
 800e05e:	f847 0b04 	str.w	r0, [r7], #4
    for(i=0; i<LSP_SCALAR_INDEXES; i++) {
 800e062:	d1f2      	bne.n	800e04a <codec2_decode_1600+0x142>
    decode_lsps_scalar(&lsps[3][0], lsp_indexes, LPC_ORD);
 800e064:	af38      	add	r7, sp, #224	; 0xe0
 800e066:	462a      	mov	r2, r5
 800e068:	a910      	add	r1, sp, #64	; 0x40
 800e06a:	4638      	mov	r0, r7
    e[0] = interp_energy(c2->prev_e_dec, e[1]);
 800e06c:	f10d 0830 	add.w	r8, sp, #48	; 0x30
    decode_lsps_scalar(&lsps[3][0], lsp_indexes, LPC_ORD);
 800e070:	f00d fb46 	bl	801b700 <decode_lsps_scalar>
    check_lsp_order(&lsps[3][0], LPC_ORD);
 800e074:	4629      	mov	r1, r5
 800e076:	4638      	mov	r0, r7
 800e078:	f00c fede 	bl	801ae38 <check_lsp_order>
    bw_expand_lsps(&lsps[3][0], LPC_ORD, 50.0, 100.0);
 800e07c:	eddf 0a66 	vldr	s1, [pc, #408]	; 800e218 <codec2_decode_1600+0x310>
 800e080:	ed9f 0a66 	vldr	s0, [pc, #408]	; 800e21c <codec2_decode_1600+0x314>
 800e084:	4629      	mov	r1, r5
 800e086:	4638      	mov	r0, r7
 800e088:	f00d fd9e 	bl	801bbc8 <bw_expand_lsps>
    interp_Wo(&model[0], &c2->prev_model_dec, &model[1], c2->c2const.Wo_min);
 800e08c:	f50d 538e 	add.w	r3, sp, #4544	; 0x11c0
 800e090:	3308      	adds	r3, #8
 800e092:	f203 5504 	addw	r5, r3, #1284	; 0x504
 800e096:	f50d 508d 	add.w	r0, sp, #4512	; 0x11a0
 800e09a:	f604 0374 	addw	r3, r4, #2164	; 0x874
 800e09e:	462a      	mov	r2, r5
 800e0a0:	4619      	mov	r1, r3
 800e0a2:	3018      	adds	r0, #24
 800e0a4:	ed94 0a07 	vldr	s0, [r4, #28]
 800e0a8:	ee0a 3a10 	vmov	s20, r3
 800e0ac:	f005 fdc4 	bl	8013c38 <interp_Wo>
    e[0] = interp_energy(c2->prev_e_dec, e[1]);
 800e0b0:	f504 635b 	add.w	r3, r4, #3504	; 0xdb0
 800e0b4:	eef0 0a49 	vmov.f32	s1, s18
 800e0b8:	ed93 0a00 	vldr	s0, [r3]
 800e0bc:	9309      	str	r3, [sp, #36]	; 0x24
 800e0be:	f005 fe65 	bl	8013d8c <interp_energy>
    interp_Wo(&model[2], &model[1], &model[3], c2->c2const.Wo_min);
 800e0c2:	f50d 538e 	add.w	r3, sp, #4544	; 0x11c0
 800e0c6:	3308      	adds	r3, #8
    e[0] = interp_energy(c2->prev_e_dec, e[1]);
 800e0c8:	ed88 0a00 	vstr	s0, [r8]
    interp_Wo(&model[2], &model[1], &model[3], c2->c2const.Wo_min);
 800e0cc:	4629      	mov	r1, r5
 800e0ce:	ed94 0a07 	vldr	s0, [r4, #28]
 800e0d2:	f603 722c 	addw	r2, r3, #3884	; 0xf2c
 800e0d6:	f603 2018 	addw	r0, r3, #2584	; 0xa18
 800e0da:	f005 fdad 	bl	8013c38 <interp_Wo>
    e[2] = interp_energy(e[1], e[3]);
 800e0de:	eeb0 0a49 	vmov.f32	s0, s18
 800e0e2:	eef0 0a68 	vmov.f32	s1, s17
 800e0e6:	f005 fe51 	bl	8013d8c <interp_energy>
	interpolate_lsp_ver2(&lsps[i][0], c2->prev_lsps_dec, &lsps[3][0], weight, LPC_ORD);
 800e0ea:	f604 5588 	addw	r5, r4, #3464	; 0xd88
    for(i=0, weight=0.25; i<3; i++, weight += 0.25) {
 800e0ee:	eeb5 8a00 	vmov.f32	s16, #80	; 0x3e800000  0.250
 800e0f2:	f10d 0a68 	add.w	sl, sp, #104	; 0x68
	interpolate_lsp_ver2(&lsps[i][0], c2->prev_lsps_dec, &lsps[3][0], weight, LPC_ORD);
 800e0f6:	ee09 5a10 	vmov	s18, r5
    e[2] = interp_energy(e[1], e[3]);
 800e0fa:	ed88 0a02 	vstr	s0, [r8, #8]
    for(i=0, weight=0.25; i<3; i++, weight += 0.25) {
 800e0fe:	eef0 9a48 	vmov.f32	s19, s16
	interpolate_lsp_ver2(&lsps[i][0], c2->prev_lsps_dec, &lsps[3][0], weight, LPC_ORD);
 800e102:	46d0      	mov	r8, sl
 800e104:	eeb0 0a48 	vmov.f32	s0, s16
 800e108:	4640      	mov	r0, r8
 800e10a:	230a      	movs	r3, #10
    for(i=0, weight=0.25; i<3; i++, weight += 0.25) {
 800e10c:	f108 0828 	add.w	r8, r8, #40	; 0x28
	interpolate_lsp_ver2(&lsps[i][0], c2->prev_lsps_dec, &lsps[3][0], weight, LPC_ORD);
 800e110:	463a      	mov	r2, r7
 800e112:	4629      	mov	r1, r5
 800e114:	f005 fe96 	bl	8013e44 <interpolate_lsp_ver2>
    for(i=0, weight=0.25; i<3; i++, weight += 0.25) {
 800e118:	45b8      	cmp	r8, r7
 800e11a:	ee38 8a29 	vadd.f32	s16, s16, s19
 800e11e:	d1f1      	bne.n	800e104 <codec2_decode_1600+0x1fc>
 800e120:	f504 635c 	add.w	r3, r4, #3520	; 0xdc0
    for(i=0; i<4; i++) {
 800e124:	f04f 0800 	mov.w	r8, #0
 800e128:	9307      	str	r3, [sp, #28]
 800e12a:	f604 53bc 	addw	r3, r4, #3516	; 0xdbc
 800e12e:	ad0c      	add	r5, sp, #48	; 0x30
 800e130:	f50d 7984 	add.w	r9, sp, #264	; 0x108
 800e134:	9308      	str	r3, [sp, #32]
 800e136:	af6e      	add	r7, sp, #440	; 0x1b8
	aks_to_M2(c2->fftr_fwd_cfg, &ak[i][0], LPC_ORD, &model[i], e[i], &snr, 0, 0,
 800e138:	46c3      	mov	fp, r8
	lsp_to_lpc(&lsps[i][0], &ak[i][0], LPC_ORD);
 800e13a:	4649      	mov	r1, r9
 800e13c:	4650      	mov	r0, sl
 800e13e:	220a      	movs	r2, #10
 800e140:	f008 f8f6 	bl	8016330 <lsp_to_lpc>
	aks_to_M2(c2->fftr_fwd_cfg, &ak[i][0], LPC_ORD, &model[i], e[i], &snr, 0, 0,
 800e144:	9b07      	ldr	r3, [sp, #28]
 800e146:	ecb5 0a01 	vldmia	r5!, {s0}
 800e14a:	ed93 1a00 	vldr	s2, [r3]
 800e14e:	9b08      	ldr	r3, [sp, #32]
 800e150:	edd3 0a00 	vldr	s1, [r3]
 800e154:	9705      	str	r7, [sp, #20]
 800e156:	e9cd bb01 	strd	fp, fp, [sp, #4]
 800e15a:	ab0a      	add	r3, sp, #40	; 0x28
 800e15c:	9300      	str	r3, [sp, #0]
 800e15e:	f8d4 3db8 	ldr.w	r3, [r4, #3512]	; 0xdb8
 800e162:	9304      	str	r3, [sp, #16]
 800e164:	f8d4 3db4 	ldr.w	r3, [r4, #3508]	; 0xdb4
 800e168:	9303      	str	r3, [sp, #12]
 800e16a:	4649      	mov	r1, r9
 800e16c:	4633      	mov	r3, r6
 800e16e:	220a      	movs	r2, #10
 800e170:	6be0      	ldr	r0, [r4, #60]	; 0x3c
 800e172:	f00c ff75 	bl	801b060 <aks_to_M2>
	apply_lpc_correction(&model[i]);
 800e176:	4630      	mov	r0, r6
 800e178:	f00d fdc2 	bl	801bd00 <apply_lpc_correction>
	synthesise_one_frame(c2, &speech[c2->n_samp*i], &model[i], Aw, 1.0);
 800e17c:	6b23      	ldr	r3, [r4, #48]	; 0x30
 800e17e:	9a06      	ldr	r2, [sp, #24]
 800e180:	fb03 f308 	mul.w	r3, r3, r8
 800e184:	eb02 0143 	add.w	r1, r2, r3, lsl #1
 800e188:	eeb7 0a00 	vmov.f32	s0, #112	; 0x3f800000  1.0
 800e18c:	4632      	mov	r2, r6
    for(i=0; i<4; i++) {
 800e18e:	f108 0801 	add.w	r8, r8, #1
	synthesise_one_frame(c2, &speech[c2->n_samp*i], &model[i], Aw, 1.0);
 800e192:	463b      	mov	r3, r7
 800e194:	4620      	mov	r0, r4
 800e196:	f7ff fbe7 	bl	800d968 <synthesise_one_frame>
    for(i=0; i<4; i++) {
 800e19a:	f1b8 0f04 	cmp.w	r8, #4
 800e19e:	f10a 0a28 	add.w	sl, sl, #40	; 0x28
 800e1a2:	f109 092c 	add.w	r9, r9, #44	; 0x2c
 800e1a6:	f206 5614 	addw	r6, r6, #1300	; 0x514
 800e1aa:	d1c6      	bne.n	800e13a <codec2_decode_1600+0x232>
    c2->prev_model_dec = model[3];
 800e1ac:	f50d 53b0 	add.w	r3, sp, #5632	; 0x1600
 800e1b0:	3308      	adds	r3, #8
 800e1b2:	f603 21ec 	addw	r1, r3, #2796	; 0xaec
 800e1b6:	ee1a 0a10 	vmov	r0, s20
 800e1ba:	f240 5214 	movw	r2, #1300	; 0x514
 800e1be:	f015 fdb9 	bl	8023d34 <memcpy>
    c2->prev_e_dec = e[3];
 800e1c2:	9b09      	ldr	r3, [sp, #36]	; 0x24
	c2->prev_lsps_dec[i] = lsps[3][i];
 800e1c4:	ee19 5a10 	vmov	r5, s18
    c2->prev_e_dec = e[3];
 800e1c8:	edc3 8a00 	vstr	s17, [r3]
	c2->prev_lsps_dec[i] = lsps[3][i];
 800e1cc:	ab22      	add	r3, sp, #136	; 0x88
 800e1ce:	ae38      	add	r6, sp, #224	; 0xe0
 800e1d0:	f103 0778 	add.w	r7, r3, #120	; 0x78
 800e1d4:	4634      	mov	r4, r6
 800e1d6:	cc0f      	ldmia	r4!, {r0, r1, r2, r3}
 800e1d8:	42bc      	cmp	r4, r7
 800e1da:	f105 0510 	add.w	r5, r5, #16
 800e1de:	4626      	mov	r6, r4
 800e1e0:	f845 0c10 	str.w	r0, [r5, #-16]
 800e1e4:	f845 1c0c 	str.w	r1, [r5, #-12]
 800e1e8:	f845 2c08 	str.w	r2, [r5, #-8]
 800e1ec:	f845 3c04 	str.w	r3, [r5, #-4]
 800e1f0:	d1f0      	bne.n	800e1d4 <codec2_decode_1600+0x2cc>
 800e1f2:	ce03      	ldmia	r6!, {r0, r1}
 800e1f4:	6028      	str	r0, [r5, #0]
 800e1f6:	6069      	str	r1, [r5, #4]
}
 800e1f8:	f50d 5d18 	add.w	sp, sp, #9728	; 0x2600
 800e1fc:	b003      	add	sp, #12
 800e1fe:	ecbd 8b06 	vpop	{d8-d10}
 800e202:	e8bd 8ff0 	ldmia.w	sp!, {r4, r5, r6, r7, r8, r9, sl, fp, pc}
    assert(c2 != NULL);
 800e206:	4b06      	ldr	r3, [pc, #24]	; (800e220 <codec2_decode_1600+0x318>)
 800e208:	4a06      	ldr	r2, [pc, #24]	; (800e224 <codec2_decode_1600+0x31c>)
 800e20a:	4807      	ldr	r0, [pc, #28]	; (800e228 <codec2_decode_1600+0x320>)
 800e20c:	f240 3193 	movw	r1, #915	; 0x393
 800e210:	f015 f9bc 	bl	802358c <__assert_func>
 800e214:	f3af 8000 	nop.w
 800e218:	42c80000 	.word	0x42c80000
 800e21c:	42480000 	.word	0x42480000
 800e220:	0804cb68 	.word	0x0804cb68
 800e224:	0804cc54 	.word	0x0804cc54
 800e228:	0804cb40 	.word	0x0804cb40
 800e22c:	54524550 	.word	0x54524550
 800e230:	400921fb 	.word	0x400921fb

0800e234 <codec2_decode_1400>:
{
 800e234:	e92d 4ff0 	stmdb	sp!, {r4, r5, r6, r7, r8, r9, sl, fp, lr}
 800e238:	ed2d 8b04 	vpush	{d8-d9}
 800e23c:	f5ad 5d18 	sub.w	sp, sp, #9728	; 0x2600
 800e240:	b083      	sub	sp, #12
    unsigned int nbit = 0;
 800e242:	ab0b      	add	r3, sp, #44	; 0x2c
{
 800e244:	4690      	mov	r8, r2
    unsigned int nbit = 0;
 800e246:	2200      	movs	r2, #0
{
 800e248:	9106      	str	r1, [sp, #24]
    unsigned int nbit = 0;
 800e24a:	601a      	str	r2, [r3, #0]
    assert(c2 != NULL);
 800e24c:	2800      	cmp	r0, #0
 800e24e:	f000 8136 	beq.w	800e4be <codec2_decode_1400+0x28a>
 800e252:	f50d 538e 	add.w	r3, sp, #4544	; 0x11c0
 800e256:	3308      	adds	r3, #8
 800e258:	f50d 558d 	add.w	r5, sp, #4512	; 0x11a0
 800e25c:	f50d 5618 	add.w	r6, sp, #9728	; 0x2600
 800e260:	4604      	mov	r4, r0
 800e262:	3b04      	subs	r3, #4
 800e264:	3518      	adds	r5, #24
 800e266:	3614      	adds	r6, #20
	    model[i].A[j] = 0.0;
 800e268:	4618      	mov	r0, r3
 800e26a:	f44f 7220 	mov.w	r2, #640	; 0x280
 800e26e:	2100      	movs	r1, #0
 800e270:	f015 fd88 	bl	8023d84 <memset>
    for(i=0; i<4; i++)
 800e274:	f200 5314 	addw	r3, r0, #1300	; 0x514
 800e278:	42b3      	cmp	r3, r6
 800e27a:	d1f5      	bne.n	800e268 <codec2_decode_1400+0x34>
    model[0].voiced = unpack(bits, &nbit, 1);
 800e27c:	f50d 53b0 	add.w	r3, sp, #5632	; 0x1600
 800e280:	3308      	adds	r3, #8
 800e282:	2201      	movs	r2, #1
 800e284:	a90b      	add	r1, sp, #44	; 0x2c
 800e286:	4640      	mov	r0, r8
 800e288:	f5a3 678a 	sub.w	r7, r3, #1104	; 0x450
 800e28c:	f00c f8b8 	bl	801a400 <unpack>
    model[1].voiced = unpack(bits, &nbit, 1);
 800e290:	2201      	movs	r2, #1
    model[0].voiced = unpack(bits, &nbit, 1);
 800e292:	f8c7 0510 	str.w	r0, [r7, #1296]	; 0x510
    model[1].voiced = unpack(bits, &nbit, 1);
 800e296:	a90b      	add	r1, sp, #44	; 0x2c
 800e298:	4640      	mov	r0, r8
 800e29a:	f00c f8b1 	bl	801a400 <unpack>
    WoE_index = unpack(bits, &nbit, WO_E_BITS);
 800e29e:	2208      	movs	r2, #8
    model[1].voiced = unpack(bits, &nbit, 1);
 800e2a0:	f8c7 0a24 	str.w	r0, [r7, #2596]	; 0xa24
    WoE_index = unpack(bits, &nbit, WO_E_BITS);
 800e2a4:	a90b      	add	r1, sp, #44	; 0x2c
 800e2a6:	4640      	mov	r0, r8
 800e2a8:	f00c f8aa 	bl	801a400 <unpack>
    decode_WoE(&c2->c2const, &model[1], &e[1], c2->xq_dec, WoE_index);
 800e2ac:	f50d 518e 	add.w	r1, sp, #4544	; 0x11c0
 800e2b0:	1d26      	adds	r6, r4, #4
 800e2b2:	3108      	adds	r1, #8
 800e2b4:	f604 53cc 	addw	r3, r4, #3532	; 0xdcc
 800e2b8:	9000      	str	r0, [sp, #0]
 800e2ba:	aa0d      	add	r2, sp, #52	; 0x34
 800e2bc:	4630      	mov	r0, r6
 800e2be:	f201 5104 	addw	r1, r1, #1284	; 0x504
 800e2c2:	9307      	str	r3, [sp, #28]
 800e2c4:	f00d ff24 	bl	801c110 <decode_WoE>
    model[2].voiced = unpack(bits, &nbit, 1);
 800e2c8:	2201      	movs	r2, #1
 800e2ca:	a90b      	add	r1, sp, #44	; 0x2c
 800e2cc:	4640      	mov	r0, r8
 800e2ce:	f00c f897 	bl	801a400 <unpack>
    model[3].voiced = unpack(bits, &nbit, 1);
 800e2d2:	2201      	movs	r2, #1
    model[2].voiced = unpack(bits, &nbit, 1);
 800e2d4:	f8c7 0f38 	str.w	r0, [r7, #3896]	; 0xf38
    model[3].voiced = unpack(bits, &nbit, 1);
 800e2d8:	a90b      	add	r1, sp, #44	; 0x2c
 800e2da:	4640      	mov	r0, r8
 800e2dc:	f00c f890 	bl	801a400 <unpack>
 800e2e0:	f50d 5318 	add.w	r3, sp, #9728	; 0x2600
    WoE_index = unpack(bits, &nbit, WO_E_BITS);
 800e2e4:	2208      	movs	r2, #8
    model[3].voiced = unpack(bits, &nbit, 1);
 800e2e6:	6058      	str	r0, [r3, #4]
    WoE_index = unpack(bits, &nbit, WO_E_BITS);
 800e2e8:	a90b      	add	r1, sp, #44	; 0x2c
 800e2ea:	4640      	mov	r0, r8
    model[3].voiced = unpack(bits, &nbit, 1);
 800e2ec:	3304      	adds	r3, #4
    WoE_index = unpack(bits, &nbit, WO_E_BITS);
 800e2ee:	f00c f887 	bl	801a400 <unpack>
    decode_WoE(&c2->c2const, &model[3], &e[3], c2->xq_dec, WoE_index);
 800e2f2:	f50d 518e 	add.w	r1, sp, #4544	; 0x11c0
 800e2f6:	3108      	adds	r1, #8
 800e2f8:	9000      	str	r0, [sp, #0]
 800e2fa:	9b07      	ldr	r3, [sp, #28]
 800e2fc:	4630      	mov	r0, r6
 800e2fe:	aa0f      	add	r2, sp, #60	; 0x3c
 800e300:	f601 712c 	addw	r1, r1, #3884	; 0xf2c
 800e304:	f00d ff04 	bl	801c110 <decode_WoE>
    for(i=0; i<LSP_SCALAR_INDEXES; i++) {
 800e308:	2600      	movs	r6, #0
 800e30a:	af10      	add	r7, sp, #64	; 0x40
	lsp_indexes[i] = unpack(bits, &nbit, lsp_bits(i));
 800e30c:	4630      	mov	r0, r6
 800e30e:	f00c fb55 	bl	801a9bc <lsp_bits>
 800e312:	4602      	mov	r2, r0
 800e314:	a90b      	add	r1, sp, #44	; 0x2c
 800e316:	4640      	mov	r0, r8
 800e318:	f00c f872 	bl	801a400 <unpack>
    for(i=0; i<LSP_SCALAR_INDEXES; i++) {
 800e31c:	3601      	adds	r6, #1
 800e31e:	2e0a      	cmp	r6, #10
	lsp_indexes[i] = unpack(bits, &nbit, lsp_bits(i));
 800e320:	f847 0b04 	str.w	r0, [r7], #4
    for(i=0; i<LSP_SCALAR_INDEXES; i++) {
 800e324:	d1f2      	bne.n	800e30c <codec2_decode_1400+0xd8>
    decode_lsps_scalar(&lsps[3][0], lsp_indexes, LPC_ORD);
 800e326:	af38      	add	r7, sp, #224	; 0xe0
 800e328:	4632      	mov	r2, r6
 800e32a:	a910      	add	r1, sp, #64	; 0x40
 800e32c:	4638      	mov	r0, r7
 800e32e:	f00d f9e7 	bl	801b700 <decode_lsps_scalar>
    check_lsp_order(&lsps[3][0], LPC_ORD);
 800e332:	4631      	mov	r1, r6
 800e334:	4638      	mov	r0, r7
 800e336:	f00c fd7f 	bl	801ae38 <check_lsp_order>
    bw_expand_lsps(&lsps[3][0], LPC_ORD, 50.0, 100.0);
 800e33a:	4631      	mov	r1, r6
 800e33c:	eddf 0a63 	vldr	s1, [pc, #396]	; 800e4cc <codec2_decode_1400+0x298>
 800e340:	ed9f 0a63 	vldr	s0, [pc, #396]	; 800e4d0 <codec2_decode_1400+0x29c>
 800e344:	4638      	mov	r0, r7
 800e346:	f00d fc3f 	bl	801bbc8 <bw_expand_lsps>
    interp_Wo(&model[0], &c2->prev_model_dec, &model[1], c2->c2const.Wo_min);
 800e34a:	f50d 538e 	add.w	r3, sp, #4544	; 0x11c0
 800e34e:	3308      	adds	r3, #8
 800e350:	f203 5804 	addw	r8, r3, #1284	; 0x504
 800e354:	f50d 508d 	add.w	r0, sp, #4512	; 0x11a0
 800e358:	f604 0174 	addw	r1, r4, #2164	; 0x874
 800e35c:	4642      	mov	r2, r8
 800e35e:	3018      	adds	r0, #24
 800e360:	ed94 0a07 	vldr	s0, [r4, #28]
    e[0] = interp_energy(c2->prev_e_dec, e[1]);
 800e364:	ae0c      	add	r6, sp, #48	; 0x30
    interp_Wo(&model[0], &c2->prev_model_dec, &model[1], c2->c2const.Wo_min);
 800e366:	ee09 1a90 	vmov	s19, r1
 800e36a:	f005 fc65 	bl	8013c38 <interp_Wo>
    e[0] = interp_energy(c2->prev_e_dec, e[1]);
 800e36e:	f504 635b 	add.w	r3, r4, #3504	; 0xdb0
 800e372:	edd6 0a01 	vldr	s1, [r6, #4]
 800e376:	ed93 0a00 	vldr	s0, [r3]
 800e37a:	9309      	str	r3, [sp, #36]	; 0x24
 800e37c:	f005 fd06 	bl	8013d8c <interp_energy>
    interp_Wo(&model[2], &model[1], &model[3], c2->c2const.Wo_min);
 800e380:	f50d 538e 	add.w	r3, sp, #4544	; 0x11c0
 800e384:	3308      	adds	r3, #8
    e[0] = interp_energy(c2->prev_e_dec, e[1]);
 800e386:	ed86 0a00 	vstr	s0, [r6]
    interp_Wo(&model[2], &model[1], &model[3], c2->c2const.Wo_min);
 800e38a:	4641      	mov	r1, r8
 800e38c:	f603 722c 	addw	r2, r3, #3884	; 0xf2c
 800e390:	f603 2018 	addw	r0, r3, #2584	; 0xa18
 800e394:	ed94 0a07 	vldr	s0, [r4, #28]
 800e398:	f005 fc4e 	bl	8013c38 <interp_Wo>
    e[2] = interp_energy(e[1], e[3]);
 800e39c:	edd6 0a03 	vldr	s1, [r6, #12]
 800e3a0:	ed96 0a01 	vldr	s0, [r6, #4]
 800e3a4:	f005 fcf2 	bl	8013d8c <interp_energy>
	interpolate_lsp_ver2(&lsps[i][0], c2->prev_lsps_dec, &lsps[3][0], weight, LPC_ORD);
 800e3a8:	f604 5388 	addw	r3, r4, #3464	; 0xd88
    for(i=0, weight=0.25; i<3; i++, weight += 0.25) {
 800e3ac:	eeb5 8a00 	vmov.f32	s16, #80	; 0x3e800000  0.250
 800e3b0:	f10d 0968 	add.w	r9, sp, #104	; 0x68
	interpolate_lsp_ver2(&lsps[i][0], c2->prev_lsps_dec, &lsps[3][0], weight, LPC_ORD);
 800e3b4:	ee09 3a10 	vmov	s18, r3
    e[2] = interp_energy(e[1], e[3]);
 800e3b8:	ed86 0a02 	vstr	s0, [r6, #8]
    for(i=0, weight=0.25; i<3; i++, weight += 0.25) {
 800e3bc:	eef0 8a48 	vmov.f32	s17, s16
	interpolate_lsp_ver2(&lsps[i][0], c2->prev_lsps_dec, &lsps[3][0], weight, LPC_ORD);
 800e3c0:	464e      	mov	r6, r9
 800e3c2:	4698      	mov	r8, r3
 800e3c4:	eeb0 0a48 	vmov.f32	s0, s16
 800e3c8:	4630      	mov	r0, r6
 800e3ca:	230a      	movs	r3, #10
    for(i=0, weight=0.25; i<3; i++, weight += 0.25) {
 800e3cc:	3628      	adds	r6, #40	; 0x28
	interpolate_lsp_ver2(&lsps[i][0], c2->prev_lsps_dec, &lsps[3][0], weight, LPC_ORD);
 800e3ce:	463a      	mov	r2, r7
 800e3d0:	4641      	mov	r1, r8
 800e3d2:	f005 fd37 	bl	8013e44 <interpolate_lsp_ver2>
    for(i=0, weight=0.25; i<3; i++, weight += 0.25) {
 800e3d6:	42be      	cmp	r6, r7
 800e3d8:	ee38 8a28 	vadd.f32	s16, s16, s17
 800e3dc:	d1f2      	bne.n	800e3c4 <codec2_decode_1400+0x190>
 800e3de:	f504 635c 	add.w	r3, r4, #3520	; 0xdc0
    for(i=0; i<4; i++) {
 800e3e2:	2600      	movs	r6, #0
 800e3e4:	9308      	str	r3, [sp, #32]
 800e3e6:	f604 53bc 	addw	r3, r4, #3516	; 0xdbc
 800e3ea:	f10d 0a30 	add.w	sl, sp, #48	; 0x30
 800e3ee:	f50d 7884 	add.w	r8, sp, #264	; 0x108
 800e3f2:	9307      	str	r3, [sp, #28]
 800e3f4:	af6e      	add	r7, sp, #440	; 0x1b8
	aks_to_M2(c2->fftr_fwd_cfg, &ak[i][0], LPC_ORD, &model[i], e[i], &snr, 0, 0,
 800e3f6:	46b3      	mov	fp, r6
	lsp_to_lpc(&lsps[i][0], &ak[i][0], LPC_ORD);
 800e3f8:	4641      	mov	r1, r8
 800e3fa:	4648      	mov	r0, r9
 800e3fc:	220a      	movs	r2, #10
 800e3fe:	f007 ff97 	bl	8016330 <lsp_to_lpc>
	aks_to_M2(c2->fftr_fwd_cfg, &ak[i][0], LPC_ORD, &model[i], e[i], &snr, 0, 0,
 800e402:	9b08      	ldr	r3, [sp, #32]
 800e404:	ecba 0a01 	vldmia	sl!, {s0}
 800e408:	ed93 1a00 	vldr	s2, [r3]
 800e40c:	9b07      	ldr	r3, [sp, #28]
 800e40e:	edd3 0a00 	vldr	s1, [r3]
 800e412:	9705      	str	r7, [sp, #20]
 800e414:	e9cd bb01 	strd	fp, fp, [sp, #4]
 800e418:	ab0a      	add	r3, sp, #40	; 0x28
 800e41a:	9300      	str	r3, [sp, #0]
 800e41c:	f8d4 3db8 	ldr.w	r3, [r4, #3512]	; 0xdb8
 800e420:	9304      	str	r3, [sp, #16]
 800e422:	f8d4 3db4 	ldr.w	r3, [r4, #3508]	; 0xdb4
 800e426:	9303      	str	r3, [sp, #12]
 800e428:	4641      	mov	r1, r8
 800e42a:	462b      	mov	r3, r5
 800e42c:	220a      	movs	r2, #10
 800e42e:	6be0      	ldr	r0, [r4, #60]	; 0x3c
 800e430:	f00c fe16 	bl	801b060 <aks_to_M2>
	apply_lpc_correction(&model[i]);
 800e434:	4628      	mov	r0, r5
 800e436:	f00d fc63 	bl	801bd00 <apply_lpc_correction>
	synthesise_one_frame(c2, &speech[c2->n_samp*i], &model[i], Aw, 1.0);
 800e43a:	6b23      	ldr	r3, [r4, #48]	; 0x30
 800e43c:	9a06      	ldr	r2, [sp, #24]
 800e43e:	fb06 f303 	mul.w	r3, r6, r3
 800e442:	eb02 0143 	add.w	r1, r2, r3, lsl #1
 800e446:	eeb7 0a00 	vmov.f32	s0, #112	; 0x3f800000  1.0
 800e44a:	462a      	mov	r2, r5
    for(i=0; i<4; i++) {
 800e44c:	3601      	adds	r6, #1
	synthesise_one_frame(c2, &speech[c2->n_samp*i], &model[i], Aw, 1.0);
 800e44e:	463b      	mov	r3, r7
 800e450:	4620      	mov	r0, r4
 800e452:	f7ff fa89 	bl	800d968 <synthesise_one_frame>
    for(i=0; i<4; i++) {
 800e456:	2e04      	cmp	r6, #4
 800e458:	f109 0928 	add.w	r9, r9, #40	; 0x28
 800e45c:	f108 082c 	add.w	r8, r8, #44	; 0x2c
 800e460:	f205 5514 	addw	r5, r5, #1300	; 0x514
 800e464:	d1c8      	bne.n	800e3f8 <codec2_decode_1400+0x1c4>
    c2->prev_model_dec = model[3];
 800e466:	f50d 53b0 	add.w	r3, sp, #5632	; 0x1600
 800e46a:	3308      	adds	r3, #8
 800e46c:	f603 21ec 	addw	r1, r3, #2796	; 0xaec
 800e470:	f240 5214 	movw	r2, #1300	; 0x514
 800e474:	ee19 0a90 	vmov	r0, s19
 800e478:	f015 fc5c 	bl	8023d34 <memcpy>
    c2->prev_e_dec = e[3];
 800e47c:	ab0c      	add	r3, sp, #48	; 0x30
 800e47e:	9a09      	ldr	r2, [sp, #36]	; 0x24
 800e480:	68db      	ldr	r3, [r3, #12]
 800e482:	6013      	str	r3, [r2, #0]
	c2->prev_lsps_dec[i] = lsps[3][i];
 800e484:	ee19 4a10 	vmov	r4, s18
 800e488:	ae38      	add	r6, sp, #224	; 0xe0
 800e48a:	af40      	add	r7, sp, #256	; 0x100
 800e48c:	4635      	mov	r5, r6
 800e48e:	cd0f      	ldmia	r5!, {r0, r1, r2, r3}
 800e490:	42bd      	cmp	r5, r7
 800e492:	f104 0410 	add.w	r4, r4, #16
 800e496:	462e      	mov	r6, r5
 800e498:	f844 0c10 	str.w	r0, [r4, #-16]
 800e49c:	f844 1c0c 	str.w	r1, [r4, #-12]
 800e4a0:	f844 2c08 	str.w	r2, [r4, #-8]
 800e4a4:	f844 3c04 	str.w	r3, [r4, #-4]
 800e4a8:	d1f0      	bne.n	800e48c <codec2_decode_1400+0x258>
 800e4aa:	ce03      	ldmia	r6!, {r0, r1}
 800e4ac:	6020      	str	r0, [r4, #0]
 800e4ae:	6061      	str	r1, [r4, #4]
}
 800e4b0:	f50d 5d18 	add.w	sp, sp, #9728	; 0x2600
 800e4b4:	b003      	add	sp, #12
 800e4b6:	ecbd 8b04 	vpop	{d8-d9}
 800e4ba:	e8bd 8ff0 	ldmia.w	sp!, {r4, r5, r6, r7, r8, r9, sl, fp, pc}
    assert(c2 != NULL);
 800e4be:	4b05      	ldr	r3, [pc, #20]	; (800e4d4 <codec2_decode_1400+0x2a0>)
 800e4c0:	4a05      	ldr	r2, [pc, #20]	; (800e4d8 <codec2_decode_1400+0x2a4>)
 800e4c2:	4806      	ldr	r0, [pc, #24]	; (800e4dc <codec2_decode_1400+0x2a8>)
 800e4c4:	f240 4145 	movw	r1, #1093	; 0x445
 800e4c8:	f015 f860 	bl	802358c <__assert_func>
 800e4cc:	42c80000 	.word	0x42c80000
 800e4d0:	42480000 	.word	0x42480000
 800e4d4:	0804cb68 	.word	0x0804cb68
 800e4d8:	0804cc2c 	.word	0x0804cc2c
 800e4dc:	0804cb40 	.word	0x0804cb40

0800e4e0 <codec2_decode_1300>:
{
 800e4e0:	e92d 4ff0 	stmdb	sp!, {r4, r5, r6, r7, r8, r9, sl, fp, lr}
 800e4e4:	ed2d 8b04 	vpush	{d8-d9}
 800e4e8:	f5ad 5d18 	sub.w	sp, sp, #9728	; 0x2600
 800e4ec:	b085      	sub	sp, #20
    unsigned int nbit = 0;
 800e4ee:	ab0c      	add	r3, sp, #48	; 0x30
{
 800e4f0:	4690      	mov	r8, r2
    unsigned int nbit = 0;
 800e4f2:	2200      	movs	r2, #0
{
 800e4f4:	9106      	str	r1, [sp, #24]
    unsigned int nbit = 0;
 800e4f6:	601a      	str	r2, [r3, #0]
    assert(c2 != NULL);
 800e4f8:	2800      	cmp	r0, #0
 800e4fa:	f000 81a8 	beq.w	800e84e <codec2_decode_1300+0x36e>
 800e4fe:	f50d 538e 	add.w	r3, sp, #4544	; 0x11c0
 800e502:	3310      	adds	r3, #16
 800e504:	f50d 5718 	add.w	r7, sp, #9728	; 0x2600
 800e508:	ee10 9a10 	vmov	r9, s0
 800e50c:	4604      	mov	r4, r0
 800e50e:	1f1e      	subs	r6, r3, #4
 800e510:	f50d 558e 	add.w	r5, sp, #4544	; 0x11c0
 800e514:	371c      	adds	r7, #28
	    model[i].A[j] = 0.0;
 800e516:	4630      	mov	r0, r6
 800e518:	f44f 7220 	mov.w	r2, #640	; 0x280
    for(i=0; i<4; i++)
 800e51c:	f206 5614 	addw	r6, r6, #1300	; 0x514
	    model[i].A[j] = 0.0;
 800e520:	2100      	movs	r1, #0
 800e522:	f015 fc2f 	bl	8023d84 <memset>
    for(i=0; i<4; i++)
 800e526:	42be      	cmp	r6, r7
 800e528:	d1f5      	bne.n	800e516 <codec2_decode_1300+0x36>
    model[0].voiced = unpack_natural_or_gray(bits, &nbit, 1, c2->gray);
 800e52a:	f8d4 385c 	ldr.w	r3, [r4, #2140]	; 0x85c
 800e52e:	2201      	movs	r2, #1
 800e530:	a90c      	add	r1, sp, #48	; 0x30
 800e532:	4640      	mov	r0, r8
 800e534:	f50d 5a8e 	add.w	sl, sp, #4544	; 0x11c0
 800e538:	f00b ff8c 	bl	801a454 <unpack_natural_or_gray>
    model[1].voiced = unpack_natural_or_gray(bits, &nbit, 1, c2->gray);
 800e53c:	f8d4 385c 	ldr.w	r3, [r4, #2140]	; 0x85c
    model[0].voiced = unpack_natural_or_gray(bits, &nbit, 1, c2->gray);
 800e540:	f8ca 0510 	str.w	r0, [sl, #1296]	; 0x510
    model[1].voiced = unpack_natural_or_gray(bits, &nbit, 1, c2->gray);
 800e544:	2201      	movs	r2, #1
 800e546:	a90c      	add	r1, sp, #48	; 0x30
 800e548:	4640      	mov	r0, r8
 800e54a:	f00b ff83 	bl	801a454 <unpack_natural_or_gray>
    model[2].voiced = unpack_natural_or_gray(bits, &nbit, 1, c2->gray);
 800e54e:	f8d4 385c 	ldr.w	r3, [r4, #2140]	; 0x85c
    model[1].voiced = unpack_natural_or_gray(bits, &nbit, 1, c2->gray);
 800e552:	f8ca 0a24 	str.w	r0, [sl, #2596]	; 0xa24
    model[2].voiced = unpack_natural_or_gray(bits, &nbit, 1, c2->gray);
 800e556:	2201      	movs	r2, #1
 800e558:	a90c      	add	r1, sp, #48	; 0x30
 800e55a:	4640      	mov	r0, r8
 800e55c:	f00b ff7a 	bl	801a454 <unpack_natural_or_gray>
    model[3].voiced = unpack_natural_or_gray(bits, &nbit, 1, c2->gray);
 800e560:	f8d4 385c 	ldr.w	r3, [r4, #2140]	; 0x85c
    model[2].voiced = unpack_natural_or_gray(bits, &nbit, 1, c2->gray);
 800e564:	f8ca 0f38 	str.w	r0, [sl, #3896]	; 0xf38
    model[3].voiced = unpack_natural_or_gray(bits, &nbit, 1, c2->gray);
 800e568:	2201      	movs	r2, #1
 800e56a:	a90c      	add	r1, sp, #48	; 0x30
 800e56c:	4640      	mov	r0, r8
 800e56e:	f00b ff71 	bl	801a454 <unpack_natural_or_gray>
 800e572:	f50d 5318 	add.w	r3, sp, #9728	; 0x2600
 800e576:	330c      	adds	r3, #12
    Wo_index = unpack_natural_or_gray(bits, &nbit, WO_BITS, c2->gray);
 800e578:	2207      	movs	r2, #7
    model[3].voiced = unpack_natural_or_gray(bits, &nbit, 1, c2->gray);
 800e57a:	6018      	str	r0, [r3, #0]
    Wo_index = unpack_natural_or_gray(bits, &nbit, WO_BITS, c2->gray);
 800e57c:	a90c      	add	r1, sp, #48	; 0x30
 800e57e:	f8d4 385c 	ldr.w	r3, [r4, #2140]	; 0x85c
 800e582:	4640      	mov	r0, r8
 800e584:	f00b ff66 	bl	801a454 <unpack_natural_or_gray>
    model[3].Wo = decode_Wo(&c2->c2const, Wo_index, WO_BITS);
 800e588:	2207      	movs	r2, #7
    Wo_index = unpack_natural_or_gray(bits, &nbit, WO_BITS, c2->gray);
 800e58a:	4601      	mov	r1, r0
    model[3].Wo = decode_Wo(&c2->c2const, Wo_index, WO_BITS);
 800e58c:	1d20      	adds	r0, r4, #4
 800e58e:	f00c fed7 	bl	801b340 <decode_Wo>
 800e592:	f50d 5303 	add.w	r3, sp, #8384	; 0x20c0
 800e596:	ed83 0a0f 	vstr	s0, [r3, #60]	; 0x3c
 800e59a:	ee10 0a10 	vmov	r0, s0
 800e59e:	333c      	adds	r3, #60	; 0x3c
    model[3].L  = PI/model[3].Wo;
 800e5a0:	f7fd ffea 	bl	800c578 <__aeabi_f2d>
 800e5a4:	4602      	mov	r2, r0
 800e5a6:	460b      	mov	r3, r1
 800e5a8:	a1b5      	add	r1, pc, #724	; (adr r1, 800e880 <codec2_decode_1300+0x3a0>)
 800e5aa:	e9d1 0100 	ldrd	r0, r1, [r1]
 800e5ae:	af12      	add	r7, sp, #72	; 0x48
 800e5b0:	f7fe f964 	bl	800c87c <__aeabi_ddiv>
 800e5b4:	f7fe fae8 	bl	800cb88 <__aeabi_d2iz>
    e_index = unpack_natural_or_gray(bits, &nbit, E_BITS, c2->gray);
 800e5b8:	f8d4 385c 	ldr.w	r3, [r4, #2140]	; 0x85c
    model[3].L  = PI/model[3].Wo;
 800e5bc:	f8ca 0f40 	str.w	r0, [sl, #3904]	; 0xf40
    e_index = unpack_natural_or_gray(bits, &nbit, E_BITS, c2->gray);
 800e5c0:	2205      	movs	r2, #5
 800e5c2:	a90c      	add	r1, sp, #48	; 0x30
 800e5c4:	4640      	mov	r0, r8
 800e5c6:	f00b ff45 	bl	801a454 <unpack_natural_or_gray>
    e[3] = decode_energy(e_index, E_BITS);
 800e5ca:	2105      	movs	r1, #5
 800e5cc:	f00d fbe0 	bl	801bd90 <decode_energy>
    for(i=0; i<LSP_SCALAR_INDEXES; i++) {
 800e5d0:	2600      	movs	r6, #0
    e[3] = decode_energy(e_index, E_BITS);
 800e5d2:	ab0e      	add	r3, sp, #56	; 0x38
 800e5d4:	ed83 0a03 	vstr	s0, [r3, #12]
	lsp_indexes[i] = unpack_natural_or_gray(bits, &nbit, lsp_bits(i), c2->gray);
 800e5d8:	4630      	mov	r0, r6
 800e5da:	f00c f9ef 	bl	801a9bc <lsp_bits>
 800e5de:	f8d4 385c 	ldr.w	r3, [r4, #2140]	; 0x85c
 800e5e2:	4602      	mov	r2, r0
 800e5e4:	a90c      	add	r1, sp, #48	; 0x30
 800e5e6:	4640      	mov	r0, r8
 800e5e8:	f00b ff34 	bl	801a454 <unpack_natural_or_gray>
    for(i=0; i<LSP_SCALAR_INDEXES; i++) {
 800e5ec:	3601      	adds	r6, #1
 800e5ee:	2e0a      	cmp	r6, #10
	lsp_indexes[i] = unpack_natural_or_gray(bits, &nbit, lsp_bits(i), c2->gray);
 800e5f0:	f847 0b04 	str.w	r0, [r7], #4
    for(i=0; i<LSP_SCALAR_INDEXES; i++) {
 800e5f4:	d1f0      	bne.n	800e5d8 <codec2_decode_1300+0xf8>
    decode_lsps_scalar(&lsps[3][0], lsp_indexes, LPC_ORD);
 800e5f6:	af3a      	add	r7, sp, #232	; 0xe8
 800e5f8:	4632      	mov	r2, r6
 800e5fa:	a912      	add	r1, sp, #72	; 0x48
 800e5fc:	4638      	mov	r0, r7
 800e5fe:	f00d f87f 	bl	801b700 <decode_lsps_scalar>
    check_lsp_order(&lsps[3][0], LPC_ORD);
 800e602:	4631      	mov	r1, r6
 800e604:	4638      	mov	r0, r7
 800e606:	f00c fc17 	bl	801ae38 <check_lsp_order>
    bw_expand_lsps(&lsps[3][0], LPC_ORD, 50.0, 100.0);
 800e60a:	eddf 0a97 	vldr	s1, [pc, #604]	; 800e868 <codec2_decode_1300+0x388>
 800e60e:	ed9f 0a97 	vldr	s0, [pc, #604]	; 800e86c <codec2_decode_1300+0x38c>
 800e612:	4631      	mov	r1, r6
 800e614:	4638      	mov	r0, r7
 800e616:	f00d fad7 	bl	801bbc8 <bw_expand_lsps>
    if (ber_est > 0.15) {
 800e61a:	4648      	mov	r0, r9
 800e61c:	f7fd ffac 	bl	800c578 <__aeabi_f2d>
 800e620:	a38f      	add	r3, pc, #572	; (adr r3, 800e860 <codec2_decode_1300+0x380>)
 800e622:	e9d3 2300 	ldrd	r2, r3, [r3]
 800e626:	f7fe fa8f 	bl	800cb48 <__aeabi_dcmpgt>
 800e62a:	2800      	cmp	r0, #0
 800e62c:	f040 80ef 	bne.w	800e80e <codec2_decode_1300+0x32e>
        interp_Wo2(&model[i], &c2->prev_model_dec, &model[3], weight, c2->c2const.Wo_min);
 800e630:	f50d 538e 	add.w	r3, sp, #4544	; 0x11c0
 800e634:	3310      	adds	r3, #16
 800e636:	f603 712c 	addw	r1, r3, #3884	; 0xf2c
 800e63a:	f604 0274 	addw	r2, r4, #2164	; 0x874
	interpolate_lsp_ver2(&lsps[i][0], c2->prev_lsps_dec, &lsps[3][0], weight, LPC_ORD);
 800e63e:	f604 5388 	addw	r3, r4, #3464	; 0xd88
 800e642:	ae1c      	add	r6, sp, #112	; 0x70
 800e644:	f10d 0b38 	add.w	fp, sp, #56	; 0x38
 800e648:	f504 605b 	add.w	r0, r4, #3504	; 0xdb0
 800e64c:	ee08 3a90 	vmov	s17, r3
        interp_Wo2(&model[i], &c2->prev_model_dec, &model[3], weight, c2->c2const.Wo_min);
 800e650:	ee09 2a10 	vmov	s18, r2
 800e654:	e9cd 6b07 	strd	r6, fp, [sp, #28]
 800e658:	ee09 5a90 	vmov	s19, r5
 800e65c:	46da      	mov	sl, fp
 800e65e:	4637      	mov	r7, r6
 800e660:	f50d 588e 	add.w	r8, sp, #4544	; 0x11c0
 800e664:	f10d 09e8 	add.w	r9, sp, #232	; 0xe8
 800e668:	eeb5 8a00 	vmov.f32	s16, #80	; 0x3e800000  0.250
 800e66c:	9009      	str	r0, [sp, #36]	; 0x24
 800e66e:	460d      	mov	r5, r1
 800e670:	461e      	mov	r6, r3
 800e672:	4693      	mov	fp, r2
	interpolate_lsp_ver2(&lsps[i][0], c2->prev_lsps_dec, &lsps[3][0], weight, LPC_ORD);
 800e674:	eeb0 0a48 	vmov.f32	s0, s16
 800e678:	230a      	movs	r3, #10
 800e67a:	4638      	mov	r0, r7
 800e67c:	464a      	mov	r2, r9
 800e67e:	4631      	mov	r1, r6
 800e680:	f005 fbe0 	bl	8013e44 <interpolate_lsp_ver2>
        interp_Wo2(&model[i], &c2->prev_model_dec, &model[3], weight, c2->c2const.Wo_min);
 800e684:	eeb0 0a48 	vmov.f32	s0, s16
 800e688:	4640      	mov	r0, r8
 800e68a:	edd4 0a07 	vldr	s1, [r4, #28]
 800e68e:	462a      	mov	r2, r5
 800e690:	4659      	mov	r1, fp
 800e692:	f005 fb1d 	bl	8013cd0 <interp_Wo2>
        e[i] = interp_energy2(c2->prev_e_dec, e[3],weight);
 800e696:	9b09      	ldr	r3, [sp, #36]	; 0x24
 800e698:	ed93 0a00 	vldr	s0, [r3]
 800e69c:	eeb0 1a48 	vmov.f32	s2, s16
 800e6a0:	eddd 0a11 	vldr	s1, [sp, #68]	; 0x44
 800e6a4:	ab0e      	add	r3, sp, #56	; 0x38
 800e6a6:	f005 fb7f 	bl	8013da8 <interp_energy2>
    for(i=0, weight=0.25; i<3; i++, weight += 0.25) {
 800e6aa:	3728      	adds	r7, #40	; 0x28
 800e6ac:	eef5 7a00 	vmov.f32	s15, #80	; 0x3e800000  0.250
 800e6b0:	45b9      	cmp	r9, r7
 800e6b2:	ee38 8a27 	vadd.f32	s16, s16, s15
 800e6b6:	f208 5814 	addw	r8, r8, #1300	; 0x514
        e[i] = interp_energy2(c2->prev_e_dec, e[3],weight);
 800e6ba:	ecaa 0a01 	vstmia	sl!, {s0}
    for(i=0, weight=0.25; i<3; i++, weight += 0.25) {
 800e6be:	d1d9      	bne.n	800e674 <codec2_decode_1300+0x194>
 800e6c0:	f504 635c 	add.w	r3, r4, #3520	; 0xdc0
    for(i=0; i<4; i++) {
 800e6c4:	e9dd 6b07 	ldrd	r6, fp, [sp, #28]
 800e6c8:	ee19 5a90 	vmov	r5, s19
 800e6cc:	9308      	str	r3, [sp, #32]
 800e6ce:	f604 53bc 	addw	r3, r4, #3516	; 0xdbc
 800e6d2:	f04f 0900 	mov.w	r9, #0
 800e6d6:	f50d 7888 	add.w	r8, sp, #272	; 0x110
 800e6da:	9307      	str	r3, [sp, #28]
 800e6dc:	af70      	add	r7, sp, #448	; 0x1c0
 800e6de:	f504 5a80 	add.w	sl, r4, #4096	; 0x1000
	lsp_to_lpc(&lsps[i][0], &ak[i][0], LPC_ORD);
 800e6e2:	220a      	movs	r2, #10
 800e6e4:	4641      	mov	r1, r8
 800e6e6:	4630      	mov	r0, r6
 800e6e8:	f007 fe22 	bl	8016330 <lsp_to_lpc>
	aks_to_M2(c2->fftr_fwd_cfg, &ak[i][0], LPC_ORD, &model[i], e[i], &snr, 0, 0,
 800e6ec:	9b08      	ldr	r3, [sp, #32]
 800e6ee:	ed9b 0a00 	vldr	s0, [fp]
 800e6f2:	ed93 1a00 	vldr	s2, [r3]
 800e6f6:	9b07      	ldr	r3, [sp, #28]
 800e6f8:	edd3 0a00 	vldr	s1, [r3]
 800e6fc:	9705      	str	r7, [sp, #20]
 800e6fe:	2300      	movs	r3, #0
 800e700:	e9cd 3301 	strd	r3, r3, [sp, #4]
 800e704:	ab0b      	add	r3, sp, #44	; 0x2c
 800e706:	9300      	str	r3, [sp, #0]
 800e708:	f8d4 3db8 	ldr.w	r3, [r4, #3512]	; 0xdb8
 800e70c:	9304      	str	r3, [sp, #16]
 800e70e:	f8d4 3db4 	ldr.w	r3, [r4, #3508]	; 0xdb4
 800e712:	9303      	str	r3, [sp, #12]
 800e714:	220a      	movs	r2, #10
 800e716:	462b      	mov	r3, r5
 800e718:	4641      	mov	r1, r8
 800e71a:	6be0      	ldr	r0, [r4, #60]	; 0x3c
 800e71c:	f00c fca0 	bl	801b060 <aks_to_M2>
	apply_lpc_correction(&model[i]);
 800e720:	4628      	mov	r0, r5
 800e722:	f00d faed 	bl	801bd00 <apply_lpc_correction>
	synthesise_one_frame(c2, &speech[c2->n_samp*i], &model[i], Aw, 1.0);
 800e726:	6b23      	ldr	r3, [r4, #48]	; 0x30
 800e728:	9a06      	ldr	r2, [sp, #24]
 800e72a:	fb03 f309 	mul.w	r3, r3, r9
 800e72e:	eb02 0143 	add.w	r1, r2, r3, lsl #1
 800e732:	eeb7 0a00 	vmov.f32	s0, #112	; 0x3f800000  1.0
 800e736:	463b      	mov	r3, r7
 800e738:	462a      	mov	r2, r5
 800e73a:	4620      	mov	r0, r4
 800e73c:	f7ff f914 	bl	800d968 <synthesise_one_frame>
	if (c2->fmlfeat != NULL) {
 800e740:	f8da 311c 	ldr.w	r3, [sl, #284]	; 0x11c
 800e744:	b353      	cbz	r3, 800e79c <codec2_decode_1300+0x2bc>
	    fwrite(&lsps[i][0], LPC_ORD, sizeof(float), c2->fmlfeat);
 800e746:	2204      	movs	r2, #4
 800e748:	210a      	movs	r1, #10
 800e74a:	4630      	mov	r0, r6
 800e74c:	f015 f804 	bl	8023758 <fwrite>
	    fwrite(&e[i], 1, sizeof(float), c2->fmlfeat);
 800e750:	f8da 311c 	ldr.w	r3, [sl, #284]	; 0x11c
 800e754:	2204      	movs	r2, #4
 800e756:	2101      	movs	r1, #1
 800e758:	4658      	mov	r0, fp
 800e75a:	f014 fffd 	bl	8023758 <fwrite>
	    fwrite(&model[i].Wo, 1, sizeof(float), c2->fmlfeat); 
 800e75e:	f8da 311c 	ldr.w	r3, [sl, #284]	; 0x11c
 800e762:	2204      	movs	r2, #4
 800e764:	2101      	movs	r1, #1
 800e766:	4628      	mov	r0, r5
 800e768:	f014 fff6 	bl	8023758 <fwrite>
	    float voiced_float = model[i].voiced;
 800e76c:	f8d5 3510 	ldr.w	r3, [r5, #1296]	; 0x510
 800e770:	ee07 3a90 	vmov	s15, r3
 800e774:	eef8 7ae7 	vcvt.f32.s32	s15, s15
 800e778:	a80d      	add	r0, sp, #52	; 0x34
	    fwrite(&voiced_float, 1, sizeof(float), c2->fmlfeat);
 800e77a:	f8da 311c 	ldr.w	r3, [sl, #284]	; 0x11c
	    float voiced_float = model[i].voiced;
 800e77e:	edc0 7a00 	vstr	s15, [r0]
	    fwrite(&voiced_float, 1, sizeof(float), c2->fmlfeat);
 800e782:	2204      	movs	r2, #4
 800e784:	2101      	movs	r1, #1
 800e786:	a80d      	add	r0, sp, #52	; 0x34
 800e788:	f014 ffe6 	bl	8023758 <fwrite>
	    fwrite(&ak[i][1], LPC_ORD, sizeof(float), c2->fmlfeat);
 800e78c:	2204      	movs	r2, #4
 800e78e:	f8da 311c 	ldr.w	r3, [sl, #284]	; 0x11c
 800e792:	210a      	movs	r1, #10
 800e794:	eb08 0002 	add.w	r0, r8, r2
 800e798:	f014 ffde 	bl	8023758 <fwrite>
    for(i=0; i<4; i++) {
 800e79c:	f109 0901 	add.w	r9, r9, #1
 800e7a0:	f1b9 0f04 	cmp.w	r9, #4
 800e7a4:	f106 0628 	add.w	r6, r6, #40	; 0x28
 800e7a8:	f108 082c 	add.w	r8, r8, #44	; 0x2c
 800e7ac:	f10b 0b04 	add.w	fp, fp, #4
 800e7b0:	f205 5514 	addw	r5, r5, #1300	; 0x514
 800e7b4:	d195      	bne.n	800e6e2 <codec2_decode_1300+0x202>
    c2->prev_model_dec = model[3];
 800e7b6:	f50d 53b0 	add.w	r3, sp, #5632	; 0x1600
 800e7ba:	3310      	adds	r3, #16
 800e7bc:	f603 21ec 	addw	r1, r3, #2796	; 0xaec
 800e7c0:	f240 5214 	movw	r2, #1300	; 0x514
 800e7c4:	ee19 0a10 	vmov	r0, s18
 800e7c8:	f015 fab4 	bl	8023d34 <memcpy>
    c2->prev_e_dec = e[3];
 800e7cc:	ab0e      	add	r3, sp, #56	; 0x38
 800e7ce:	9a09      	ldr	r2, [sp, #36]	; 0x24
 800e7d0:	68db      	ldr	r3, [r3, #12]
 800e7d2:	6013      	str	r3, [r2, #0]
	c2->prev_lsps_dec[i] = lsps[3][i];
 800e7d4:	ee18 4a90 	vmov	r4, s17
 800e7d8:	ae3a      	add	r6, sp, #232	; 0xe8
 800e7da:	af42      	add	r7, sp, #264	; 0x108
 800e7dc:	4635      	mov	r5, r6
 800e7de:	cd0f      	ldmia	r5!, {r0, r1, r2, r3}
 800e7e0:	42bd      	cmp	r5, r7
 800e7e2:	f104 0410 	add.w	r4, r4, #16
 800e7e6:	462e      	mov	r6, r5
 800e7e8:	f844 0c10 	str.w	r0, [r4, #-16]
 800e7ec:	f844 1c0c 	str.w	r1, [r4, #-12]
 800e7f0:	f844 2c08 	str.w	r2, [r4, #-8]
 800e7f4:	f844 3c04 	str.w	r3, [r4, #-4]
 800e7f8:	d1f0      	bne.n	800e7dc <codec2_decode_1300+0x2fc>
 800e7fa:	ce03      	ldmia	r6!, {r0, r1}
 800e7fc:	6020      	str	r0, [r4, #0]
 800e7fe:	6061      	str	r1, [r4, #4]
}
 800e800:	f50d 5d18 	add.w	sp, sp, #9728	; 0x2600
 800e804:	b005      	add	sp, #20
 800e806:	ecbd 8b04 	vpop	{d8-d9}
 800e80a:	e8bd 8ff0 	ldmia.w	sp!, {r4, r5, r6, r7, r8, r9, sl, fp, pc}
        model[0].voiced =  model[1].voiced = model[2].voiced = model[3].voiced = 0;
 800e80e:	f50d 53b0 	add.w	r3, sp, #5632	; 0x1600
 800e812:	3310      	adds	r3, #16
 800e814:	f50d 5107 	add.w	r1, sp, #8640	; 0x21c0
 800e818:	2200      	movs	r2, #0
 800e81a:	f8c3 2ae8 	str.w	r2, [r3, #2792]	; 0xae8
 800e81e:	f8c3 25d4 	str.w	r2, [r3, #1492]	; 0x5d4
 800e822:	f8c3 20c0 	str.w	r2, [r3, #192]	; 0xc0
 800e826:	f8c1 244c 	str.w	r2, [r1, #1100]	; 0x44c
        e[3] = decode_energy(10, E_BITS);
 800e82a:	4630      	mov	r0, r6
 800e82c:	2105      	movs	r1, #5
 800e82e:	f00d faaf 	bl	801bd90 <decode_energy>
        bw_expand_lsps(&lsps[3][0], LPC_ORD, 200.0, 200.0);
 800e832:	eddf 0a0f 	vldr	s1, [pc, #60]	; 800e870 <codec2_decode_1300+0x390>
        e[3] = decode_energy(10, E_BITS);
 800e836:	eef0 7a40 	vmov.f32	s15, s0
        bw_expand_lsps(&lsps[3][0], LPC_ORD, 200.0, 200.0);
 800e83a:	4631      	mov	r1, r6
 800e83c:	eeb0 0a60 	vmov.f32	s0, s1
 800e840:	4638      	mov	r0, r7
        e[3] = decode_energy(10, E_BITS);
 800e842:	edcd 7a11 	vstr	s15, [sp, #68]	; 0x44
 800e846:	ab0e      	add	r3, sp, #56	; 0x38
        bw_expand_lsps(&lsps[3][0], LPC_ORD, 200.0, 200.0);
 800e848:	f00d f9be 	bl	801bbc8 <bw_expand_lsps>
 800e84c:	e6f0      	b.n	800e630 <codec2_decode_1300+0x150>
    assert(c2 != NULL);
 800e84e:	4b09      	ldr	r3, [pc, #36]	; (800e874 <codec2_decode_1300+0x394>)
 800e850:	4a09      	ldr	r2, [pc, #36]	; (800e878 <codec2_decode_1300+0x398>)
 800e852:	480a      	ldr	r0, [pc, #40]	; (800e87c <codec2_decode_1300+0x39c>)
 800e854:	f240 41ed 	movw	r1, #1261	; 0x4ed
 800e858:	f014 fe98 	bl	802358c <__assert_func>
 800e85c:	f3af 8000 	nop.w
 800e860:	33333333 	.word	0x33333333
 800e864:	3fc33333 	.word	0x3fc33333
 800e868:	42c80000 	.word	0x42c80000
 800e86c:	42480000 	.word	0x42480000
 800e870:	43480000 	.word	0x43480000
 800e874:	0804cb68 	.word	0x0804cb68
 800e878:	0804cc04 	.word	0x0804cc04
 800e87c:	0804cb40 	.word	0x0804cb40
 800e880:	54524550 	.word	0x54524550
 800e884:	400921fb 	.word	0x400921fb

0800e888 <codec2_decode_1200>:
{
 800e888:	e92d 4ff0 	stmdb	sp!, {r4, r5, r6, r7, r8, r9, sl, fp, lr}
 800e88c:	ed2d 8b04 	vpush	{d8-d9}
 800e890:	f5ad 5d18 	sub.w	sp, sp, #9728	; 0x2600
 800e894:	b083      	sub	sp, #12
    unsigned int nbit = 0;
 800e896:	ab0b      	add	r3, sp, #44	; 0x2c
{
 800e898:	4617      	mov	r7, r2
    unsigned int nbit = 0;
 800e89a:	2200      	movs	r2, #0
{
 800e89c:	9106      	str	r1, [sp, #24]
    unsigned int nbit = 0;
 800e89e:	601a      	str	r2, [r3, #0]
    assert(c2 != NULL);
 800e8a0:	2800      	cmp	r0, #0
 800e8a2:	f000 8138 	beq.w	800eb16 <codec2_decode_1200+0x28e>
 800e8a6:	f50d 538e 	add.w	r3, sp, #4544	; 0x11c0
 800e8aa:	3308      	adds	r3, #8
 800e8ac:	f50d 558d 	add.w	r5, sp, #4512	; 0x11a0
 800e8b0:	f50d 5618 	add.w	r6, sp, #9728	; 0x2600
 800e8b4:	4604      	mov	r4, r0
 800e8b6:	3b04      	subs	r3, #4
 800e8b8:	3518      	adds	r5, #24
 800e8ba:	3614      	adds	r6, #20
	    model[i].A[j] = 0.0;
 800e8bc:	4618      	mov	r0, r3
 800e8be:	f44f 7220 	mov.w	r2, #640	; 0x280
 800e8c2:	2100      	movs	r1, #0
 800e8c4:	f015 fa5e 	bl	8023d84 <memset>
    for(i=0; i<4; i++)
 800e8c8:	f200 5314 	addw	r3, r0, #1300	; 0x514
 800e8cc:	42b3      	cmp	r3, r6
 800e8ce:	d1f5      	bne.n	800e8bc <codec2_decode_1200+0x34>
    model[0].voiced = unpack(bits, &nbit, 1);
 800e8d0:	f50d 53b0 	add.w	r3, sp, #5632	; 0x1600
 800e8d4:	3308      	adds	r3, #8
 800e8d6:	2201      	movs	r2, #1
 800e8d8:	a90b      	add	r1, sp, #44	; 0x2c
 800e8da:	4638      	mov	r0, r7
 800e8dc:	f5a3 688a 	sub.w	r8, r3, #1104	; 0x450
 800e8e0:	f00b fd8e 	bl	801a400 <unpack>
    model[1].voiced = unpack(bits, &nbit, 1);
 800e8e4:	2201      	movs	r2, #1
    model[0].voiced = unpack(bits, &nbit, 1);
 800e8e6:	f8c8 0510 	str.w	r0, [r8, #1296]	; 0x510
    model[1].voiced = unpack(bits, &nbit, 1);
 800e8ea:	a90b      	add	r1, sp, #44	; 0x2c
 800e8ec:	4638      	mov	r0, r7
 800e8ee:	f00b fd87 	bl	801a400 <unpack>
    WoE_index = unpack(bits, &nbit, WO_E_BITS);
 800e8f2:	2208      	movs	r2, #8
    model[1].voiced = unpack(bits, &nbit, 1);
 800e8f4:	f8c8 0a24 	str.w	r0, [r8, #2596]	; 0xa24
    WoE_index = unpack(bits, &nbit, WO_E_BITS);
 800e8f8:	a90b      	add	r1, sp, #44	; 0x2c
 800e8fa:	4638      	mov	r0, r7
 800e8fc:	f00b fd80 	bl	801a400 <unpack>
    decode_WoE(&c2->c2const, &model[1], &e[1], c2->xq_dec, WoE_index);
 800e900:	f50d 518e 	add.w	r1, sp, #4544	; 0x11c0
 800e904:	1d26      	adds	r6, r4, #4
 800e906:	3108      	adds	r1, #8
 800e908:	f604 53cc 	addw	r3, r4, #3532	; 0xdcc
 800e90c:	9000      	str	r0, [sp, #0]
 800e90e:	aa0d      	add	r2, sp, #52	; 0x34
 800e910:	4630      	mov	r0, r6
 800e912:	f201 5104 	addw	r1, r1, #1284	; 0x504
 800e916:	9307      	str	r3, [sp, #28]
 800e918:	f00d fbfa 	bl	801c110 <decode_WoE>
    model[2].voiced = unpack(bits, &nbit, 1);
 800e91c:	2201      	movs	r2, #1
 800e91e:	a90b      	add	r1, sp, #44	; 0x2c
 800e920:	4638      	mov	r0, r7
 800e922:	f00b fd6d 	bl	801a400 <unpack>
    model[3].voiced = unpack(bits, &nbit, 1);
 800e926:	2201      	movs	r2, #1
    model[2].voiced = unpack(bits, &nbit, 1);
 800e928:	f8c8 0f38 	str.w	r0, [r8, #3896]	; 0xf38
    model[3].voiced = unpack(bits, &nbit, 1);
 800e92c:	a90b      	add	r1, sp, #44	; 0x2c
 800e92e:	4638      	mov	r0, r7
 800e930:	f00b fd66 	bl	801a400 <unpack>
 800e934:	f50d 5318 	add.w	r3, sp, #9728	; 0x2600
    WoE_index = unpack(bits, &nbit, WO_E_BITS);
 800e938:	2208      	movs	r2, #8
    model[3].voiced = unpack(bits, &nbit, 1);
 800e93a:	6058      	str	r0, [r3, #4]
    WoE_index = unpack(bits, &nbit, WO_E_BITS);
 800e93c:	a90b      	add	r1, sp, #44	; 0x2c
 800e93e:	4638      	mov	r0, r7
    model[3].voiced = unpack(bits, &nbit, 1);
 800e940:	3304      	adds	r3, #4
    WoE_index = unpack(bits, &nbit, WO_E_BITS);
 800e942:	f00b fd5d 	bl	801a400 <unpack>
    decode_WoE(&c2->c2const, &model[3], &e[3], c2->xq_dec, WoE_index);
 800e946:	f50d 518e 	add.w	r1, sp, #4544	; 0x11c0
 800e94a:	3108      	adds	r1, #8
 800e94c:	9000      	str	r0, [sp, #0]
 800e94e:	9b07      	ldr	r3, [sp, #28]
 800e950:	4630      	mov	r0, r6
 800e952:	aa0f      	add	r2, sp, #60	; 0x3c
 800e954:	f601 712c 	addw	r1, r1, #3884	; 0xf2c
 800e958:	f00d fbda 	bl	801c110 <decode_WoE>
    for(i=0; i<LSP_PRED_VQ_INDEXES; i++) {
 800e95c:	2600      	movs	r6, #0
 800e95e:	f10d 0840 	add.w	r8, sp, #64	; 0x40
	lsp_indexes[i] = unpack(bits, &nbit, lsp_pred_vq_bits(i));
 800e962:	4630      	mov	r0, r6
 800e964:	f00c f83a 	bl	801a9dc <lsp_pred_vq_bits>
 800e968:	4602      	mov	r2, r0
 800e96a:	a90b      	add	r1, sp, #44	; 0x2c
 800e96c:	4638      	mov	r0, r7
 800e96e:	f00b fd47 	bl	801a400 <unpack>
    for(i=0; i<LSP_PRED_VQ_INDEXES; i++) {
 800e972:	3601      	adds	r6, #1
 800e974:	2e03      	cmp	r6, #3
	lsp_indexes[i] = unpack(bits, &nbit, lsp_pred_vq_bits(i));
 800e976:	f848 0b04 	str.w	r0, [r8], #4
    for(i=0; i<LSP_PRED_VQ_INDEXES; i++) {
 800e97a:	d1f2      	bne.n	800e962 <codec2_decode_1200+0xda>
    decode_lsps_vq(lsp_indexes, &lsps[3][0], LPC_ORD , 0);
 800e97c:	af38      	add	r7, sp, #224	; 0xe0
 800e97e:	2300      	movs	r3, #0
 800e980:	220a      	movs	r2, #10
 800e982:	a810      	add	r0, sp, #64	; 0x40
 800e984:	4639      	mov	r1, r7
 800e986:	f00d f8cd 	bl	801bb24 <decode_lsps_vq>
    check_lsp_order(&lsps[3][0], LPC_ORD);
 800e98a:	210a      	movs	r1, #10
 800e98c:	4638      	mov	r0, r7
 800e98e:	f00c fa53 	bl	801ae38 <check_lsp_order>
    bw_expand_lsps(&lsps[3][0], LPC_ORD, 50.0, 100.0);
 800e992:	eddf 0a64 	vldr	s1, [pc, #400]	; 800eb24 <codec2_decode_1200+0x29c>
 800e996:	ed9f 0a64 	vldr	s0, [pc, #400]	; 800eb28 <codec2_decode_1200+0x2a0>
 800e99a:	210a      	movs	r1, #10
 800e99c:	4638      	mov	r0, r7
 800e99e:	f00d f913 	bl	801bbc8 <bw_expand_lsps>
    interp_Wo(&model[0], &c2->prev_model_dec, &model[1], c2->c2const.Wo_min);
 800e9a2:	f50d 538e 	add.w	r3, sp, #4544	; 0x11c0
 800e9a6:	3308      	adds	r3, #8
 800e9a8:	f203 5804 	addw	r8, r3, #1284	; 0x504
 800e9ac:	f50d 508d 	add.w	r0, sp, #4512	; 0x11a0
 800e9b0:	f604 0174 	addw	r1, r4, #2164	; 0x874
 800e9b4:	4642      	mov	r2, r8
 800e9b6:	3018      	adds	r0, #24
 800e9b8:	ed94 0a07 	vldr	s0, [r4, #28]
    e[0] = interp_energy(c2->prev_e_dec, e[1]);
 800e9bc:	ae0c      	add	r6, sp, #48	; 0x30
    interp_Wo(&model[0], &c2->prev_model_dec, &model[1], c2->c2const.Wo_min);
 800e9be:	ee09 1a90 	vmov	s19, r1
 800e9c2:	f005 f939 	bl	8013c38 <interp_Wo>
    e[0] = interp_energy(c2->prev_e_dec, e[1]);
 800e9c6:	f504 635b 	add.w	r3, r4, #3504	; 0xdb0
 800e9ca:	edd6 0a01 	vldr	s1, [r6, #4]
 800e9ce:	ed93 0a00 	vldr	s0, [r3]
 800e9d2:	9309      	str	r3, [sp, #36]	; 0x24
 800e9d4:	f005 f9da 	bl	8013d8c <interp_energy>
    interp_Wo(&model[2], &model[1], &model[3], c2->c2const.Wo_min);
 800e9d8:	f50d 538e 	add.w	r3, sp, #4544	; 0x11c0
 800e9dc:	3308      	adds	r3, #8
    e[0] = interp_energy(c2->prev_e_dec, e[1]);
 800e9de:	ed86 0a00 	vstr	s0, [r6]
    interp_Wo(&model[2], &model[1], &model[3], c2->c2const.Wo_min);
 800e9e2:	4641      	mov	r1, r8
 800e9e4:	f603 722c 	addw	r2, r3, #3884	; 0xf2c
 800e9e8:	f603 2018 	addw	r0, r3, #2584	; 0xa18
 800e9ec:	ed94 0a07 	vldr	s0, [r4, #28]
 800e9f0:	f005 f922 	bl	8013c38 <interp_Wo>
    e[2] = interp_energy(e[1], e[3]);
 800e9f4:	edd6 0a03 	vldr	s1, [r6, #12]
 800e9f8:	ed96 0a01 	vldr	s0, [r6, #4]
 800e9fc:	f005 f9c6 	bl	8013d8c <interp_energy>
	interpolate_lsp_ver2(&lsps[i][0], c2->prev_lsps_dec, &lsps[3][0], weight, LPC_ORD);
 800ea00:	f604 5388 	addw	r3, r4, #3464	; 0xd88
    for(i=0, weight=0.25; i<3; i++, weight += 0.25) {
 800ea04:	eeb5 8a00 	vmov.f32	s16, #80	; 0x3e800000  0.250
 800ea08:	f10d 0968 	add.w	r9, sp, #104	; 0x68
	interpolate_lsp_ver2(&lsps[i][0], c2->prev_lsps_dec, &lsps[3][0], weight, LPC_ORD);
 800ea0c:	ee09 3a10 	vmov	s18, r3
    e[2] = interp_energy(e[1], e[3]);
 800ea10:	ed86 0a02 	vstr	s0, [r6, #8]
    for(i=0, weight=0.25; i<3; i++, weight += 0.25) {
 800ea14:	eef0 8a48 	vmov.f32	s17, s16
	interpolate_lsp_ver2(&lsps[i][0], c2->prev_lsps_dec, &lsps[3][0], weight, LPC_ORD);
 800ea18:	464e      	mov	r6, r9
 800ea1a:	4698      	mov	r8, r3
 800ea1c:	eeb0 0a48 	vmov.f32	s0, s16
 800ea20:	4630      	mov	r0, r6
 800ea22:	230a      	movs	r3, #10
    for(i=0, weight=0.25; i<3; i++, weight += 0.25) {
 800ea24:	3628      	adds	r6, #40	; 0x28
	interpolate_lsp_ver2(&lsps[i][0], c2->prev_lsps_dec, &lsps[3][0], weight, LPC_ORD);
 800ea26:	463a      	mov	r2, r7
 800ea28:	4641      	mov	r1, r8
 800ea2a:	f005 fa0b 	bl	8013e44 <interpolate_lsp_ver2>
    for(i=0, weight=0.25; i<3; i++, weight += 0.25) {
 800ea2e:	42be      	cmp	r6, r7
 800ea30:	ee38 8a28 	vadd.f32	s16, s16, s17
 800ea34:	d1f2      	bne.n	800ea1c <codec2_decode_1200+0x194>
 800ea36:	f504 635c 	add.w	r3, r4, #3520	; 0xdc0
    for(i=0; i<4; i++) {
 800ea3a:	2600      	movs	r6, #0
 800ea3c:	9308      	str	r3, [sp, #32]
 800ea3e:	f604 53bc 	addw	r3, r4, #3516	; 0xdbc
 800ea42:	f10d 0a30 	add.w	sl, sp, #48	; 0x30
 800ea46:	f50d 7884 	add.w	r8, sp, #264	; 0x108
 800ea4a:	9307      	str	r3, [sp, #28]
 800ea4c:	af6e      	add	r7, sp, #440	; 0x1b8
	aks_to_M2(c2->fftr_fwd_cfg, &ak[i][0], LPC_ORD, &model[i], e[i], &snr, 0, 0,
 800ea4e:	46b3      	mov	fp, r6
	lsp_to_lpc(&lsps[i][0], &ak[i][0], LPC_ORD);
 800ea50:	4641      	mov	r1, r8
 800ea52:	4648      	mov	r0, r9
 800ea54:	220a      	movs	r2, #10
 800ea56:	f007 fc6b 	bl	8016330 <lsp_to_lpc>
	aks_to_M2(c2->fftr_fwd_cfg, &ak[i][0], LPC_ORD, &model[i], e[i], &snr, 0, 0,
 800ea5a:	9b08      	ldr	r3, [sp, #32]
 800ea5c:	ecba 0a01 	vldmia	sl!, {s0}
 800ea60:	ed93 1a00 	vldr	s2, [r3]
 800ea64:	9b07      	ldr	r3, [sp, #28]
 800ea66:	edd3 0a00 	vldr	s1, [r3]
 800ea6a:	9705      	str	r7, [sp, #20]
 800ea6c:	e9cd bb01 	strd	fp, fp, [sp, #4]
 800ea70:	ab0a      	add	r3, sp, #40	; 0x28
 800ea72:	9300      	str	r3, [sp, #0]
 800ea74:	f8d4 3db8 	ldr.w	r3, [r4, #3512]	; 0xdb8
 800ea78:	9304      	str	r3, [sp, #16]
 800ea7a:	f8d4 3db4 	ldr.w	r3, [r4, #3508]	; 0xdb4
 800ea7e:	9303      	str	r3, [sp, #12]
 800ea80:	4641      	mov	r1, r8
 800ea82:	462b      	mov	r3, r5
 800ea84:	220a      	movs	r2, #10
 800ea86:	6be0      	ldr	r0, [r4, #60]	; 0x3c
 800ea88:	f00c faea 	bl	801b060 <aks_to_M2>
	apply_lpc_correction(&model[i]);
 800ea8c:	4628      	mov	r0, r5
 800ea8e:	f00d f937 	bl	801bd00 <apply_lpc_correction>
	synthesise_one_frame(c2, &speech[c2->n_samp*i], &model[i], Aw, 1.0);
 800ea92:	6b23      	ldr	r3, [r4, #48]	; 0x30
 800ea94:	9a06      	ldr	r2, [sp, #24]
 800ea96:	fb06 f303 	mul.w	r3, r6, r3
 800ea9a:	eb02 0143 	add.w	r1, r2, r3, lsl #1
 800ea9e:	eeb7 0a00 	vmov.f32	s0, #112	; 0x3f800000  1.0
 800eaa2:	462a      	mov	r2, r5
    for(i=0; i<4; i++) {
 800eaa4:	3601      	adds	r6, #1
	synthesise_one_frame(c2, &speech[c2->n_samp*i], &model[i], Aw, 1.0);
 800eaa6:	463b      	mov	r3, r7
 800eaa8:	4620      	mov	r0, r4
 800eaaa:	f7fe ff5d 	bl	800d968 <synthesise_one_frame>
    for(i=0; i<4; i++) {
 800eaae:	2e04      	cmp	r6, #4
 800eab0:	f109 0928 	add.w	r9, r9, #40	; 0x28
 800eab4:	f108 082c 	add.w	r8, r8, #44	; 0x2c
 800eab8:	f205 5514 	addw	r5, r5, #1300	; 0x514
 800eabc:	d1c8      	bne.n	800ea50 <codec2_decode_1200+0x1c8>
    c2->prev_model_dec = model[3];
 800eabe:	f50d 53b0 	add.w	r3, sp, #5632	; 0x1600
 800eac2:	3308      	adds	r3, #8
 800eac4:	f603 21ec 	addw	r1, r3, #2796	; 0xaec
 800eac8:	f240 5214 	movw	r2, #1300	; 0x514
 800eacc:	ee19 0a90 	vmov	r0, s19
 800ead0:	f015 f930 	bl	8023d34 <memcpy>
    c2->prev_e_dec = e[3];
 800ead4:	ab0c      	add	r3, sp, #48	; 0x30
 800ead6:	9a09      	ldr	r2, [sp, #36]	; 0x24
 800ead8:	68db      	ldr	r3, [r3, #12]
 800eada:	6013      	str	r3, [r2, #0]
	c2->prev_lsps_dec[i] = lsps[3][i];
 800eadc:	ee19 4a10 	vmov	r4, s18
 800eae0:	ae38      	add	r6, sp, #224	; 0xe0
 800eae2:	af40      	add	r7, sp, #256	; 0x100
 800eae4:	4635      	mov	r5, r6
 800eae6:	cd0f      	ldmia	r5!, {r0, r1, r2, r3}
 800eae8:	42bd      	cmp	r5, r7
 800eaea:	f104 0410 	add.w	r4, r4, #16
 800eaee:	462e      	mov	r6, r5
 800eaf0:	f844 0c10 	str.w	r0, [r4, #-16]
 800eaf4:	f844 1c0c 	str.w	r1, [r4, #-12]
 800eaf8:	f844 2c08 	str.w	r2, [r4, #-8]
 800eafc:	f844 3c04 	str.w	r3, [r4, #-4]
 800eb00:	d1f0      	bne.n	800eae4 <codec2_decode_1200+0x25c>
 800eb02:	ce03      	ldmia	r6!, {r0, r1}
 800eb04:	6020      	str	r0, [r4, #0]
 800eb06:	6061      	str	r1, [r4, #4]
}
 800eb08:	f50d 5d18 	add.w	sp, sp, #9728	; 0x2600
 800eb0c:	b003      	add	sp, #12
 800eb0e:	ecbd 8b04 	vpop	{d8-d9}
 800eb12:	e8bd 8ff0 	ldmia.w	sp!, {r4, r5, r6, r7, r8, r9, sl, fp, pc}
    assert(c2 != NULL);
 800eb16:	4b05      	ldr	r3, [pc, #20]	; (800eb2c <codec2_decode_1200+0x2a4>)
 800eb18:	4a05      	ldr	r2, [pc, #20]	; (800eb30 <codec2_decode_1200+0x2a8>)
 800eb1a:	4806      	ldr	r0, [pc, #24]	; (800eb34 <codec2_decode_1200+0x2ac>)
 800eb1c:	f240 51b1 	movw	r1, #1457	; 0x5b1
 800eb20:	f014 fd34 	bl	802358c <__assert_func>
 800eb24:	42c80000 	.word	0x42c80000
 800eb28:	42480000 	.word	0x42480000
 800eb2c:	0804cb68 	.word	0x0804cb68
 800eb30:	0804cbdc 	.word	0x0804cbdc
 800eb34:	0804cb40 	.word	0x0804cb40

0800eb38 <codec2_decode_700c>:
{
 800eb38:	e92d 4ff0 	stmdb	sp!, {r4, r5, r6, r7, r8, r9, sl, fp, lr}
 800eb3c:	ed2d 8b02 	vpush	{d8}
 800eb40:	f5ad 5dab 	sub.w	sp, sp, #5472	; 0x1560
 800eb44:	b085      	sub	sp, #20
    unsigned int nbit = 0;
 800eb46:	2300      	movs	r3, #0
{
 800eb48:	af0a      	add	r7, sp, #40	; 0x28
    unsigned int nbit = 0;
 800eb4a:	e9c7 1301 	strd	r1, r3, [r7, #4]
    assert(c2 != NULL);
 800eb4e:	2800      	cmp	r0, #0
 800eb50:	f000 80bb 	beq.w	800ecca <codec2_decode_700c+0x192>
    indexes[0] = unpack_natural_or_gray(bits, &nbit, 9, 0);
 800eb54:	4615      	mov	r5, r2
 800eb56:	f507 62a9 	add.w	r2, r7, #1352	; 0x548
 800eb5a:	4604      	mov	r4, r0
 800eb5c:	f107 0108 	add.w	r1, r7, #8
 800eb60:	4628      	mov	r0, r5
	   float features[55] = {0};
 800eb62:	f2a2 5b2c 	subw	fp, r2, #1324	; 0x52c
    indexes[0] = unpack_natural_or_gray(bits, &nbit, 9, 0);
 800eb66:	2209      	movs	r2, #9
 800eb68:	f00b fc74 	bl	801a454 <unpack_natural_or_gray>
    indexes[1] = unpack_natural_or_gray(bits, &nbit, 9, 0);
 800eb6c:	2300      	movs	r3, #0
    indexes[0] = unpack_natural_or_gray(bits, &nbit, 9, 0);
 800eb6e:	60f8      	str	r0, [r7, #12]
    indexes[1] = unpack_natural_or_gray(bits, &nbit, 9, 0);
 800eb70:	2209      	movs	r2, #9
 800eb72:	f107 0108 	add.w	r1, r7, #8
 800eb76:	4628      	mov	r0, r5
 800eb78:	f00b fc6c 	bl	801a454 <unpack_natural_or_gray>
    indexes[2] = unpack_natural_or_gray(bits, &nbit, 4, 0);
 800eb7c:	2300      	movs	r3, #0
    indexes[1] = unpack_natural_or_gray(bits, &nbit, 9, 0);
 800eb7e:	6138      	str	r0, [r7, #16]
    indexes[2] = unpack_natural_or_gray(bits, &nbit, 4, 0);
 800eb80:	2204      	movs	r2, #4
 800eb82:	f107 0108 	add.w	r1, r7, #8
 800eb86:	4628      	mov	r0, r5
 800eb88:	f00b fc64 	bl	801a454 <unpack_natural_or_gray>
    indexes[3] = unpack_natural_or_gray(bits, &nbit, 6, 0);
 800eb8c:	2300      	movs	r3, #0
    indexes[2] = unpack_natural_or_gray(bits, &nbit, 4, 0);
 800eb8e:	6178      	str	r0, [r7, #20]
    indexes[3] = unpack_natural_or_gray(bits, &nbit, 6, 0);
 800eb90:	f107 0108 	add.w	r1, r7, #8
 800eb94:	4628      	mov	r0, r5
 800eb96:	2206      	movs	r2, #6
   for(i=0; i<M; i++) {
 800eb98:	461d      	mov	r5, r3
    indexes[3] = unpack_natural_or_gray(bits, &nbit, 6, 0);
 800eb9a:	f00b fc5b 	bl	801a454 <unpack_natural_or_gray>
    COMP  HH[M][MAX_AMP+1];
 800eb9e:	f5ad 5da1 	sub.w	sp, sp, #5152	; 0x1420
 800eba2:	aa0a      	add	r2, sp, #40	; 0x28
    float interpolated_surface_[M][NEWAMP1_K];
 800eba4:	b0d0      	sub	sp, #320	; 0x140
    newamp1_indexes_to_model(&c2->c2const,
 800eba6:	f8d4 1e98 	ldr.w	r1, [r4, #3736]	; 0xe98
    indexes[3] = unpack_natural_or_gray(bits, &nbit, 6, 0);
 800ebaa:	61b8      	str	r0, [r7, #24]
    newamp1_indexes_to_model(&c2->c2const,
 800ebac:	9109      	str	r1, [sp, #36]	; 0x24
 800ebae:	f8d4 1e94 	ldr.w	r1, [r4, #3732]	; 0xe94
 800ebb2:	9108      	str	r1, [sp, #32]
 800ebb4:	f8d4 1e88 	ldr.w	r1, [r4, #3720]	; 0xe88
 800ebb8:	9106      	str	r1, [sp, #24]
 800ebba:	f8d4 1e84 	ldr.w	r1, [r4, #3716]	; 0xe84
 800ebbe:	9105      	str	r1, [sp, #20]
 800ebc0:	2114      	movs	r1, #20
 800ebc2:	9104      	str	r1, [sp, #16]
                             c2->rate_K_sample_freqs_kHz, 
 800ebc4:	f604 51dc 	addw	r1, r4, #3548	; 0xddc
    newamp1_indexes_to_model(&c2->c2const,
 800ebc8:	9103      	str	r1, [sp, #12]
 800ebca:	f504 6168 	add.w	r1, r4, #3712	; 0xe80
 800ebce:	9102      	str	r1, [sp, #8]
 800ebd0:	f604 617c 	addw	r1, r4, #3708	; 0xe7c
    indexes[0] = unpack_natural_or_gray(bits, &nbit, 9, 0);
 800ebd4:	f107 060c 	add.w	r6, r7, #12
    newamp1_indexes_to_model(&c2->c2const,
 800ebd8:	9101      	str	r1, [sp, #4]
                             c2->prev_rate_K_vec_,
 800ebda:	f604 612c 	addw	r1, r4, #3628	; 0xe2c
    float interpolated_surface_[M][NEWAMP1_K];
 800ebde:	ab0a      	add	r3, sp, #40	; 0x28
    newamp1_indexes_to_model(&c2->c2const,
 800ebe0:	9607      	str	r6, [sp, #28]
 800ebe2:	9100      	str	r1, [sp, #0]
 800ebe4:	1d20      	adds	r0, r4, #4
 800ebe6:	f107 01f8 	add.w	r1, r7, #248	; 0xf8
 800ebea:	4699      	mov	r9, r3
 800ebec:	4690      	mov	r8, r2
 800ebee:	460e      	mov	r6, r1
	       features[j] = (interpolated_surface_[i][j]-30)/40;
 800ebf0:	ed9f 8a3d 	vldr	s16, [pc, #244]	; 800ece8 <codec2_decode_700c+0x1b0>
    newamp1_indexes_to_model(&c2->c2const,
 800ebf4:	f008 fe28 	bl	8017848 <newamp1_indexes_to_model>
   for(i=0; i<M; i++) {
 800ebf8:	f504 5380 	add.w	r3, r4, #4096	; 0x1000
 800ebfc:	603b      	str	r3, [r7, #0]
	   features[36] = 0.02*(pitch_index-100);
 800ebfe:	46a2      	mov	sl, r4
       if (c2->fmlfeat != NULL) {
 800ec00:	683b      	ldr	r3, [r7, #0]
 800ec02:	f8d3 411c 	ldr.w	r4, [r3, #284]	; 0x11c
 800ec06:	b9f4      	cbnz	r4, 800ec46 <codec2_decode_700c+0x10e>
       synthesise_one_frame(c2, &speech[c2->n_samp*i], &model[i], &HH[i][0], 1.5);
 800ec08:	f8da 1030 	ldr.w	r1, [sl, #48]	; 0x30
 800ec0c:	687b      	ldr	r3, [r7, #4]
 800ec0e:	fb05 f101 	mul.w	r1, r5, r1
 800ec12:	eb03 0141 	add.w	r1, r3, r1, lsl #1
 800ec16:	4632      	mov	r2, r6
 800ec18:	4643      	mov	r3, r8
 800ec1a:	eeb7 0a08 	vmov.f32	s0, #120	; 0x3fc00000  1.5
   for(i=0; i<M; i++) {
 800ec1e:	3501      	adds	r5, #1
       synthesise_one_frame(c2, &speech[c2->n_samp*i], &model[i], &HH[i][0], 1.5);
 800ec20:	4650      	mov	r0, sl
 800ec22:	f7fe fea1 	bl	800d968 <synthesise_one_frame>
   for(i=0; i<M; i++) {
 800ec26:	2d04      	cmp	r5, #4
 800ec28:	f109 0950 	add.w	r9, r9, #80	; 0x50
 800ec2c:	f508 68a1 	add.w	r8, r8, #1288	; 0x508
 800ec30:	f206 5614 	addw	r6, r6, #1300	; 0x514
 800ec34:	d1e4      	bne.n	800ec00 <codec2_decode_700c+0xc8>
}
 800ec36:	f507 57aa 	add.w	r7, r7, #5440	; 0x1540
 800ec3a:	370c      	adds	r7, #12
 800ec3c:	46bd      	mov	sp, r7
 800ec3e:	ecbd 8b02 	vpop	{d8}
 800ec42:	e8bd 8ff0 	ldmia.w	sp!, {r4, r5, r6, r7, r8, r9, sl, fp, pc}
	   float features[55] = {0};
 800ec46:	22dc      	movs	r2, #220	; 0xdc
 800ec48:	2100      	movs	r1, #0
 800ec4a:	4658      	mov	r0, fp
 800ec4c:	f015 f89a 	bl	8023d84 <memset>
	       features[j] = (interpolated_surface_[i][j]-30)/40;
 800ec50:	eef3 6a0e 	vmov.f32	s13, #62	; 0x41f00000  30.0
 800ec54:	f107 031c 	add.w	r3, r7, #28
 800ec58:	f107 0164 	add.w	r1, r7, #100	; 0x64
	   float features[55] = {0};
 800ec5c:	464a      	mov	r2, r9
	       features[j] = (interpolated_surface_[i][j]-30)/40;
 800ec5e:	ecf2 7a01 	vldmia	r2!, {s15}
 800ec62:	ee77 7ae6 	vsub.f32	s15, s15, s13
 800ec66:	ee87 7a88 	vdiv.f32	s14, s15, s16
 800ec6a:	eca3 7a01 	vstmia	r3!, {s14}
	   for(int j=0; j<18; j++)
 800ec6e:	4299      	cmp	r1, r3
 800ec70:	d1f5      	bne.n	800ec5e <codec2_decode_700c+0x126>
	   int pitch_index = 21 + 2.0*M_PI/model[i].Wo;
 800ec72:	6830      	ldr	r0, [r6, #0]
 800ec74:	f7fd fc80 	bl	800c578 <__aeabi_f2d>
 800ec78:	4602      	mov	r2, r0
 800ec7a:	460b      	mov	r3, r1
 800ec7c:	a116      	add	r1, pc, #88	; (adr r1, 800ecd8 <codec2_decode_700c+0x1a0>)
 800ec7e:	e9d1 0100 	ldrd	r0, r1, [r1]
 800ec82:	f7fd fdfb 	bl	800c87c <__aeabi_ddiv>
 800ec86:	4b19      	ldr	r3, [pc, #100]	; (800ecec <codec2_decode_700c+0x1b4>)
 800ec88:	2200      	movs	r2, #0
 800ec8a:	f7fd fb17 	bl	800c2bc <__adddf3>
 800ec8e:	f7fd ff7b 	bl	800cb88 <__aeabi_d2iz>
	   features[36] = 0.02*(pitch_index-100);
 800ec92:	3864      	subs	r0, #100	; 0x64
 800ec94:	f7fd fc5e 	bl	800c554 <__aeabi_i2d>
 800ec98:	a311      	add	r3, pc, #68	; (adr r3, 800ece0 <codec2_decode_700c+0x1a8>)
 800ec9a:	e9d3 2300 	ldrd	r2, r3, [r3]
 800ec9e:	f7fd fcc3 	bl	800c628 <__aeabi_dmul>
 800eca2:	f7fd ff99 	bl	800cbd8 <__aeabi_d2f>
	   features[37] = model[i].voiced;
 800eca6:	f8d6 2510 	ldr.w	r2, [r6, #1296]	; 0x510
	   features[36] = 0.02*(pitch_index-100);
 800ecaa:	f8cb 0090 	str.w	r0, [fp, #144]	; 0x90
	   features[37] = model[i].voiced;
 800ecae:	ee07 2a90 	vmov	s15, r2
 800ecb2:	eef8 7ae7 	vcvt.f32.s32	s15, s15
	   fwrite(features, 55, sizeof(float), c2->fmlfeat);
 800ecb6:	4623      	mov	r3, r4
 800ecb8:	f107 001c 	add.w	r0, r7, #28
	   features[37] = model[i].voiced;
 800ecbc:	edcb 7a25 	vstr	s15, [fp, #148]	; 0x94
	   fwrite(features, 55, sizeof(float), c2->fmlfeat);
 800ecc0:	2204      	movs	r2, #4
 800ecc2:	2137      	movs	r1, #55	; 0x37
 800ecc4:	f014 fd48 	bl	8023758 <fwrite>
 800ecc8:	e79e      	b.n	800ec08 <codec2_decode_700c+0xd0>
    assert(c2 != NULL);
 800ecca:	4b09      	ldr	r3, [pc, #36]	; (800ecf0 <codec2_decode_700c+0x1b8>)
 800eccc:	4a09      	ldr	r2, [pc, #36]	; (800ecf4 <codec2_decode_700c+0x1bc>)
 800ecce:	480a      	ldr	r0, [pc, #40]	; (800ecf8 <codec2_decode_700c+0x1c0>)
 800ecd0:	f240 615a 	movw	r1, #1626	; 0x65a
 800ecd4:	f014 fc5a 	bl	802358c <__assert_func>
 800ecd8:	54442d18 	.word	0x54442d18
 800ecdc:	401921fb 	.word	0x401921fb
 800ece0:	47ae147b 	.word	0x47ae147b
 800ece4:	3f947ae1 	.word	0x3f947ae1
 800ece8:	42200000 	.word	0x42200000
 800ecec:	40350000 	.word	0x40350000
 800ecf0:	0804cb68 	.word	0x0804cb68
 800ecf4:	0804cbb4 	.word	0x0804cbb4
 800ecf8:	0804cb40 	.word	0x0804cb40

0800ecfc <codec2_decode_450>:
{
 800ecfc:	e92d 43f0 	stmdb	sp!, {r4, r5, r6, r7, r8, r9, lr}
 800ed00:	f5ad 5da4 	sub.w	sp, sp, #5248	; 0x1480
 800ed04:	b085      	sub	sp, #20
 800ed06:	af0a      	add	r7, sp, #40	; 0x28
    unsigned int nbit = 0;
 800ed08:	2400      	movs	r4, #0
 800ed0a:	607c      	str	r4, [r7, #4]
    assert(c2 != NULL);
 800ed0c:	2800      	cmp	r0, #0
 800ed0e:	d058      	beq.n	800edc2 <codec2_decode_450+0xc6>
    indexes[0] = unpack_natural_or_gray(bits, &nbit, 9, 0);
 800ed10:	4691      	mov	r9, r2
 800ed12:	4606      	mov	r6, r0
 800ed14:	4623      	mov	r3, r4
 800ed16:	2209      	movs	r2, #9
 800ed18:	4648      	mov	r0, r9
 800ed1a:	4688      	mov	r8, r1
 800ed1c:	1d39      	adds	r1, r7, #4
 800ed1e:	f00b fb99 	bl	801a454 <unpack_natural_or_gray>
    indexes[2] = unpack_natural_or_gray(bits, &nbit, 3, 0);
 800ed22:	4623      	mov	r3, r4
    indexes[0] = unpack_natural_or_gray(bits, &nbit, 9, 0);
 800ed24:	60b8      	str	r0, [r7, #8]
    indexes[2] = unpack_natural_or_gray(bits, &nbit, 3, 0);
 800ed26:	2203      	movs	r2, #3
 800ed28:	1d39      	adds	r1, r7, #4
 800ed2a:	4648      	mov	r0, r9
 800ed2c:	f00b fb92 	bl	801a454 <unpack_natural_or_gray>
    indexes[3] = unpack_natural_or_gray(bits, &nbit, 6, 0);
 800ed30:	1d39      	adds	r1, r7, #4
    indexes[2] = unpack_natural_or_gray(bits, &nbit, 3, 0);
 800ed32:	6138      	str	r0, [r7, #16]
    indexes[3] = unpack_natural_or_gray(bits, &nbit, 6, 0);
 800ed34:	4623      	mov	r3, r4
 800ed36:	4648      	mov	r0, r9
 800ed38:	2206      	movs	r2, #6
 800ed3a:	f00b fb8b 	bl	801a454 <unpack_natural_or_gray>
    COMP  HH[M][MAX_AMP+1];
 800ed3e:	f5ad 5da1 	sub.w	sp, sp, #5152	; 0x1420
 800ed42:	aa0a      	add	r2, sp, #40	; 0x28
    indexes[0] = unpack_natural_or_gray(bits, &nbit, 9, 0);
 800ed44:	f107 0508 	add.w	r5, r7, #8
    float interpolated_surface_[M][NEWAMP2_K];
 800ed48:	b0f4      	sub	sp, #464	; 0x1d0
    newamp2_indexes_to_model(&c2->c2const,
 800ed4a:	e9cd 5407 	strd	r5, r4, [sp, #28]
 800ed4e:	f8d6 3e88 	ldr.w	r3, [r6, #3720]	; 0xe88
 800ed52:	9306      	str	r3, [sp, #24]
 800ed54:	f8d6 3e84 	ldr.w	r3, [r6, #3716]	; 0xe84
 800ed58:	9305      	str	r3, [sp, #20]
 800ed5a:	231d      	movs	r3, #29
 800ed5c:	9304      	str	r3, [sp, #16]
                             c2->n2_rate_K_sample_freqs_kHz, 
 800ed5e:	f606 63f4 	addw	r3, r6, #3828	; 0xef4
    newamp2_indexes_to_model(&c2->c2const,
 800ed62:	9303      	str	r3, [sp, #12]
 800ed64:	f506 6368 	add.w	r3, r6, #3712	; 0xe80
 800ed68:	9302      	str	r3, [sp, #8]
 800ed6a:	f606 637c 	addw	r3, r6, #3708	; 0xe7c
 800ed6e:	9301      	str	r3, [sp, #4]
                             c2->n2_prev_rate_K_vec_,
 800ed70:	f606 7368 	addw	r3, r6, #3944	; 0xf68
    indexes[3] = unpack_natural_or_gray(bits, &nbit, 6, 0);
 800ed74:	6178      	str	r0, [r7, #20]
    newamp2_indexes_to_model(&c2->c2const,
 800ed76:	9300      	str	r3, [sp, #0]
 800ed78:	eeb7 0a08 	vmov.f32	s0, #120	; 0x3fc00000  1.5
 800ed7c:	ab0a      	add	r3, sp, #40	; 0x28
 800ed7e:	f107 0118 	add.w	r1, r7, #24
 800ed82:	1d30      	adds	r0, r6, #4
 800ed84:	4615      	mov	r5, r2
 800ed86:	f009 fa17 	bl	80181b8 <newamp2_indexes_to_model>
       synthesise_one_frame(c2, &speech[c2->n_samp*i], &model[i], &HH[i][0], 1.5);
 800ed8a:	f240 5914 	movw	r9, #1300	; 0x514
 800ed8e:	6b32      	ldr	r2, [r6, #48]	; 0x30
 800ed90:	fb02 f104 	mul.w	r1, r2, r4
 800ed94:	f107 0218 	add.w	r2, r7, #24
 800ed98:	462b      	mov	r3, r5
 800ed9a:	fb09 2204 	mla	r2, r9, r4, r2
 800ed9e:	eeb7 0a08 	vmov.f32	s0, #120	; 0x3fc00000  1.5
 800eda2:	eb08 0141 	add.w	r1, r8, r1, lsl #1
 800eda6:	4630      	mov	r0, r6
   for(i=0; i<M; i++) {
 800eda8:	3401      	adds	r4, #1
       synthesise_one_frame(c2, &speech[c2->n_samp*i], &model[i], &HH[i][0], 1.5);
 800edaa:	f7fe fddd 	bl	800d968 <synthesise_one_frame>
   for(i=0; i<M; i++) {
 800edae:	2c04      	cmp	r4, #4
 800edb0:	f505 65a1 	add.w	r5, r5, #1288	; 0x508
 800edb4:	d1eb      	bne.n	800ed8e <codec2_decode_450+0x92>
}
 800edb6:	f507 57a3 	add.w	r7, r7, #5216	; 0x1460
 800edba:	370c      	adds	r7, #12
 800edbc:	46bd      	mov	sp, r7
 800edbe:	e8bd 83f0 	ldmia.w	sp!, {r4, r5, r6, r7, r8, r9, pc}
    assert(c2 != NULL);
 800edc2:	4b03      	ldr	r3, [pc, #12]	; (800edd0 <codec2_decode_450+0xd4>)
 800edc4:	4a03      	ldr	r2, [pc, #12]	; (800edd4 <codec2_decode_450+0xd8>)
 800edc6:	4804      	ldr	r0, [pc, #16]	; (800edd8 <codec2_decode_450+0xdc>)
 800edc8:	f240 718a 	movw	r1, #1930	; 0x78a
 800edcc:	f014 fbde 	bl	802358c <__assert_func>
 800edd0:	0804cb68 	.word	0x0804cb68
 800edd4:	0804cd28 	.word	0x0804cd28
 800edd8:	0804cb40 	.word	0x0804cb40

0800eddc <codec2_decode_450pwb>:
{
 800eddc:	e92d 43f0 	stmdb	sp!, {r4, r5, r6, r7, r8, r9, lr}
 800ede0:	f5ad 5da4 	sub.w	sp, sp, #5248	; 0x1480
 800ede4:	b085      	sub	sp, #20
 800ede6:	af0a      	add	r7, sp, #40	; 0x28
    unsigned int nbit = 0;
 800ede8:	2300      	movs	r3, #0
 800edea:	607b      	str	r3, [r7, #4]
    assert(c2 != NULL);
 800edec:	2800      	cmp	r0, #0
 800edee:	d05b      	beq.n	800eea8 <codec2_decode_450pwb+0xcc>
    indexes[0] = unpack_natural_or_gray(bits, &nbit, 9, 0);
 800edf0:	4614      	mov	r4, r2
 800edf2:	4605      	mov	r5, r0
 800edf4:	2209      	movs	r2, #9
 800edf6:	4620      	mov	r0, r4
 800edf8:	4688      	mov	r8, r1
 800edfa:	1d39      	adds	r1, r7, #4
 800edfc:	f00b fb2a 	bl	801a454 <unpack_natural_or_gray>
    indexes[2] = unpack_natural_or_gray(bits, &nbit, 3, 0);
 800ee00:	2300      	movs	r3, #0
    indexes[0] = unpack_natural_or_gray(bits, &nbit, 9, 0);
 800ee02:	60b8      	str	r0, [r7, #8]
    indexes[2] = unpack_natural_or_gray(bits, &nbit, 3, 0);
 800ee04:	2203      	movs	r2, #3
 800ee06:	1d39      	adds	r1, r7, #4
 800ee08:	4620      	mov	r0, r4
 800ee0a:	f00b fb23 	bl	801a454 <unpack_natural_or_gray>
    indexes[3] = unpack_natural_or_gray(bits, &nbit, 6, 0);
 800ee0e:	2300      	movs	r3, #0
    indexes[2] = unpack_natural_or_gray(bits, &nbit, 3, 0);
 800ee10:	6138      	str	r0, [r7, #16]
    indexes[3] = unpack_natural_or_gray(bits, &nbit, 6, 0);
 800ee12:	1d39      	adds	r1, r7, #4
 800ee14:	4620      	mov	r0, r4
